{
  "transactions": [
    {
      "hash": "0xc530066117b8048cef5507c2bfb74765ad51b3ef608a765df26e4a85b96b4f21",
      "transactionType": "CALL",
      "contractName": "VaultFactory",
      "contractAddress": "0xc7f2cf4845c6db0e1a1e91ed41bcd0fcc1b0e141",
      "function": "createNewMarket(uint256,address,int256,uint256,uint256,address,string):(address,address)",
      "arguments": [
        "32",
        "01be23585060835e02b77ef475b0cc51aa1e0709",
        "63",
        "6314649d",
        "63355a1d",
        "5f0423b1a6935dc5596e7a24d98532b67a0aefd8",
        "y2kUSDC_99*SET"
      ],
      "transaction": {
        "type": "0x00",
        "from": "0xfb0a3a93e9acd461747e7d613eb3722d53b96613",
        "to": "0xc7f2cf4845c6db0e1a1e91ed41bcd0fcc1b0e141",
        "gas": "0x74d6",
        "value": "0x0",
        "data": "0x15355d89000000000000000000000000000000000000000000000000000000000000003200000000000000000000000001be23585060835e02b77ef475b0cc51aa1e07090000000000000000000000000000000000000000000000000000000000000063000000000000000000000000000000000000000000000000000000006314649d0000000000000000000000000000000000000000000000000000000063355a1d0000000000000000000000005f0423b1a6935dc5596e7a24d98532b67a0aefd800000000000000000000000000000000000000000000000000000000000000e0000000000000000000000000000000000000000000000000000000000000000e79326b555344435f39392a534554000000000000000000000000000000000000",
        "nonce": "0x16f"
      }
    },
    {
      "hash": "0x4f9a8ec78b907a93776fec9f79cf1d76339996c90a43f7eb47e07c946a6f2385",
      "transactionType": "CALL",
      "contractName": "RewardsFactory",
      "contractAddress": "0xd85bdcdae4db1faeb8ef93331525fe68d7c8b3f0",
      "function": "createStakingRewards(uint256,uint256):(address,address)",
      "arguments": [
        "1",
        "63355a1d"
      ],
      "transaction": {
        "type": "0x00",
        "from": "0xfb0a3a93e9acd461747e7d613eb3722d53b96613",
        "to": "0xd85bdcdae4db1faeb8ef93331525fe68d7c8b3f0",
        "gas": "0x6c92",
        "value": "0x0",
        "data": "0x2acbfaa300000000000000000000000000000000000000000000000000000000000000010000000000000000000000000000000000000000000000000000000063355a1d",
        "nonce": "0x170"
      }
    },
    {
      "hash": "0xa6d66d83c02a208fd4c4bb67f22e93282ad34a8e1c9783fd0866108941f31a0b",
      "transactionType": "CALL",
      "contractName": "GovToken",
      "contractAddress": "0x238213078dbd09f2d15f4c14c02300fa1b2a81bb",
      "function": "moneyPrinterGoesBrr(address)",
      "arguments": [
        "5efd028dd0751f9ed1b3c8b058b02e47f3fbd80b"
      ],
      "transaction": {
        "type": "0x00",
        "from": "0xfb0a3a93e9acd461747e7d613eb3722d53b96613",
        "to": "0x238213078dbd09f2d15f4c14c02300fa1b2a81bb",
        "gas": "0x6cd5",
        "value": "0x0",
        "data": "0x46e9ef520000000000000000000000005efd028dd0751f9ed1b3c8b058b02e47f3fbd80b",
        "nonce": "0x171"
      }
    },
    {
      "hash": "0x031cf5101faed77acfe5da95be83699c1b61a040721aa254d99e9f41e348dd52",
      "transactionType": "CALL",
      "contractName": "GovToken",
      "contractAddress": "0x238213078dbd09f2d15f4c14c02300fa1b2a81bb",
      "function": "moneyPrinterGoesBrr(address)",
      "arguments": [
        "22c484c3a2981a5fed21f0be28bf88a53838ab92"
      ],
      "transaction": {
        "type": "0x00",
        "from": "0xfb0a3a93e9acd461747e7d613eb3722d53b96613",
        "to": "0x238213078dbd09f2d15f4c14c02300fa1b2a81bb",
        "gas": "0x6cd5",
        "value": "0x0",
        "data": "0x46e9ef5200000000000000000000000022c484c3a2981a5fed21f0be28bf88a53838ab92",
        "nonce": "0x172"
      }
    },
    {
      "hash": "0x22e95e250ae4cff10c4d2ab96bf27092fe2905a7ae4a933f57a7b4bf1ebeee88",
      "transactionType": "CALL",
      "contractName": "VaultFactory",
      "contractAddress": "0xc7f2cf4845c6db0e1a1e91ed41bcd0fcc1b0e141",
      "function": "createNewMarket(uint256,address,int256,uint256,uint256,address,string):(address,address)",
      "arguments": [
        "32",
        "01be23585060835e02b77ef475b0cc51aa1e0709",
        "61",
        "6314649d",
        "63355a1d",
        "5f0423b1a6935dc5596e7a24d98532b67a0aefd8",
        "y2kUSDC_97*SET"
      ],
      "transaction": {
        "type": "0x00",
        "from": "0xfb0a3a93e9acd461747e7d613eb3722d53b96613",
        "to": "0xc7f2cf4845c6db0e1a1e91ed41bcd0fcc1b0e141",
        "gas": "0x74d6",
        "value": "0x0",
        "data": "0x15355d89000000000000000000000000000000000000000000000000000000000000003200000000000000000000000001be23585060835e02b77ef475b0cc51aa1e07090000000000000000000000000000000000000000000000000000000000000061000000000000000000000000000000000000000000000000000000006314649d0000000000000000000000000000000000000000000000000000000063355a1d0000000000000000000000005f0423b1a6935dc5596e7a24d98532b67a0aefd800000000000000000000000000000000000000000000000000000000000000e0000000000000000000000000000000000000000000000000000000000000000e79326b555344435f39372a534554000000000000000000000000000000000000",
        "nonce": "0x173"
      }
    },
    {
      "hash": "0x353dee3be4ddca3a622a1c659f780750e16895024ff8a0e7a3c3d1a126c0c22c",
      "transactionType": "CALL",
      "contractName": "RewardsFactory",
      "contractAddress": "0xd85bdcdae4db1faeb8ef93331525fe68d7c8b3f0",
      "function": "createStakingRewards(uint256,uint256):(address,address)",
      "arguments": [
        "2",
        "63355a1d"
      ],
      "transaction": {
        "type": "0x00",
        "from": "0xfb0a3a93e9acd461747e7d613eb3722d53b96613",
        "to": "0xd85bdcdae4db1faeb8ef93331525fe68d7c8b3f0",
        "gas": "0x6c92",
        "value": "0x0",
        "data": "0x2acbfaa300000000000000000000000000000000000000000000000000000000000000020000000000000000000000000000000000000000000000000000000063355a1d",
        "nonce": "0x174"
      }
    },
    {
      "hash": "0x6af13fc1df032ad084148a4f9998fef120ab5e91349a891144bf3982fb559d7c",
      "transactionType": "CALL",
      "contractName": "GovToken",
      "contractAddress": "0x238213078dbd09f2d15f4c14c02300fa1b2a81bb",
      "function": "moneyPrinterGoesBrr(address)",
      "arguments": [
        "e36d69115712364c613547eefde0f85d56359c85"
      ],
      "transaction": {
        "type": "0x00",
        "from": "0xfb0a3a93e9acd461747e7d613eb3722d53b96613",
        "to": "0x238213078dbd09f2d15f4c14c02300fa1b2a81bb",
        "gas": "0x6cd5",
        "value": "0x0",
        "data": "0x46e9ef52000000000000000000000000e36d69115712364c613547eefde0f85d56359c85",
        "nonce": "0x175"
      }
    },
    {
      "hash": "0x9a9d8464cc2b897edbefff4c1866ffe760ba1170d5b50f5e44767a0af3bf9562",
      "transactionType": "CALL",
      "contractName": "GovToken",
      "contractAddress": "0x238213078dbd09f2d15f4c14c02300fa1b2a81bb",
      "function": "moneyPrinterGoesBrr(address)",
      "arguments": [
        "bae85457b74dbf325aa6646b0fa997afbd450a75"
      ],
      "transaction": {
        "type": "0x00",
        "from": "0xfb0a3a93e9acd461747e7d613eb3722d53b96613",
        "to": "0x238213078dbd09f2d15f4c14c02300fa1b2a81bb",
        "gas": "0x6cd5",
        "value": "0x0",
        "data": "0x46e9ef52000000000000000000000000bae85457b74dbf325aa6646b0fa997afbd450a75",
        "nonce": "0x176"
      }
    },
    {
      "hash": "0xdb4a2f07c8db74c7f39ebd6ab02dd9bd9b005299a46373621736dc0be3ac35cb",
      "transactionType": "CALL",
      "contractName": "VaultFactory",
      "contractAddress": "0xc7f2cf4845c6db0e1a1e91ed41bcd0fcc1b0e141",
      "function": "createNewMarket(uint256,address,int256,uint256,uint256,address,string):(address,address)",
      "arguments": [
        "32",
        "01be23585060835e02b77ef475b0cc51aa1e0709",
        "5f",
        "6314649d",
        "63355a1d",
        "5f0423b1a6935dc5596e7a24d98532b67a0aefd8",
        "y2kUSDC_95*SET"
      ],
      "transaction": {
        "type": "0x00",
        "from": "0xfb0a3a93e9acd461747e7d613eb3722d53b96613",
        "to": "0xc7f2cf4845c6db0e1a1e91ed41bcd0fcc1b0e141",
        "gas": "0x74d6",
        "value": "0x0",
        "data": "0x15355d89000000000000000000000000000000000000000000000000000000000000003200000000000000000000000001be23585060835e02b77ef475b0cc51aa1e0709000000000000000000000000000000000000000000000000000000000000005f000000000000000000000000000000000000000000000000000000006314649d0000000000000000000000000000000000000000000000000000000063355a1d0000000000000000000000005f0423b1a6935dc5596e7a24d98532b67a0aefd800000000000000000000000000000000000000000000000000000000000000e0000000000000000000000000000000000000000000000000000000000000000e79326b555344435f39352a534554000000000000000000000000000000000000",
        "nonce": "0x177"
      }
    },
    {
      "hash": "0xb893d70257ca309b71b53fdaf509881432554a49138ea6e4688cc214fe934b5d",
      "transactionType": "CALL",
      "contractName": "RewardsFactory",
      "contractAddress": "0xd85bdcdae4db1faeb8ef93331525fe68d7c8b3f0",
      "function": "createStakingRewards(uint256,uint256):(address,address)",
      "arguments": [
        "3",
        "63355a1d"
      ],
      "transaction": {
        "type": "0x00",
        "from": "0xfb0a3a93e9acd461747e7d613eb3722d53b96613",
        "to": "0xd85bdcdae4db1faeb8ef93331525fe68d7c8b3f0",
        "gas": "0x6c92",
        "value": "0x0",
        "data": "0x2acbfaa300000000000000000000000000000000000000000000000000000000000000030000000000000000000000000000000000000000000000000000000063355a1d",
        "nonce": "0x178"
      }
    },
    {
      "hash": "0xc2ec963af8bbd6222367e9de0ef8c685844c085dbc979c3deff0a72a242174bf",
      "transactionType": "CALL",
      "contractName": "GovToken",
      "contractAddress": "0x238213078dbd09f2d15f4c14c02300fa1b2a81bb",
      "function": "moneyPrinterGoesBrr(address)",
      "arguments": [
        "970ab42ce938d3ef880df5db06c2aba9c0933f9b"
      ],
      "transaction": {
        "type": "0x00",
        "from": "0xfb0a3a93e9acd461747e7d613eb3722d53b96613",
        "to": "0x238213078dbd09f2d15f4c14c02300fa1b2a81bb",
        "gas": "0x6cd5",
        "value": "0x0",
        "data": "0x46e9ef52000000000000000000000000970ab42ce938d3ef880df5db06c2aba9c0933f9b",
        "nonce": "0x179"
      }
    },
    {
      "hash": "0x00a2da3cb5d15de35b87d9b148d6f1614aa3eb33aac9df6f4b2e5751a4856ca5",
      "transactionType": "CALL",
      "contractName": "GovToken",
      "contractAddress": "0x238213078dbd09f2d15f4c14c02300fa1b2a81bb",
      "function": "moneyPrinterGoesBrr(address)",
      "arguments": [
        "58096e18af48a584b92a73f8ebf3ee92e3b64b49"
      ],
      "transaction": {
        "type": "0x00",
        "from": "0xfb0a3a93e9acd461747e7d613eb3722d53b96613",
        "to": "0x238213078dbd09f2d15f4c14c02300fa1b2a81bb",
        "gas": "0x6cd5",
        "value": "0x0",
        "data": "0x46e9ef5200000000000000000000000058096e18af48a584b92a73f8ebf3ee92e3b64b49",
        "nonce": "0x17a"
      }
    },
    {
      "hash": "0xa5180229cc61b9c33554eff0e2af8a05538265bbb7457e6616542466c0844058",
      "transactionType": "CALL",
      "contractName": "VaultFactory",
      "contractAddress": "0xc7f2cf4845c6db0e1a1e91ed41bcd0fcc1b0e141",
      "function": "createNewMarket(uint256,address,int256,uint256,uint256,address,string):(address,address)",
      "arguments": [
        "32",
        "4dcf5ac4509888714dd43a5ccc46d7ab389d9c23",
        "63",
        "6314649d",
        "63355a1d",
        "3e3546c6b5689f7eaa1ba7bc9571322c3168d786",
        "y2kDAI_99*SET"
      ],
      "transaction": {
        "type": "0x00",
        "from": "0xfb0a3a93e9acd461747e7d613eb3722d53b96613",
        "to": "0xc7f2cf4845c6db0e1a1e91ed41bcd0fcc1b0e141",
        "gas": "0x74c6",
        "value": "0x0",
        "data": "0x15355d8900000000000000000000000000000000000000000000000000000000000000320000000000000000000000004dcf5ac4509888714dd43a5ccc46d7ab389d9c230000000000000000000000000000000000000000000000000000000000000063000000000000000000000000000000000000000000000000000000006314649d0000000000000000000000000000000000000000000000000000000063355a1d0000000000000000000000003e3546c6b5689f7eaa1ba7bc9571322c3168d78600000000000000000000000000000000000000000000000000000000000000e0000000000000000000000000000000000000000000000000000000000000000d79326b4441495f39392a53455400000000000000000000000000000000000000",
        "nonce": "0x17b"
      }
    },
    {
      "hash": "0x5128c71e4d0c38ed5b8f5486fd9ce6e01dd2abc16064b1b8cffcd6a076011249",
      "transactionType": "CALL",
      "contractName": "RewardsFactory",
      "contractAddress": "0xd85bdcdae4db1faeb8ef93331525fe68d7c8b3f0",
      "function": "createStakingRewards(uint256,uint256):(address,address)",
      "arguments": [
        "4",
        "63355a1d"
      ],
      "transaction": {
        "type": "0x00",
        "from": "0xfb0a3a93e9acd461747e7d613eb3722d53b96613",
        "to": "0xd85bdcdae4db1faeb8ef93331525fe68d7c8b3f0",
        "gas": "0x6c92",
        "value": "0x0",
        "data": "0x2acbfaa300000000000000000000000000000000000000000000000000000000000000040000000000000000000000000000000000000000000000000000000063355a1d",
        "nonce": "0x17c"
      }
    },
    {
      "hash": "0x1f3b047a9d90a9e8ec6623d9def80b7fe96de56a3a8bb6ab5007b84342105ca3",
      "transactionType": "CALL",
      "contractName": "GovToken",
      "contractAddress": "0x238213078dbd09f2d15f4c14c02300fa1b2a81bb",
      "function": "moneyPrinterGoesBrr(address)",
      "arguments": [
        "b5f00eb1d8fb8529b189a8c13e7909aa41cb963c"
      ],
      "transaction": {
        "type": "0x00",
        "from": "0xfb0a3a93e9acd461747e7d613eb3722d53b96613",
        "to": "0x238213078dbd09f2d15f4c14c02300fa1b2a81bb",
        "gas": "0x6cd5",
        "value": "0x0",
        "data": "0x46e9ef52000000000000000000000000b5f00eb1d8fb8529b189a8c13e7909aa41cb963c",
        "nonce": "0x17d"
      }
    },
    {
      "hash": "0x4d3a3cd2cbbee25d6de230b01b33917bc8063008d6515e7e54e30c384d2ec918",
      "transactionType": "CALL",
      "contractName": "GovToken",
      "contractAddress": "0x238213078dbd09f2d15f4c14c02300fa1b2a81bb",
      "function": "moneyPrinterGoesBrr(address)",
      "arguments": [
        "84e3eae127eccd856a3b07169b684a445f9b7fa5"
      ],
      "transaction": {
        "type": "0x00",
        "from": "0xfb0a3a93e9acd461747e7d613eb3722d53b96613",
        "to": "0x238213078dbd09f2d15f4c14c02300fa1b2a81bb",
        "gas": "0x6cd5",
        "value": "0x0",
        "data": "0x46e9ef5200000000000000000000000084e3eae127eccd856a3b07169b684a445f9b7fa5",
        "nonce": "0x17e"
      }
    },
    {
      "hash": "0x34e7586cbddabce49af1417e6d660365ac33a0fe0b316151da15d3a967c84eb6",
      "transactionType": "CALL",
      "contractName": "VaultFactory",
      "contractAddress": "0xc7f2cf4845c6db0e1a1e91ed41bcd0fcc1b0e141",
      "function": "createNewMarket(uint256,address,int256,uint256,uint256,address,string):(address,address)",
      "arguments": [
        "32",
        "4dcf5ac4509888714dd43a5ccc46d7ab389d9c23",
        "61",
        "6314649d",
        "63355a1d",
        "3e3546c6b5689f7eaa1ba7bc9571322c3168d786",
        "y2kDAI_97*SET"
      ],
      "transaction": {
        "type": "0x00",
        "from": "0xfb0a3a93e9acd461747e7d613eb3722d53b96613",
        "to": "0xc7f2cf4845c6db0e1a1e91ed41bcd0fcc1b0e141",
        "gas": "0x74c6",
        "value": "0x0",
        "data": "0x15355d8900000000000000000000000000000000000000000000000000000000000000320000000000000000000000004dcf5ac4509888714dd43a5ccc46d7ab389d9c230000000000000000000000000000000000000000000000000000000000000061000000000000000000000000000000000000000000000000000000006314649d0000000000000000000000000000000000000000000000000000000063355a1d0000000000000000000000003e3546c6b5689f7eaa1ba7bc9571322c3168d78600000000000000000000000000000000000000000000000000000000000000e0000000000000000000000000000000000000000000000000000000000000000d79326b4441495f39372a53455400000000000000000000000000000000000000",
        "nonce": "0x17f"
      }
    },
    {
      "hash": "0xf1b61864e4af0380960c9eaca8378fe73a0116e473b959e1a89b00bc94066b4d",
      "transactionType": "CALL",
      "contractName": "RewardsFactory",
      "contractAddress": "0xd85bdcdae4db1faeb8ef93331525fe68d7c8b3f0",
      "function": "createStakingRewards(uint256,uint256):(address,address)",
      "arguments": [
        "5",
        "63355a1d"
      ],
      "transaction": {
        "type": "0x00",
        "from": "0xfb0a3a93e9acd461747e7d613eb3722d53b96613",
        "to": "0xd85bdcdae4db1faeb8ef93331525fe68d7c8b3f0",
        "gas": "0x6c92",
        "value": "0x0",
        "data": "0x2acbfaa300000000000000000000000000000000000000000000000000000000000000050000000000000000000000000000000000000000000000000000000063355a1d",
        "nonce": "0x180"
      }
    },
    {
      "hash": "0x41fa88a0ea61298068170dfe031ca1993af82fc38ceeae87e3997dbdca1c8ef3",
      "transactionType": "CALL",
      "contractName": "GovToken",
      "contractAddress": "0x238213078dbd09f2d15f4c14c02300fa1b2a81bb",
      "function": "moneyPrinterGoesBrr(address)",
      "arguments": [
        "cd61dbc9c64dfff3208c3c1be8802c4f7c213b2f"
      ],
      "transaction": {
        "type": "0x00",
        "from": "0xfb0a3a93e9acd461747e7d613eb3722d53b96613",
        "to": "0x238213078dbd09f2d15f4c14c02300fa1b2a81bb",
        "gas": "0x6cd5",
        "value": "0x0",
        "data": "0x46e9ef52000000000000000000000000cd61dbc9c64dfff3208c3c1be8802c4f7c213b2f",
        "nonce": "0x181"
      }
    },
    {
      "hash": "0x08f137bb6b2978a3f0a730716d0e4a2796a1a624beada14b223fe069e1a52460",
      "transactionType": "CALL",
      "contractName": "GovToken",
      "contractAddress": "0x238213078dbd09f2d15f4c14c02300fa1b2a81bb",
      "function": "moneyPrinterGoesBrr(address)",
      "arguments": [
        "b232329bc4c1b6d0756cae89accfbcdd723cc75b"
      ],
      "transaction": {
        "type": "0x00",
        "from": "0xfb0a3a93e9acd461747e7d613eb3722d53b96613",
        "to": "0x238213078dbd09f2d15f4c14c02300fa1b2a81bb",
        "gas": "0x6cd5",
        "value": "0x0",
        "data": "0x46e9ef52000000000000000000000000b232329bc4c1b6d0756cae89accfbcdd723cc75b",
        "nonce": "0x182"
      }
    },
    {
      "hash": "0x1f3d116a9902ed99bca6f115e52d9a76c8e95788ce38324b5aa549d2bd50c5bf",
      "transactionType": "CALL",
      "contractName": "VaultFactory",
      "contractAddress": "0xc7f2cf4845c6db0e1a1e91ed41bcd0fcc1b0e141",
      "function": "createNewMarket(uint256,address,int256,uint256,uint256,address,string):(address,address)",
      "arguments": [
        "32",
        "4dcf5ac4509888714dd43a5ccc46d7ab389d9c23",
        "5f",
        "6314649d",
        "63355a1d",
        "3e3546c6b5689f7eaa1ba7bc9571322c3168d786",
        "y2kDAI_95*SET"
      ],
      "transaction": {
        "type": "0x00",
        "from": "0xfb0a3a93e9acd461747e7d613eb3722d53b96613",
        "to": "0xc7f2cf4845c6db0e1a1e91ed41bcd0fcc1b0e141",
        "gas": "0x74c6",
        "value": "0x0",
        "data": "0x15355d8900000000000000000000000000000000000000000000000000000000000000320000000000000000000000004dcf5ac4509888714dd43a5ccc46d7ab389d9c23000000000000000000000000000000000000000000000000000000000000005f000000000000000000000000000000000000000000000000000000006314649d0000000000000000000000000000000000000000000000000000000063355a1d0000000000000000000000003e3546c6b5689f7eaa1ba7bc9571322c3168d78600000000000000000000000000000000000000000000000000000000000000e0000000000000000000000000000000000000000000000000000000000000000d79326b4441495f39352a53455400000000000000000000000000000000000000",
        "nonce": "0x183"
      }
    },
    {
      "hash": "0xd4f5a6699de9a5fc61d645411a696d4be8004ed88de9e8333ead73244d297023",
      "transactionType": "CALL",
      "contractName": "RewardsFactory",
      "contractAddress": "0xd85bdcdae4db1faeb8ef93331525fe68d7c8b3f0",
      "function": "createStakingRewards(uint256,uint256):(address,address)",
      "arguments": [
        "6",
        "63355a1d"
      ],
      "transaction": {
        "type": "0x00",
        "from": "0xfb0a3a93e9acd461747e7d613eb3722d53b96613",
        "to": "0xd85bdcdae4db1faeb8ef93331525fe68d7c8b3f0",
        "gas": "0x6c92",
        "value": "0x0",
        "data": "0x2acbfaa300000000000000000000000000000000000000000000000000000000000000060000000000000000000000000000000000000000000000000000000063355a1d",
        "nonce": "0x184"
      }
    },
    {
      "hash": "0x381218ff1fffc645319d3c24856611d13234dfdb41cc97f88a28e3d41986eb51",
      "transactionType": "CALL",
      "contractName": "GovToken",
      "contractAddress": "0x238213078dbd09f2d15f4c14c02300fa1b2a81bb",
      "function": "moneyPrinterGoesBrr(address)",
      "arguments": [
        "f3c4f7b93b7144947a2cf1d7d6b7758dec11df27"
      ],
      "transaction": {
        "type": "0x00",
        "from": "0xfb0a3a93e9acd461747e7d613eb3722d53b96613",
        "to": "0x238213078dbd09f2d15f4c14c02300fa1b2a81bb",
        "gas": "0x6cd5",
        "value": "0x0",
        "data": "0x46e9ef52000000000000000000000000f3c4f7b93b7144947a2cf1d7d6b7758dec11df27",
        "nonce": "0x185"
      }
    },
    {
      "hash": "0x26a7543a0f84d85e095dc8ec3edc3791c8b5847fa5417b80a38ebb0ad9a0dd1c",
      "transactionType": "CALL",
      "contractName": "GovToken",
      "contractAddress": "0x238213078dbd09f2d15f4c14c02300fa1b2a81bb",
      "function": "moneyPrinterGoesBrr(address)",
      "arguments": [
        "957e7620bb3e23fa0217c23f80c8e500e4add7e9"
      ],
      "transaction": {
        "type": "0x00",
        "from": "0xfb0a3a93e9acd461747e7d613eb3722d53b96613",
        "to": "0x238213078dbd09f2d15f4c14c02300fa1b2a81bb",
        "gas": "0x6cc6",
        "value": "0x0",
        "data": "0x46e9ef52000000000000000000000000957e7620bb3e23fa0217c23f80c8e500e4add7e9",
        "nonce": "0x186"
      }
    },
    {
      "hash": "0x63d2adc54a202d2d8a20daafd052f9faf22c596e334659b6ca291d1004dbed1e",
      "transactionType": "CALL",
      "contractName": "VaultFactory",
      "contractAddress": "0xc7f2cf4845c6db0e1a1e91ed41bcd0fcc1b0e141",
      "function": "deployMoreAssets(uint256,uint256,uint256)",
      "arguments": [
        "1",
        "638b0b9d",
        "639ed21d"
      ],
      "transaction": {
        "type": "0x00",
        "from": "0xfb0a3a93e9acd461747e7d613eb3722d53b96613",
        "to": "0xc7f2cf4845c6db0e1a1e91ed41bcd0fcc1b0e141",
        "gas": "0x6d76",
        "value": "0x0",
        "data": "0x7bb4a17b000000000000000000000000000000000000000000000000000000000000000100000000000000000000000000000000000000000000000000000000638b0b9d00000000000000000000000000000000000000000000000000000000639ed21d",
        "nonce": "0x187"
      }
    },
    {
      "hash": "0x9b8012d1ac970e47143d4a892f3e835a2afc91898bfd6603fb729c6bf587873e",
      "transactionType": "CALL",
      "contractName": "RewardsFactory",
      "contractAddress": "0xd85bdcdae4db1faeb8ef93331525fe68d7c8b3f0",
      "function": "createStakingRewards(uint256,uint256):(address,address)",
      "arguments": [
        "1",
        "639ed21d"
      ],
      "transaction": {
        "type": "0x00",
        "from": "0xfb0a3a93e9acd461747e7d613eb3722d53b96613",
        "to": "0xd85bdcdae4db1faeb8ef93331525fe68d7c8b3f0",
        "gas": "0x6c92",
        "value": "0x0",
        "data": "0x2acbfaa3000000000000000000000000000000000000000000000000000000000000000100000000000000000000000000000000000000000000000000000000639ed21d",
        "nonce": "0x188"
      }
    },
    {
      "hash": "0x1c74cee57ae476886a54ab8d580726d68e5169b1653b7e771c9fb74166f391b5",
      "transactionType": "CALL",
      "contractName": "GovToken",
      "contractAddress": "0x238213078dbd09f2d15f4c14c02300fa1b2a81bb",
      "function": "moneyPrinterGoesBrr(address)",
      "arguments": [
        "e8d96f31412552c2ff98bf9eba664db73327c158"
      ],
      "transaction": {
        "type": "0x00",
        "from": "0xfb0a3a93e9acd461747e7d613eb3722d53b96613",
        "to": "0x238213078dbd09f2d15f4c14c02300fa1b2a81bb",
        "gas": "0x6cd5",
        "value": "0x0",
        "data": "0x46e9ef52000000000000000000000000e8d96f31412552c2ff98bf9eba664db73327c158",
        "nonce": "0x189"
      }
    },
    {
      "hash": "0x0c3680fe5e5939df7651975330763c32b545ec818397875154a2432d9159cead",
      "transactionType": "CALL",
      "contractName": "GovToken",
      "contractAddress": "0x238213078dbd09f2d15f4c14c02300fa1b2a81bb",
      "function": "moneyPrinterGoesBrr(address)",
      "arguments": [
        "ca96b4ccaf8ea091df523e3b7c81e5d65e4a40cf"
      ],
      "transaction": {
        "type": "0x00",
        "from": "0xfb0a3a93e9acd461747e7d613eb3722d53b96613",
        "to": "0x238213078dbd09f2d15f4c14c02300fa1b2a81bb",
        "gas": "0x6cd5",
        "value": "0x0",
        "data": "0x46e9ef52000000000000000000000000ca96b4ccaf8ea091df523e3b7c81e5d65e4a40cf",
        "nonce": "0x18a"
      }
    },
    {
      "hash": "0x5536afc13f2de35b3630ed831fa37f515cee309fa61ec475891f875776ebab9f",
      "transactionType": "CALL",
      "contractName": "VaultFactory",
      "contractAddress": "0xc7f2cf4845c6db0e1a1e91ed41bcd0fcc1b0e141",
      "function": "deployMoreAssets(uint256,uint256,uint256)",
      "arguments": [
        "2",
        "638b0b9d",
        "639ed21d"
      ],
      "transaction": {
        "type": "0x00",
        "from": "0xfb0a3a93e9acd461747e7d613eb3722d53b96613",
        "to": "0xc7f2cf4845c6db0e1a1e91ed41bcd0fcc1b0e141",
        "gas": "0x6d76",
        "value": "0x0",
        "data": "0x7bb4a17b000000000000000000000000000000000000000000000000000000000000000200000000000000000000000000000000000000000000000000000000638b0b9d00000000000000000000000000000000000000000000000000000000639ed21d",
        "nonce": "0x18b"
      }
    },
    {
      "hash": "0x6832b7172f52f95fb8a34c013295c14805d21777feb25c41ee62337ea7a3b1c5",
      "transactionType": "CALL",
      "contractName": "RewardsFactory",
      "contractAddress": "0xd85bdcdae4db1faeb8ef93331525fe68d7c8b3f0",
      "function": "createStakingRewards(uint256,uint256):(address,address)",
      "arguments": [
        "2",
        "639ed21d"
      ],
      "transaction": {
        "type": "0x00",
        "from": "0xfb0a3a93e9acd461747e7d613eb3722d53b96613",
        "to": "0xd85bdcdae4db1faeb8ef93331525fe68d7c8b3f0",
        "gas": "0x6c92",
        "value": "0x0",
        "data": "0x2acbfaa3000000000000000000000000000000000000000000000000000000000000000200000000000000000000000000000000000000000000000000000000639ed21d",
        "nonce": "0x18c"
      }
    },
    {
      "hash": "0xea821ee3774a2214b01fe55411752d62b3e50885fc0c0f2adaee9fa945873c7e",
      "transactionType": "CALL",
      "contractName": "GovToken",
      "contractAddress": "0x238213078dbd09f2d15f4c14c02300fa1b2a81bb",
      "function": "moneyPrinterGoesBrr(address)",
      "arguments": [
        "ac437033f9061ecd556e3f7b62eceac67a653b78"
      ],
      "transaction": {
        "type": "0x00",
        "from": "0xfb0a3a93e9acd461747e7d613eb3722d53b96613",
        "to": "0x238213078dbd09f2d15f4c14c02300fa1b2a81bb",
        "gas": "0x6cd5",
        "value": "0x0",
        "data": "0x46e9ef52000000000000000000000000ac437033f9061ecd556e3f7b62eceac67a653b78",
        "nonce": "0x18d"
      }
    },
    {
      "hash": "0x80dd0dc4504faf62a7800b60ca1f49903959a47a952511cdefac8465742e4c2e",
      "transactionType": "CALL",
      "contractName": "GovToken",
      "contractAddress": "0x238213078dbd09f2d15f4c14c02300fa1b2a81bb",
      "function": "moneyPrinterGoesBrr(address)",
      "arguments": [
        "3e274c754e5f436ac92c3668179176f400506fe7"
      ],
      "transaction": {
        "type": "0x00",
        "from": "0xfb0a3a93e9acd461747e7d613eb3722d53b96613",
        "to": "0x238213078dbd09f2d15f4c14c02300fa1b2a81bb",
        "gas": "0x6cc6",
        "value": "0x0",
        "data": "0x46e9ef520000000000000000000000003e274c754e5f436ac92c3668179176f400506fe7",
        "nonce": "0x18e"
      }
    },
    {
      "hash": "0xb733b4bf80f1dfcc606b4424106405df48f575cb18e284769f7d39da7b7ecc94",
      "transactionType": "CALL",
      "contractName": "VaultFactory",
      "contractAddress": "0xc7f2cf4845c6db0e1a1e91ed41bcd0fcc1b0e141",
      "function": "deployMoreAssets(uint256,uint256,uint256)",
      "arguments": [
        "3",
        "638b0b9d",
        "639ed21d"
      ],
      "transaction": {
        "type": "0x00",
        "from": "0xfb0a3a93e9acd461747e7d613eb3722d53b96613",
        "to": "0xc7f2cf4845c6db0e1a1e91ed41bcd0fcc1b0e141",
        "gas": "0x6d76",
        "value": "0x0",
        "data": "0x7bb4a17b000000000000000000000000000000000000000000000000000000000000000300000000000000000000000000000000000000000000000000000000638b0b9d00000000000000000000000000000000000000000000000000000000639ed21d",
        "nonce": "0x18f"
      }
    },
    {
      "hash": "0x507015d800d9ed21258a99f514a340f0a52da7880fbce3b9a89e5bcbe7469eb2",
      "transactionType": "CALL",
      "contractName": "RewardsFactory",
      "contractAddress": "0xd85bdcdae4db1faeb8ef93331525fe68d7c8b3f0",
      "function": "createStakingRewards(uint256,uint256):(address,address)",
      "arguments": [
        "3",
        "639ed21d"
      ],
      "transaction": {
        "type": "0x00",
        "from": "0xfb0a3a93e9acd461747e7d613eb3722d53b96613",
        "to": "0xd85bdcdae4db1faeb8ef93331525fe68d7c8b3f0",
        "gas": "0x6c92",
        "value": "0x0",
        "data": "0x2acbfaa3000000000000000000000000000000000000000000000000000000000000000300000000000000000000000000000000000000000000000000000000639ed21d",
        "nonce": "0x190"
      }
    },
    {
      "hash": "0x5d6704a4ae4d708287d419bac3ec045a0f9d672718cadcc5ed774549787c6999",
      "transactionType": "CALL",
      "contractName": "GovToken",
      "contractAddress": "0x238213078dbd09f2d15f4c14c02300fa1b2a81bb",
      "function": "moneyPrinterGoesBrr(address)",
      "arguments": [
        "fbf40c1451ee2fe2a3ec1b6042818f317a8016d7"
      ],
      "transaction": {
        "type": "0x00",
        "from": "0xfb0a3a93e9acd461747e7d613eb3722d53b96613",
        "to": "0x238213078dbd09f2d15f4c14c02300fa1b2a81bb",
        "gas": "0x6cd5",
        "value": "0x0",
        "data": "0x46e9ef52000000000000000000000000fbf40c1451ee2fe2a3ec1b6042818f317a8016d7",
        "nonce": "0x191"
      }
    },
    {
      "hash": "0x31897624bd7e262ca66bfc51c74a87dec17a28aec08b95e117f6e36f8301c1ab",
      "transactionType": "CALL",
      "contractName": "GovToken",
      "contractAddress": "0x238213078dbd09f2d15f4c14c02300fa1b2a81bb",
      "function": "moneyPrinterGoesBrr(address)",
      "arguments": [
        "405e432fb37da1ee9859090a7cc6dcae6ad536e6"
      ],
      "transaction": {
        "type": "0x00",
        "from": "0xfb0a3a93e9acd461747e7d613eb3722d53b96613",
        "to": "0x238213078dbd09f2d15f4c14c02300fa1b2a81bb",
        "gas": "0x6cd5",
        "value": "0x0",
        "data": "0x46e9ef52000000000000000000000000405e432fb37da1ee9859090a7cc6dcae6ad536e6",
        "nonce": "0x192"
      }
    },
    {
      "hash": "0x31d748601ccab526c3373cce2746073af42cbaebcb523ac7fb2435a70802dc26",
      "transactionType": "CALL",
      "contractName": "VaultFactory",
      "contractAddress": "0xc7f2cf4845c6db0e1a1e91ed41bcd0fcc1b0e141",
      "function": "deployMoreAssets(uint256,uint256,uint256)",
      "arguments": [
        "4",
        "638b0b9d",
        "639ed21d"
      ],
      "transaction": {
        "type": "0x00",
        "from": "0xfb0a3a93e9acd461747e7d613eb3722d53b96613",
        "to": "0xc7f2cf4845c6db0e1a1e91ed41bcd0fcc1b0e141",
        "gas": "0x6d76",
        "value": "0x0",
        "data": "0x7bb4a17b000000000000000000000000000000000000000000000000000000000000000400000000000000000000000000000000000000000000000000000000638b0b9d00000000000000000000000000000000000000000000000000000000639ed21d",
        "nonce": "0x193"
      }
    },
    {
      "hash": "0x835a18f949d510959ccaff844c7173683aa03ed79d8ef169c75407562b28cd36",
      "transactionType": "CALL",
      "contractName": "RewardsFactory",
      "contractAddress": "0xd85bdcdae4db1faeb8ef93331525fe68d7c8b3f0",
      "function": "createStakingRewards(uint256,uint256):(address,address)",
      "arguments": [
        "4",
        "639ed21d"
      ],
      "transaction": {
        "type": "0x00",
        "from": "0xfb0a3a93e9acd461747e7d613eb3722d53b96613",
        "to": "0xd85bdcdae4db1faeb8ef93331525fe68d7c8b3f0",
        "gas": "0x6c92",
        "value": "0x0",
        "data": "0x2acbfaa3000000000000000000000000000000000000000000000000000000000000000400000000000000000000000000000000000000000000000000000000639ed21d",
        "nonce": "0x194"
      }
    },
    {
      "hash": "0x909b06324b70d506c44e13f3b8b40a68e71fced118c0007d991ecc13118c2b15",
      "transactionType": "CALL",
      "contractName": "GovToken",
      "contractAddress": "0x238213078dbd09f2d15f4c14c02300fa1b2a81bb",
      "function": "moneyPrinterGoesBrr(address)",
      "arguments": [
        "b599e9fa08b0cd29a2eafbae84b20e19b5b1c12b"
      ],
      "transaction": {
        "type": "0x00",
        "from": "0xfb0a3a93e9acd461747e7d613eb3722d53b96613",
        "to": "0x238213078dbd09f2d15f4c14c02300fa1b2a81bb",
        "gas": "0x6cd5",
        "value": "0x0",
        "data": "0x46e9ef52000000000000000000000000b599e9fa08b0cd29a2eafbae84b20e19b5b1c12b",
        "nonce": "0x195"
      }
    },
    {
      "hash": "0x5c0693cbed41e9c53d1e2b3c82a3a12960945657b7b86b7c8453fe2995f2e643",
      "transactionType": "CALL",
      "contractName": "GovToken",
      "contractAddress": "0x238213078dbd09f2d15f4c14c02300fa1b2a81bb",
      "function": "moneyPrinterGoesBrr(address)",
      "arguments": [
        "15193e4952eca50abeb8b96832499ec6110819ae"
      ],
      "transaction": {
        "type": "0x00",
        "from": "0xfb0a3a93e9acd461747e7d613eb3722d53b96613",
        "to": "0x238213078dbd09f2d15f4c14c02300fa1b2a81bb",
        "gas": "0x6cd5",
        "value": "0x0",
        "data": "0x46e9ef5200000000000000000000000015193e4952eca50abeb8b96832499ec6110819ae",
        "nonce": "0x196"
      }
    },
    {
      "hash": "0x18069f5632698caae9cebef92c4505adcb59a8068626c4c75ce1b5365f698f32",
      "transactionType": "CALL",
      "contractName": "VaultFactory",
      "contractAddress": "0xc7f2cf4845c6db0e1a1e91ed41bcd0fcc1b0e141",
      "function": "deployMoreAssets(uint256,uint256,uint256)",
      "arguments": [
        "5",
        "638b0b9d",
        "639ed21d"
      ],
      "transaction": {
        "type": "0x00",
        "from": "0xfb0a3a93e9acd461747e7d613eb3722d53b96613",
        "to": "0xc7f2cf4845c6db0e1a1e91ed41bcd0fcc1b0e141",
        "gas": "0x6d76",
        "value": "0x0",
        "data": "0x7bb4a17b000000000000000000000000000000000000000000000000000000000000000500000000000000000000000000000000000000000000000000000000638b0b9d00000000000000000000000000000000000000000000000000000000639ed21d",
        "nonce": "0x197"
      }
    },
    {
      "hash": "0xca4c1b65d1a3358ea88b5d02d504720d76e6bd7ca60cc844b633df2d051b7bee",
      "transactionType": "CALL",
      "contractName": "RewardsFactory",
      "contractAddress": "0xd85bdcdae4db1faeb8ef93331525fe68d7c8b3f0",
      "function": "createStakingRewards(uint256,uint256):(address,address)",
      "arguments": [
        "5",
        "639ed21d"
      ],
      "transaction": {
        "type": "0x00",
        "from": "0xfb0a3a93e9acd461747e7d613eb3722d53b96613",
        "to": "0xd85bdcdae4db1faeb8ef93331525fe68d7c8b3f0",
        "gas": "0x6c92",
        "value": "0x0",
        "data": "0x2acbfaa3000000000000000000000000000000000000000000000000000000000000000500000000000000000000000000000000000000000000000000000000639ed21d",
        "nonce": "0x198"
      }
    },
    {
      "hash": "0x808ca47d429d3db7af85c6160f2547fd5dbcd9ab286cd4a7d1e884f4a99bb400",
      "transactionType": "CALL",
      "contractName": "GovToken",
      "contractAddress": "0x238213078dbd09f2d15f4c14c02300fa1b2a81bb",
      "function": "moneyPrinterGoesBrr(address)",
      "arguments": [
        "33b21f06c39d431b515f497d8796426f4a3e315c"
      ],
      "transaction": {
        "type": "0x00",
        "from": "0xfb0a3a93e9acd461747e7d613eb3722d53b96613",
        "to": "0x238213078dbd09f2d15f4c14c02300fa1b2a81bb",
        "gas": "0x6cd5",
        "value": "0x0",
        "data": "0x46e9ef5200000000000000000000000033b21f06c39d431b515f497d8796426f4a3e315c",
        "nonce": "0x199"
      }
    },
    {
      "hash": "0xfeda2d52ddb9d89b71b43453ed354f26908bafd67be50e3b2d37ee22598f81cc",
      "transactionType": "CALL",
      "contractName": "GovToken",
      "contractAddress": "0x238213078dbd09f2d15f4c14c02300fa1b2a81bb",
      "function": "moneyPrinterGoesBrr(address)",
      "arguments": [
        "688b58b09f11c38f58884d82d25dcd28bf5cd99a"
      ],
      "transaction": {
        "type": "0x00",
        "from": "0xfb0a3a93e9acd461747e7d613eb3722d53b96613",
        "to": "0x238213078dbd09f2d15f4c14c02300fa1b2a81bb",
        "gas": "0x6cd5",
        "value": "0x0",
        "data": "0x46e9ef52000000000000000000000000688b58b09f11c38f58884d82d25dcd28bf5cd99a",
        "nonce": "0x19a"
      }
    },
    {
      "hash": "0x04f47fb51bef97a038a467827fc3c116c2cd89045f94428b76a59cb9a31e5a27",
      "transactionType": "CALL",
      "contractName": "VaultFactory",
      "contractAddress": "0xc7f2cf4845c6db0e1a1e91ed41bcd0fcc1b0e141",
      "function": "deployMoreAssets(uint256,uint256,uint256)",
      "arguments": [
        "6",
        "638b0b9d",
        "639ed21d"
      ],
      "transaction": {
        "type": "0x00",
        "from": "0xfb0a3a93e9acd461747e7d613eb3722d53b96613",
        "to": "0xc7f2cf4845c6db0e1a1e91ed41bcd0fcc1b0e141",
        "gas": "0x6d76",
        "value": "0x0",
        "data": "0x7bb4a17b000000000000000000000000000000000000000000000000000000000000000600000000000000000000000000000000000000000000000000000000638b0b9d00000000000000000000000000000000000000000000000000000000639ed21d",
        "nonce": "0x19b"
      }
    },
    {
      "hash": "0x12406896558806312599429a3439f252c8aefaf0ae27300c67f24729649fa4f3",
      "transactionType": "CALL",
      "contractName": "RewardsFactory",
      "contractAddress": "0xd85bdcdae4db1faeb8ef93331525fe68d7c8b3f0",
      "function": "createStakingRewards(uint256,uint256):(address,address)",
      "arguments": [
        "6",
        "639ed21d"
      ],
      "transaction": {
        "type": "0x00",
        "from": "0xfb0a3a93e9acd461747e7d613eb3722d53b96613",
        "to": "0xd85bdcdae4db1faeb8ef93331525fe68d7c8b3f0",
        "gas": "0x6c92",
        "value": "0x0",
        "data": "0x2acbfaa3000000000000000000000000000000000000000000000000000000000000000600000000000000000000000000000000000000000000000000000000639ed21d",
        "nonce": "0x19c"
      }
    },
    {
      "hash": "0xd48a4393b6e7a0fa897beb66967772a99f171422c0f0b0f49dfaa6f80d10acc7",
      "transactionType": "CALL",
      "contractName": "GovToken",
      "contractAddress": "0x238213078dbd09f2d15f4c14c02300fa1b2a81bb",
      "function": "moneyPrinterGoesBrr(address)",
      "arguments": [
        "4ca515f8389742474e49db2460b1cd92309001bc"
      ],
      "transaction": {
        "type": "0x00",
        "from": "0xfb0a3a93e9acd461747e7d613eb3722d53b96613",
        "to": "0x238213078dbd09f2d15f4c14c02300fa1b2a81bb",
        "gas": "0x6cd5",
        "value": "0x0",
        "data": "0x46e9ef520000000000000000000000004ca515f8389742474e49db2460b1cd92309001bc",
        "nonce": "0x19d"
      }
    },
    {
      "hash": "0x1c8f46f516457faaeafdd5b42f6241b390ea71d2efdaefc6d7e69daeef5c75ec",
      "transactionType": "CALL",
      "contractName": "GovToken",
      "contractAddress": "0x238213078dbd09f2d15f4c14c02300fa1b2a81bb",
      "function": "moneyPrinterGoesBrr(address)",
      "arguments": [
        "b7bfa8de4bd492ddbaff36e027e333dbc9af14b6"
      ],
      "transaction": {
        "type": "0x00",
        "from": "0xfb0a3a93e9acd461747e7d613eb3722d53b96613",
        "to": "0x238213078dbd09f2d15f4c14c02300fa1b2a81bb",
        "gas": "0x6cd5",
        "value": "0x0",
        "data": "0x46e9ef52000000000000000000000000b7bfa8de4bd492ddbaff36e027e333dbc9af14b6",
        "nonce": "0x19e"
      }
    }
  ],
  "receipts": [
    {
      "transactionHash": "0xc530066117b8048cef5507c2bfb74765ad51b3ef608a765df26e4a85b96b4f21",
      "transactionIndex": "0x1",
      "blockHash": "0xe36733bc29d8240c49b89ee816faf8942119348d67cdd8596f0853c944997e0f",
      "blockNumber": "0xe4a035",
      "from": "0xfb0a3a93e9acd461747e7d613eb3722d53b96613",
      "to": "0xc7f2cf4845c6db0e1a1e91ed41bcd0fcc1b0e141",
      "cumulativeGasUsed": "0x59e0",
      "gasUsed": "0x59e0",
      "contractAddress": null,
      "logs": [],
      "status": "0x1",
      "logsBloom": "0x00000000000000000000000000000000000000000000000000000000000000000000000000000000000000000000000000000000000000000000000000000000000000000000000000000000000000000000000000000000000000000000000000000000000000000000000000000000000000000000000000000000000000000000000000000000000000000000000000000000000000000000000000000000000000000000000000000000000000000000000000000000000000000000000000000000000000000000000000000000000000000000000000000000000000000000000000000000000000000000000000000000000000000000000000000000",
      "type": "0x0",
      "effectiveGasPrice": "0x5f5e100"
    },
    {
      "transactionHash": "0x4f9a8ec78b907a93776fec9f79cf1d76339996c90a43f7eb47e07c946a6f2385",
      "transactionIndex": "0x1",
      "blockHash": "0xd1623bf3319731ec31185fbe40d1497e8784f435391fc5d469d2374c2c61af64",
      "blockNumber": "0xe4a040",
      "from": "0xfb0a3a93e9acd461747e7d613eb3722d53b96613",
      "to": "0xd85bdcdae4db1faeb8ef93331525fe68d7c8b3f0",
      "cumulativeGasUsed": "0x5384",
      "gasUsed": "0x5384",
      "contractAddress": null,
      "logs": [],
      "status": "0x1",
      "logsBloom": "0x00000000000000000000000000000000000000000000000000000000000000000000000000000000000000000000000000000000000000000000000000000000000000000000000000000000000000000000000000000000000000000000000000000000000000000000000000000000000000000000000000000000000000000000000000000000000000000000000000000000000000000000000000000000000000000000000000000000000000000000000000000000000000000000000000000000000000000000000000000000000000000000000000000000000000000000000000000000000000000000000000000000000000000000000000000000",
      "type": "0x0",
      "effectiveGasPrice": "0x5f5e100"
    },
    {
      "transactionHash": "0xa6d66d83c02a208fd4c4bb67f22e93282ad34a8e1c9783fd0866108941f31a0b",
      "transactionIndex": "0x1",
      "blockHash": "0x967a49bf268f8d5ee41b5525c1de3ab98705c90022acf0dddc089ef79542119c",
      "blockNumber": "0xe4a046",
      "from": "0xfb0a3a93e9acd461747e7d613eb3722d53b96613",
      "to": "0x238213078dbd09f2d15f4c14c02300fa1b2a81bb",
      "cumulativeGasUsed": "0x53b8",
      "gasUsed": "0x53b8",
      "contractAddress": null,
      "logs": [],
      "status": "0x1",
      "logsBloom": "0x00000000000000000000000000000000000000000000000000000000000000000000000000000000000000000000000000000000000000000000000000000000000000000000000000000000000000000000000000000000000000000000000000000000000000000000000000000000000000000000000000000000000000000000000000000000000000000000000000000000000000000000000000000000000000000000000000000000000000000000000000000000000000000000000000000000000000000000000000000000000000000000000000000000000000000000000000000000000000000000000000000000000000000000000000000000",
      "type": "0x0",
      "effectiveGasPrice": "0x5f5e100"
    },
    {
      "transactionHash": "0x031cf5101faed77acfe5da95be83699c1b61a040721aa254d99e9f41e348dd52",
      "transactionIndex": "0x1",
      "blockHash": "0xa3307df104bd7a72b7d216d394f647a59c1fc8ba51f1c74b15d39a894acdc1e8",
      "blockNumber": "0xe4a04a",
      "from": "0xfb0a3a93e9acd461747e7d613eb3722d53b96613",
      "to": "0x238213078dbd09f2d15f4c14c02300fa1b2a81bb",
      "cumulativeGasUsed": "0x53b8",
      "gasUsed": "0x53b8",
      "contractAddress": null,
      "logs": [],
      "status": "0x1",
      "logsBloom": "0x00000000000000000000000000000000000000000000000000000000000000000000000000000000000000000000000000000000000000000000000000000000000000000000000000000000000000000000000000000000000000000000000000000000000000000000000000000000000000000000000000000000000000000000000000000000000000000000000000000000000000000000000000000000000000000000000000000000000000000000000000000000000000000000000000000000000000000000000000000000000000000000000000000000000000000000000000000000000000000000000000000000000000000000000000000000",
      "type": "0x0",
      "effectiveGasPrice": "0x5f5e100"
    },
    {
      "transactionHash": "0x22e95e250ae4cff10c4d2ab96bf27092fe2905a7ae4a933f57a7b4bf1ebeee88",
      "transactionIndex": "0x1",
      "blockHash": "0xdbab6713fbf72dfd14c3f78063bae1b90a6284266dc39ef241eb4e6e8bdbf01a",
      "blockNumber": "0xe4a052",
      "from": "0xfb0a3a93e9acd461747e7d613eb3722d53b96613",
      "to": "0xc7f2cf4845c6db0e1a1e91ed41bcd0fcc1b0e141",
      "cumulativeGasUsed": "0x59e0",
      "gasUsed": "0x59e0",
      "contractAddress": null,
      "logs": [],
      "status": "0x1",
      "logsBloom": "0x00000000000000000000000000000000000000000000000000000000000000000000000000000000000000000000000000000000000000000000000000000000000000000000000000000000000000000000000000000000000000000000000000000000000000000000000000000000000000000000000000000000000000000000000000000000000000000000000000000000000000000000000000000000000000000000000000000000000000000000000000000000000000000000000000000000000000000000000000000000000000000000000000000000000000000000000000000000000000000000000000000000000000000000000000000000",
      "type": "0x0",
      "effectiveGasPrice": "0x5f5e100"
    },
    {
      "transactionHash": "0x353dee3be4ddca3a622a1c659f780750e16895024ff8a0e7a3c3d1a126c0c22c",
      "transactionIndex": "0x1",
      "blockHash": "0x6b2e9bbb9b97a5ac88171dbe339ee3984343bc900cb454efb60516813f751999",
      "blockNumber": "0xe4a059",
      "from": "0xfb0a3a93e9acd461747e7d613eb3722d53b96613",
      "to": "0xd85bdcdae4db1faeb8ef93331525fe68d7c8b3f0",
      "cumulativeGasUsed": "0x5384",
      "gasUsed": "0x5384",
      "contractAddress": null,
      "logs": [],
      "status": "0x1",
      "logsBloom": "0x00000000000000000000000000000000000000000000000000000000000000000000000000000000000000000000000000000000000000000000000000000000000000000000000000000000000000000000000000000000000000000000000000000000000000000000000000000000000000000000000000000000000000000000000000000000000000000000000000000000000000000000000000000000000000000000000000000000000000000000000000000000000000000000000000000000000000000000000000000000000000000000000000000000000000000000000000000000000000000000000000000000000000000000000000000000",
      "type": "0x0",
      "effectiveGasPrice": "0x5f5e100"
    },
    {
      "transactionHash": "0x6af13fc1df032ad084148a4f9998fef120ab5e91349a891144bf3982fb559d7c",
      "transactionIndex": "0x1",
      "blockHash": "0xaf912cb00f8b1e65332e2390a711365e9152d815a776a96505df6ba12e5c09dd",
      "blockNumber": "0xe4a05e",
      "from": "0xfb0a3a93e9acd461747e7d613eb3722d53b96613",
      "to": "0x238213078dbd09f2d15f4c14c02300fa1b2a81bb",
      "cumulativeGasUsed": "0x53b8",
      "gasUsed": "0x53b8",
      "contractAddress": null,
      "logs": [],
      "status": "0x1",
      "logsBloom": "0x00000000000000000000000000000000000000000000000000000000000000000000000000000000000000000000000000000000000000000000000000000000000000000000000000000000000000000000000000000000000000000000000000000000000000000000000000000000000000000000000000000000000000000000000000000000000000000000000000000000000000000000000000000000000000000000000000000000000000000000000000000000000000000000000000000000000000000000000000000000000000000000000000000000000000000000000000000000000000000000000000000000000000000000000000000000",
      "type": "0x0",
      "effectiveGasPrice": "0x5f5e100"
    },
    {
      "transactionHash": "0x9a9d8464cc2b897edbefff4c1866ffe760ba1170d5b50f5e44767a0af3bf9562",
      "transactionIndex": "0x1",
      "blockHash": "0x61a2bbfce73fd187c1f4fa39a1a2e2062a1fab9acabc5eb3fcaf1c50b75b2782",
      "blockNumber": "0xe4a061",
      "from": "0xfb0a3a93e9acd461747e7d613eb3722d53b96613",
      "to": "0x238213078dbd09f2d15f4c14c02300fa1b2a81bb",
      "cumulativeGasUsed": "0x53b8",
      "gasUsed": "0x53b8",
      "contractAddress": null,
      "logs": [],
      "status": "0x1",
      "logsBloom": "0x00000000000000000000000000000000000000000000000000000000000000000000000000000000000000000000000000000000000000000000000000000000000000000000000000000000000000000000000000000000000000000000000000000000000000000000000000000000000000000000000000000000000000000000000000000000000000000000000000000000000000000000000000000000000000000000000000000000000000000000000000000000000000000000000000000000000000000000000000000000000000000000000000000000000000000000000000000000000000000000000000000000000000000000000000000000",
      "type": "0x0",
      "effectiveGasPrice": "0x5f5e100"
    },
    {
      "transactionHash": "0xdb4a2f07c8db74c7f39ebd6ab02dd9bd9b005299a46373621736dc0be3ac35cb",
      "transactionIndex": "0x1",
      "blockHash": "0x1eedef331fa21dac093ce76845f764424ff1395a3818bf54694a4b2a9ffa1c90",
      "blockNumber": "0xe4a06c",
      "from": "0xfb0a3a93e9acd461747e7d613eb3722d53b96613",
      "to": "0xc7f2cf4845c6db0e1a1e91ed41bcd0fcc1b0e141",
      "cumulativeGasUsed": "0x59e0",
      "gasUsed": "0x59e0",
      "contractAddress": null,
      "logs": [],
      "status": "0x1",
      "logsBloom": "0x00000000000000000000000000000000000000000000000000000000000000000000000000000000000000000000000000000000000000000000000000000000000000000000000000000000000000000000000000000000000000000000000000000000000000000000000000000000000000000000000000000000000000000000000000000000000000000000000000000000000000000000000000000000000000000000000000000000000000000000000000000000000000000000000000000000000000000000000000000000000000000000000000000000000000000000000000000000000000000000000000000000000000000000000000000000",
      "type": "0x0",
      "effectiveGasPrice": "0x5f5e100"
    },
    {
      "transactionHash": "0xb893d70257ca309b71b53fdaf509881432554a49138ea6e4688cc214fe934b5d",
      "transactionIndex": "0x1",
      "blockHash": "0x272d17e316e9d89dd35b801ace4ecbe382a8e918dc5a09133e286caa4a0112c8",
      "blockNumber": "0xe4a073",
      "from": "0xfb0a3a93e9acd461747e7d613eb3722d53b96613",
      "to": "0xd85bdcdae4db1faeb8ef93331525fe68d7c8b3f0",
      "cumulativeGasUsed": "0x5384",
      "gasUsed": "0x5384",
      "contractAddress": null,
      "logs": [],
      "status": "0x1",
      "logsBloom": "0x00000000000000000000000000000000000000000000000000000000000000000000000000000000000000000000000000000000000000000000000000000000000000000000000000000000000000000000000000000000000000000000000000000000000000000000000000000000000000000000000000000000000000000000000000000000000000000000000000000000000000000000000000000000000000000000000000000000000000000000000000000000000000000000000000000000000000000000000000000000000000000000000000000000000000000000000000000000000000000000000000000000000000000000000000000000",
      "type": "0x0",
      "effectiveGasPrice": "0x5f5e100"
    },
    {
      "transactionHash": "0xc2ec963af8bbd6222367e9de0ef8c685844c085dbc979c3deff0a72a242174bf",
      "transactionIndex": "0x1",
      "blockHash": "0xe294d752937c7b7091a091fefbdf6b1f3a46540e28d3c064a236826d5aa3494b",
      "blockNumber": "0xe4a07b",
      "from": "0xfb0a3a93e9acd461747e7d613eb3722d53b96613",
      "to": "0x238213078dbd09f2d15f4c14c02300fa1b2a81bb",
      "cumulativeGasUsed": "0x53b8",
      "gasUsed": "0x53b8",
      "contractAddress": null,
      "logs": [],
      "status": "0x1",
      "logsBloom": "0x00000000000000000000000000000000000000000000000000000000000000000000000000000000000000000000000000000000000000000000000000000000000000000000000000000000000000000000000000000000000000000000000000000000000000000000000000000000000000000000000000000000000000000000000000000000000000000000000000000000000000000000000000000000000000000000000000000000000000000000000000000000000000000000000000000000000000000000000000000000000000000000000000000000000000000000000000000000000000000000000000000000000000000000000000000000",
      "type": "0x0",
      "effectiveGasPrice": "0x5f5e100"
    },
    {
      "transactionHash": "0x00a2da3cb5d15de35b87d9b148d6f1614aa3eb33aac9df6f4b2e5751a4856ca5",
      "transactionIndex": "0x1",
      "blockHash": "0xddc94f5d0f29e7ed52d4661356c7d0b3d466b512cb047843bae01da39c26f688",
      "blockNumber": "0xe4a07f",
      "from": "0xfb0a3a93e9acd461747e7d613eb3722d53b96613",
      "to": "0x238213078dbd09f2d15f4c14c02300fa1b2a81bb",
      "cumulativeGasUsed": "0x53b8",
      "gasUsed": "0x53b8",
      "contractAddress": null,
      "logs": [],
      "status": "0x1",
      "logsBloom": "0x00000000000000000000000000000000000000000000000000000000000000000000000000000000000000000000000000000000000000000000000000000000000000000000000000000000000000000000000000000000000000000000000000000000000000000000000000000000000000000000000000000000000000000000000000000000000000000000000000000000000000000000000000000000000000000000000000000000000000000000000000000000000000000000000000000000000000000000000000000000000000000000000000000000000000000000000000000000000000000000000000000000000000000000000000000000",
      "type": "0x0",
      "effectiveGasPrice": "0x5f5e100"
    },
    {
      "transactionHash": "0xa5180229cc61b9c33554eff0e2af8a05538265bbb7457e6616542466c0844058",
      "transactionIndex": "0x1",
      "blockHash": "0xd8c273f27dc9052f833c83952435b6886b39cd1ac80f2432751351ddff1c8c8f",
      "blockNumber": "0xe4a085",
      "from": "0xfb0a3a93e9acd461747e7d613eb3722d53b96613",
      "to": "0xc7f2cf4845c6db0e1a1e91ed41bcd0fcc1b0e141",
      "cumulativeGasUsed": "0x59d4",
      "gasUsed": "0x59d4",
      "contractAddress": null,
      "logs": [],
      "status": "0x1",
      "logsBloom": "0x00000000000000000000000000000000000000000000000000000000000000000000000000000000000000000000000000000000000000000000000000000000000000000000000000000000000000000000000000000000000000000000000000000000000000000000000000000000000000000000000000000000000000000000000000000000000000000000000000000000000000000000000000000000000000000000000000000000000000000000000000000000000000000000000000000000000000000000000000000000000000000000000000000000000000000000000000000000000000000000000000000000000000000000000000000000",
      "type": "0x0",
      "effectiveGasPrice": "0x5f5e100"
    },
    {
      "transactionHash": "0x5128c71e4d0c38ed5b8f5486fd9ce6e01dd2abc16064b1b8cffcd6a076011249",
      "transactionIndex": "0x1",
      "blockHash": "0xeb09347a773fd0ddb5081ab811735128677eec77da666b7aebee5111dfeb7c06",
      "blockNumber": "0xe4a08c",
      "from": "0xfb0a3a93e9acd461747e7d613eb3722d53b96613",
      "to": "0xd85bdcdae4db1faeb8ef93331525fe68d7c8b3f0",
      "cumulativeGasUsed": "0x5384",
      "gasUsed": "0x5384",
      "contractAddress": null,
      "logs": [],
      "status": "0x1",
      "logsBloom": "0x00000000000000000000000000000000000000000000000000000000000000000000000000000000000000000000000000000000000000000000000000000000000000000000000000000000000000000000000000000000000000000000000000000000000000000000000000000000000000000000000000000000000000000000000000000000000000000000000000000000000000000000000000000000000000000000000000000000000000000000000000000000000000000000000000000000000000000000000000000000000000000000000000000000000000000000000000000000000000000000000000000000000000000000000000000000",
      "type": "0x0",
      "effectiveGasPrice": "0x5f5e100"
    },
    {
      "transactionHash": "0x1f3b047a9d90a9e8ec6623d9def80b7fe96de56a3a8bb6ab5007b84342105ca3",
      "transactionIndex": "0x1",
      "blockHash": "0x5022c53009c0c8b2443ca8a2ee69f6dd5b9a67505c9a973f34c9591fdb1c94b0",
      "blockNumber": "0xe4a093",
      "from": "0xfb0a3a93e9acd461747e7d613eb3722d53b96613",
      "to": "0x238213078dbd09f2d15f4c14c02300fa1b2a81bb",
      "cumulativeGasUsed": "0x53b8",
      "gasUsed": "0x53b8",
      "contractAddress": null,
      "logs": [],
      "status": "0x1",
      "logsBloom": "0x00000000000000000000000000000000000000000000000000000000000000000000000000000000000000000000000000000000000000000000000000000000000000000000000000000000000000000000000000000000000000000000000000000000000000000000000000000000000000000000000000000000000000000000000000000000000000000000000000000000000000000000000000000000000000000000000000000000000000000000000000000000000000000000000000000000000000000000000000000000000000000000000000000000000000000000000000000000000000000000000000000000000000000000000000000000",
      "type": "0x0",
      "effectiveGasPrice": "0x5f5e100"
    },
    {
      "transactionHash": "0x4d3a3cd2cbbee25d6de230b01b33917bc8063008d6515e7e54e30c384d2ec918",
      "transactionIndex": "0x1",
      "blockHash": "0x7953b96b63ab25803fdffc8cbf8d3273d9115949d47af2a51a29795c2ecfcfb5",
      "blockNumber": "0xe4a099",
      "from": "0xfb0a3a93e9acd461747e7d613eb3722d53b96613",
      "to": "0x238213078dbd09f2d15f4c14c02300fa1b2a81bb",
      "cumulativeGasUsed": "0x53b8",
      "gasUsed": "0x53b8",
      "contractAddress": null,
      "logs": [],
      "status": "0x1",
      "logsBloom": "0x00000000000000000000000000000000000000000000000000000000000000000000000000000000000000000000000000000000000000000000000000000000000000000000000000000000000000000000000000000000000000000000000000000000000000000000000000000000000000000000000000000000000000000000000000000000000000000000000000000000000000000000000000000000000000000000000000000000000000000000000000000000000000000000000000000000000000000000000000000000000000000000000000000000000000000000000000000000000000000000000000000000000000000000000000000000",
      "type": "0x0",
      "effectiveGasPrice": "0x5f5e100"
    },
    {
      "transactionHash": "0x34e7586cbddabce49af1417e6d660365ac33a0fe0b316151da15d3a967c84eb6",
      "transactionIndex": "0x1",
      "blockHash": "0x7d3934f13ad45934b42d441b33079773fff5b353c32fb5bf5c99ff008b401566",
      "blockNumber": "0xe4a09e",
      "from": "0xfb0a3a93e9acd461747e7d613eb3722d53b96613",
      "to": "0xc7f2cf4845c6db0e1a1e91ed41bcd0fcc1b0e141",
      "cumulativeGasUsed": "0x59d4",
      "gasUsed": "0x59d4",
      "contractAddress": null,
      "logs": [],
      "status": "0x1",
      "logsBloom": "0x00000000000000000000000000000000000000000000000000000000000000000000000000000000000000000000000000000000000000000000000000000000000000000000000000000000000000000000000000000000000000000000000000000000000000000000000000000000000000000000000000000000000000000000000000000000000000000000000000000000000000000000000000000000000000000000000000000000000000000000000000000000000000000000000000000000000000000000000000000000000000000000000000000000000000000000000000000000000000000000000000000000000000000000000000000000",
      "type": "0x0",
      "effectiveGasPrice": "0x5f5e100"
    },
    {
      "transactionHash": "0xf1b61864e4af0380960c9eaca8378fe73a0116e473b959e1a89b00bc94066b4d",
      "transactionIndex": "0x1",
      "blockHash": "0xccce96fadd8133dc50e311b52613dbe72f5f6564422915b48812050c563cee37",
      "blockNumber": "0xe4a0a5",
      "from": "0xfb0a3a93e9acd461747e7d613eb3722d53b96613",
      "to": "0xd85bdcdae4db1faeb8ef93331525fe68d7c8b3f0",
      "cumulativeGasUsed": "0x5384",
      "gasUsed": "0x5384",
      "contractAddress": null,
      "logs": [],
      "status": "0x1",
      "logsBloom": "0x00000000000000000000000000000000000000000000000000000000000000000000000000000000000000000000000000000000000000000000000000000000000000000000000000000000000000000000000000000000000000000000000000000000000000000000000000000000000000000000000000000000000000000000000000000000000000000000000000000000000000000000000000000000000000000000000000000000000000000000000000000000000000000000000000000000000000000000000000000000000000000000000000000000000000000000000000000000000000000000000000000000000000000000000000000000",
      "type": "0x0",
      "effectiveGasPrice": "0x5f5e100"
    },
    {
      "transactionHash": "0x41fa88a0ea61298068170dfe031ca1993af82fc38ceeae87e3997dbdca1c8ef3",
      "transactionIndex": "0x1",
      "blockHash": "0xe8d5983661ef3fa524eab04e544e03b82565e95b31cbc618d6218734e3b976b3",
      "blockNumber": "0xe4a0aa",
      "from": "0xfb0a3a93e9acd461747e7d613eb3722d53b96613",
      "to": "0x238213078dbd09f2d15f4c14c02300fa1b2a81bb",
      "cumulativeGasUsed": "0x53b8",
      "gasUsed": "0x53b8",
      "contractAddress": null,
      "logs": [],
      "status": "0x1",
      "logsBloom": "0x00000000000000000000000000000000000000000000000000000000000000000000000000000000000000000000000000000000000000000000000000000000000000000000000000000000000000000000000000000000000000000000000000000000000000000000000000000000000000000000000000000000000000000000000000000000000000000000000000000000000000000000000000000000000000000000000000000000000000000000000000000000000000000000000000000000000000000000000000000000000000000000000000000000000000000000000000000000000000000000000000000000000000000000000000000000",
      "type": "0x0",
      "effectiveGasPrice": "0x5f5e100"
    },
    {
      "transactionHash": "0x08f137bb6b2978a3f0a730716d0e4a2796a1a624beada14b223fe069e1a52460",
      "transactionIndex": "0x1",
      "blockHash": "0x628296ba38f15d36dab1a2d4d52662b1a25877a4ea2b2e4a4e2ecda2bf5dfd36",
      "blockNumber": "0xe4a0b0",
      "from": "0xfb0a3a93e9acd461747e7d613eb3722d53b96613",
      "to": "0x238213078dbd09f2d15f4c14c02300fa1b2a81bb",
      "cumulativeGasUsed": "0x53b8",
      "gasUsed": "0x53b8",
      "contractAddress": null,
      "logs": [],
      "status": "0x1",
      "logsBloom": "0x00000000000000000000000000000000000000000000000000000000000000000000000000000000000000000000000000000000000000000000000000000000000000000000000000000000000000000000000000000000000000000000000000000000000000000000000000000000000000000000000000000000000000000000000000000000000000000000000000000000000000000000000000000000000000000000000000000000000000000000000000000000000000000000000000000000000000000000000000000000000000000000000000000000000000000000000000000000000000000000000000000000000000000000000000000000",
      "type": "0x0",
      "effectiveGasPrice": "0x5f5e100"
    },
    {
      "transactionHash": "0x1f3d116a9902ed99bca6f115e52d9a76c8e95788ce38324b5aa549d2bd50c5bf",
      "transactionIndex": "0x1",
      "blockHash": "0x5dffe3d41a0c7bb2cfebf5e331adaca8e3937f95681286f8d225761e01c11224",
      "blockNumber": "0xe4a0b5",
      "from": "0xfb0a3a93e9acd461747e7d613eb3722d53b96613",
      "to": "0xc7f2cf4845c6db0e1a1e91ed41bcd0fcc1b0e141",
      "cumulativeGasUsed": "0x59d4",
      "gasUsed": "0x59d4",
      "contractAddress": null,
      "logs": [],
      "status": "0x1",
      "logsBloom": "0x00000000000000000000000000000000000000000000000000000000000000000000000000000000000000000000000000000000000000000000000000000000000000000000000000000000000000000000000000000000000000000000000000000000000000000000000000000000000000000000000000000000000000000000000000000000000000000000000000000000000000000000000000000000000000000000000000000000000000000000000000000000000000000000000000000000000000000000000000000000000000000000000000000000000000000000000000000000000000000000000000000000000000000000000000000000",
      "type": "0x0",
      "effectiveGasPrice": "0x5f5e100"
    },
    {
      "transactionHash": "0xd4f5a6699de9a5fc61d645411a696d4be8004ed88de9e8333ead73244d297023",
      "transactionIndex": "0x1",
      "blockHash": "0x799accae2895e85754395de85ac336e2e61ac802c1850e43a6a1e2f5f8d8e6ee",
      "blockNumber": "0xe4a0bb",
      "from": "0xfb0a3a93e9acd461747e7d613eb3722d53b96613",
      "to": "0xd85bdcdae4db1faeb8ef93331525fe68d7c8b3f0",
      "cumulativeGasUsed": "0x5384",
      "gasUsed": "0x5384",
      "contractAddress": null,
      "logs": [],
      "status": "0x1",
      "logsBloom": "0x00000000000000000000000000000000000000000000000000000000000000000000000000000000000000000000000000000000000000000000000000000000000000000000000000000000000000000000000000000000000000000000000000000000000000000000000000000000000000000000000000000000000000000000000000000000000000000000000000000000000000000000000000000000000000000000000000000000000000000000000000000000000000000000000000000000000000000000000000000000000000000000000000000000000000000000000000000000000000000000000000000000000000000000000000000000",
      "type": "0x0",
      "effectiveGasPrice": "0x5f5e100"
    },
    {
      "transactionHash": "0x381218ff1fffc645319d3c24856611d13234dfdb41cc97f88a28e3d41986eb51",
      "transactionIndex": "0x1",
      "blockHash": "0x07870086779ac4d73e681b5022f6d220b647abc73a4a60591700d947de228707",
      "blockNumber": "0xe4a0c1",
      "from": "0xfb0a3a93e9acd461747e7d613eb3722d53b96613",
      "to": "0x238213078dbd09f2d15f4c14c02300fa1b2a81bb",
      "cumulativeGasUsed": "0x53b8",
      "gasUsed": "0x53b8",
      "contractAddress": null,
      "logs": [],
      "status": "0x1",
      "logsBloom": "0x00000000000000000000000000000000000000000000000000000000000000000000000000000000000000000000000000000000000000000000000000000000000000000000000000000000000000000000000000000000000000000000000000000000000000000000000000000000000000000000000000000000000000000000000000000000000000000000000000000000000000000000000000000000000000000000000000000000000000000000000000000000000000000000000000000000000000000000000000000000000000000000000000000000000000000000000000000000000000000000000000000000000000000000000000000000",
      "type": "0x0",
      "effectiveGasPrice": "0x5f5e100"
    },
    {
      "transactionHash": "0x26a7543a0f84d85e095dc8ec3edc3791c8b5847fa5417b80a38ebb0ad9a0dd1c",
      "transactionIndex": "0x1",
      "blockHash": "0xc89ed978e0a1b493f733e5d79bdcc884941cdcdc434d0dcacc6a209125956fef",
      "blockNumber": "0xe4a0c7",
      "from": "0xfb0a3a93e9acd461747e7d613eb3722d53b96613",
      "to": "0x238213078dbd09f2d15f4c14c02300fa1b2a81bb",
      "cumulativeGasUsed": "0x53ac",
      "gasUsed": "0x53ac",
      "contractAddress": null,
      "logs": [],
      "status": "0x1",
      "logsBloom": "0x00000000000000000000000000000000000000000000000000000000000000000000000000000000000000000000000000000000000000000000000000000000000000000000000000000000000000000000000000000000000000000000000000000000000000000000000000000000000000000000000000000000000000000000000000000000000000000000000000000000000000000000000000000000000000000000000000000000000000000000000000000000000000000000000000000000000000000000000000000000000000000000000000000000000000000000000000000000000000000000000000000000000000000000000000000000",
      "type": "0x0",
      "effectiveGasPrice": "0x5f5e100"
    },
    {
      "transactionHash": "0x63d2adc54a202d2d8a20daafd052f9faf22c596e334659b6ca291d1004dbed1e",
      "transactionIndex": "0x1",
      "blockHash": "0x580b9ac7c9845bd4e6ff183282fdfcd2e53baca138281f0e949c95507b042170",
      "blockNumber": "0xe4a0cf",
      "from": "0xfb0a3a93e9acd461747e7d613eb3722d53b96613",
      "to": "0xc7f2cf4845c6db0e1a1e91ed41bcd0fcc1b0e141",
      "cumulativeGasUsed": "0x5434",
      "gasUsed": "0x5434",
      "contractAddress": null,
      "logs": [],
      "status": "0x1",
      "logsBloom": "0x00000000000000000000000000000000000000000000000000000000000000000000000000000000000000000000000000000000000000000000000000000000000000000000000000000000000000000000000000000000000000000000000000000000000000000000000000000000000000000000000000000000000000000000000000000000000000000000000000000000000000000000000000000000000000000000000000000000000000000000000000000000000000000000000000000000000000000000000000000000000000000000000000000000000000000000000000000000000000000000000000000000000000000000000000000000",
      "type": "0x0",
      "effectiveGasPrice": "0x5f5e100"
    },
    {
      "transactionHash": "0x9b8012d1ac970e47143d4a892f3e835a2afc91898bfd6603fb729c6bf587873e",
      "transactionIndex": "0x1",
      "blockHash": "0x91ae347f77d924263e319a49b74a45fdae1d853b32556ff77c0a8bb6c8124f22",
      "blockNumber": "0xe4a0d4",
      "from": "0xfb0a3a93e9acd461747e7d613eb3722d53b96613",
      "to": "0xd85bdcdae4db1faeb8ef93331525fe68d7c8b3f0",
      "cumulativeGasUsed": "0x5384",
      "gasUsed": "0x5384",
      "contractAddress": null,
      "logs": [],
      "status": "0x1",
      "logsBloom": "0x00000000000000000000000000000000000000000000000000000000000000000000000000000000000000000000000000000000000000000000000000000000000000000000000000000000000000000000000000000000000000000000000000000000000000000000000000000000000000000000000000000000000000000000000000000000000000000000000000000000000000000000000000000000000000000000000000000000000000000000000000000000000000000000000000000000000000000000000000000000000000000000000000000000000000000000000000000000000000000000000000000000000000000000000000000000",
      "type": "0x0",
      "effectiveGasPrice": "0x5f5e100"
    },
    {
      "transactionHash": "0x1c74cee57ae476886a54ab8d580726d68e5169b1653b7e771c9fb74166f391b5",
      "transactionIndex": "0x1",
      "blockHash": "0xb0e3af60c914d9fac2859d61e59b8f71a8470b3814151f0ceff7928bb87f068a",
      "blockNumber": "0xe4a0d7",
      "from": "0xfb0a3a93e9acd461747e7d613eb3722d53b96613",
      "to": "0x238213078dbd09f2d15f4c14c02300fa1b2a81bb",
      "cumulativeGasUsed": "0x53b8",
      "gasUsed": "0x53b8",
      "contractAddress": null,
      "logs": [],
      "status": "0x1",
      "logsBloom": "0x00000000000000000000000000000000000000000000000000000000000000000000000000000000000000000000000000000000000000000000000000000000000000000000000000000000000000000000000000000000000000000000000000000000000000000000000000000000000000000000000000000000000000000000000000000000000000000000000000000000000000000000000000000000000000000000000000000000000000000000000000000000000000000000000000000000000000000000000000000000000000000000000000000000000000000000000000000000000000000000000000000000000000000000000000000000",
      "type": "0x0",
      "effectiveGasPrice": "0x5f5e100"
    },
    {
      "transactionHash": "0x0c3680fe5e5939df7651975330763c32b545ec818397875154a2432d9159cead",
      "transactionIndex": "0x1",
      "blockHash": "0x342ec9f84da3ef4f78cbbeed1cecca4ac6dee460eb4624ea63cfa7fedfa8b6d9",
      "blockNumber": "0xe4a0de",
      "from": "0xfb0a3a93e9acd461747e7d613eb3722d53b96613",
      "to": "0x238213078dbd09f2d15f4c14c02300fa1b2a81bb",
      "cumulativeGasUsed": "0x53b8",
      "gasUsed": "0x53b8",
      "contractAddress": null,
      "logs": [],
      "status": "0x1",
      "logsBloom": "0x00000000000000000000000000000000000000000000000000000000000000000000000000000000000000000000000000000000000000000000000000000000000000000000000000000000000000000000000000000000000000000000000000000000000000000000000000000000000000000000000000000000000000000000000000000000000000000000000000000000000000000000000000000000000000000000000000000000000000000000000000000000000000000000000000000000000000000000000000000000000000000000000000000000000000000000000000000000000000000000000000000000000000000000000000000000",
      "type": "0x0",
      "effectiveGasPrice": "0x5f5e100"
    },
    {
      "transactionHash": "0x5536afc13f2de35b3630ed831fa37f515cee309fa61ec475891f875776ebab9f",
      "transactionIndex": "0x1",
      "blockHash": "0xc9837958f2ce06c1b517c74c240bfbf7ac2ff43390f2b63fbbf780f0d1e5a4db",
      "blockNumber": "0xe4a0e3",
      "from": "0xfb0a3a93e9acd461747e7d613eb3722d53b96613",
      "to": "0xc7f2cf4845c6db0e1a1e91ed41bcd0fcc1b0e141",
      "cumulativeGasUsed": "0x5434",
      "gasUsed": "0x5434",
      "contractAddress": null,
      "logs": [],
      "status": "0x1",
      "logsBloom": "0x00000000000000000000000000000000000000000000000000000000000000000000000000000000000000000000000000000000000000000000000000000000000000000000000000000000000000000000000000000000000000000000000000000000000000000000000000000000000000000000000000000000000000000000000000000000000000000000000000000000000000000000000000000000000000000000000000000000000000000000000000000000000000000000000000000000000000000000000000000000000000000000000000000000000000000000000000000000000000000000000000000000000000000000000000000000",
      "type": "0x0",
      "effectiveGasPrice": "0x5f5e100"
    },
    {
      "transactionHash": "0x6832b7172f52f95fb8a34c013295c14805d21777feb25c41ee62337ea7a3b1c5",
      "transactionIndex": "0x1",
      "blockHash": "0xeb13161fcd139790d2808bbb9814183f06b8e1f6de5b3203c80b26f9656f4103",
      "blockNumber": "0xe4a0ea",
      "from": "0xfb0a3a93e9acd461747e7d613eb3722d53b96613",
      "to": "0xd85bdcdae4db1faeb8ef93331525fe68d7c8b3f0",
      "cumulativeGasUsed": "0x5384",
      "gasUsed": "0x5384",
      "contractAddress": null,
      "logs": [],
      "status": "0x1",
      "logsBloom": "0x00000000000000000000000000000000000000000000000000000000000000000000000000000000000000000000000000000000000000000000000000000000000000000000000000000000000000000000000000000000000000000000000000000000000000000000000000000000000000000000000000000000000000000000000000000000000000000000000000000000000000000000000000000000000000000000000000000000000000000000000000000000000000000000000000000000000000000000000000000000000000000000000000000000000000000000000000000000000000000000000000000000000000000000000000000000",
      "type": "0x0",
      "effectiveGasPrice": "0x5f5e100"
    },
    {
      "transactionHash": "0xea821ee3774a2214b01fe55411752d62b3e50885fc0c0f2adaee9fa945873c7e",
      "transactionIndex": "0x1",
      "blockHash": "0x00e71f9878be802da06f4fd760da4e999f20806ea17ae885d2520118badcc5f4",
      "blockNumber": "0xe4a0ef",
      "from": "0xfb0a3a93e9acd461747e7d613eb3722d53b96613",
      "to": "0x238213078dbd09f2d15f4c14c02300fa1b2a81bb",
      "cumulativeGasUsed": "0x53b8",
      "gasUsed": "0x53b8",
      "contractAddress": null,
      "logs": [],
      "status": "0x1",
      "logsBloom": "0x00000000000000000000000000000000000000000000000000000000000000000000000000000000000000000000000000000000000000000000000000000000000000000000000000000000000000000000000000000000000000000000000000000000000000000000000000000000000000000000000000000000000000000000000000000000000000000000000000000000000000000000000000000000000000000000000000000000000000000000000000000000000000000000000000000000000000000000000000000000000000000000000000000000000000000000000000000000000000000000000000000000000000000000000000000000",
      "type": "0x0",
      "effectiveGasPrice": "0x5f5e100"
    },
    {
      "transactionHash": "0x80dd0dc4504faf62a7800b60ca1f49903959a47a952511cdefac8465742e4c2e",
      "transactionIndex": "0x1",
      "blockHash": "0x838cd9c3141488a059648afbac0083a1b5a51a4105fb22ec29fbcb6052697650",
      "blockNumber": "0xe4a0f7",
      "from": "0xfb0a3a93e9acd461747e7d613eb3722d53b96613",
      "to": "0x238213078dbd09f2d15f4c14c02300fa1b2a81bb",
      "cumulativeGasUsed": "0x53ac",
      "gasUsed": "0x53ac",
      "contractAddress": null,
      "logs": [],
      "status": "0x1",
      "logsBloom": "0x00000000000000000000000000000000000000000000000000000000000000000000000000000000000000000000000000000000000000000000000000000000000000000000000000000000000000000000000000000000000000000000000000000000000000000000000000000000000000000000000000000000000000000000000000000000000000000000000000000000000000000000000000000000000000000000000000000000000000000000000000000000000000000000000000000000000000000000000000000000000000000000000000000000000000000000000000000000000000000000000000000000000000000000000000000000",
      "type": "0x0",
      "effectiveGasPrice": "0x5f5e100"
    },
    {
      "transactionHash": "0xb733b4bf80f1dfcc606b4424106405df48f575cb18e284769f7d39da7b7ecc94",
      "transactionIndex": "0x1",
      "blockHash": "0xc0e93c90e72c1f86f30b0d1f627a9ddd2aeba5581b0682681862850b8c997499",
      "blockNumber": "0xe4a0fb",
      "from": "0xfb0a3a93e9acd461747e7d613eb3722d53b96613",
      "to": "0xc7f2cf4845c6db0e1a1e91ed41bcd0fcc1b0e141",
      "cumulativeGasUsed": "0x5434",
      "gasUsed": "0x5434",
      "contractAddress": null,
      "logs": [],
      "status": "0x1",
      "logsBloom": "0x00000000000000000000000000000000000000000000000000000000000000000000000000000000000000000000000000000000000000000000000000000000000000000000000000000000000000000000000000000000000000000000000000000000000000000000000000000000000000000000000000000000000000000000000000000000000000000000000000000000000000000000000000000000000000000000000000000000000000000000000000000000000000000000000000000000000000000000000000000000000000000000000000000000000000000000000000000000000000000000000000000000000000000000000000000000",
      "type": "0x0",
      "effectiveGasPrice": "0x5f5e100"
    },
    {
      "transactionHash": "0x507015d800d9ed21258a99f514a340f0a52da7880fbce3b9a89e5bcbe7469eb2",
      "transactionIndex": "0x1",
      "blockHash": "0x015379a48a5bb9f425dbbf128cd9ec9c5f25ebd4a98815633f5bd9d943247296",
      "blockNumber": "0xe4a100",
      "from": "0xfb0a3a93e9acd461747e7d613eb3722d53b96613",
      "to": "0xd85bdcdae4db1faeb8ef93331525fe68d7c8b3f0",
      "cumulativeGasUsed": "0x5384",
      "gasUsed": "0x5384",
      "contractAddress": null,
      "logs": [],
      "status": "0x1",
      "logsBloom": "0x00000000000000000000000000000000000000000000000000000000000000000000000000000000000000000000000000000000000000000000000000000000000000000000000000000000000000000000000000000000000000000000000000000000000000000000000000000000000000000000000000000000000000000000000000000000000000000000000000000000000000000000000000000000000000000000000000000000000000000000000000000000000000000000000000000000000000000000000000000000000000000000000000000000000000000000000000000000000000000000000000000000000000000000000000000000",
      "type": "0x0",
      "effectiveGasPrice": "0x5f5e100"
    },
    {
      "transactionHash": "0x5d6704a4ae4d708287d419bac3ec045a0f9d672718cadcc5ed774549787c6999",
      "transactionIndex": "0x1",
      "blockHash": "0xfd0e7ab00c7e3c0764be0afecce26f75514c49bd2934eaad0de610e8d6a07528",
      "blockNumber": "0xe4a106",
      "from": "0xfb0a3a93e9acd461747e7d613eb3722d53b96613",
      "to": "0x238213078dbd09f2d15f4c14c02300fa1b2a81bb",
      "cumulativeGasUsed": "0x53b8",
      "gasUsed": "0x53b8",
      "contractAddress": null,
      "logs": [],
      "status": "0x1",
      "logsBloom": "0x00000000000000000000000000000000000000000000000000000000000000000000000000000000000000000000000000000000000000000000000000000000000000000000000000000000000000000000000000000000000000000000000000000000000000000000000000000000000000000000000000000000000000000000000000000000000000000000000000000000000000000000000000000000000000000000000000000000000000000000000000000000000000000000000000000000000000000000000000000000000000000000000000000000000000000000000000000000000000000000000000000000000000000000000000000000",
      "type": "0x0",
      "effectiveGasPrice": "0x5f5e100"
    },
    {
      "transactionHash": "0x31897624bd7e262ca66bfc51c74a87dec17a28aec08b95e117f6e36f8301c1ab",
      "transactionIndex": "0x1",
      "blockHash": "0x6c7547910e3fe344dfb4af49c089e6354284697152e891208950f14a91eee7bd",
      "blockNumber": "0xe4a10b",
      "from": "0xfb0a3a93e9acd461747e7d613eb3722d53b96613",
      "to": "0x238213078dbd09f2d15f4c14c02300fa1b2a81bb",
      "cumulativeGasUsed": "0x53b8",
      "gasUsed": "0x53b8",
      "contractAddress": null,
      "logs": [],
      "status": "0x1",
      "logsBloom": "0x00000000000000000000000000000000000000000000000000000000000000000000000000000000000000000000000000000000000000000000000000000000000000000000000000000000000000000000000000000000000000000000000000000000000000000000000000000000000000000000000000000000000000000000000000000000000000000000000000000000000000000000000000000000000000000000000000000000000000000000000000000000000000000000000000000000000000000000000000000000000000000000000000000000000000000000000000000000000000000000000000000000000000000000000000000000",
      "type": "0x0",
      "effectiveGasPrice": "0x5f5e100"
    },
    {
      "transactionHash": "0x31d748601ccab526c3373cce2746073af42cbaebcb523ac7fb2435a70802dc26",
      "transactionIndex": "0x1",
      "blockHash": "0x5e773921e30d0b147e95aa3a9619fb22e8b4ab57bc59f2483513d09a1371b5b8",
      "blockNumber": "0xe4a110",
      "from": "0xfb0a3a93e9acd461747e7d613eb3722d53b96613",
      "to": "0xc7f2cf4845c6db0e1a1e91ed41bcd0fcc1b0e141",
      "cumulativeGasUsed": "0x5434",
      "gasUsed": "0x5434",
      "contractAddress": null,
      "logs": [],
      "status": "0x1",
      "logsBloom": "0x00000000000000000000000000000000000000000000000000000000000000000000000000000000000000000000000000000000000000000000000000000000000000000000000000000000000000000000000000000000000000000000000000000000000000000000000000000000000000000000000000000000000000000000000000000000000000000000000000000000000000000000000000000000000000000000000000000000000000000000000000000000000000000000000000000000000000000000000000000000000000000000000000000000000000000000000000000000000000000000000000000000000000000000000000000000",
      "type": "0x0",
      "effectiveGasPrice": "0x5f5e100"
    },
    {
      "transactionHash": "0x835a18f949d510959ccaff844c7173683aa03ed79d8ef169c75407562b28cd36",
      "transactionIndex": "0x1",
      "blockHash": "0x0e553ea782310d2abc796eaa9cd05d3a7ca5d9880cbaee290ef8f7821efd4aec",
      "blockNumber": "0xe4a116",
      "from": "0xfb0a3a93e9acd461747e7d613eb3722d53b96613",
      "to": "0xd85bdcdae4db1faeb8ef93331525fe68d7c8b3f0",
      "cumulativeGasUsed": "0x5384",
      "gasUsed": "0x5384",
      "contractAddress": null,
      "logs": [],
      "status": "0x1",
      "logsBloom": "0x00000000000000000000000000000000000000000000000000000000000000000000000000000000000000000000000000000000000000000000000000000000000000000000000000000000000000000000000000000000000000000000000000000000000000000000000000000000000000000000000000000000000000000000000000000000000000000000000000000000000000000000000000000000000000000000000000000000000000000000000000000000000000000000000000000000000000000000000000000000000000000000000000000000000000000000000000000000000000000000000000000000000000000000000000000000",
      "type": "0x0",
      "effectiveGasPrice": "0x5f5e100"
    },
    {
      "transactionHash": "0x909b06324b70d506c44e13f3b8b40a68e71fced118c0007d991ecc13118c2b15",
      "transactionIndex": "0x1",
      "blockHash": "0x0f2af6a138515e1cf7afcb1fa7c22eaca1ec8040d1665a0dab8e1d6b944910fb",
      "blockNumber": "0xe4a11a",
      "from": "0xfb0a3a93e9acd461747e7d613eb3722d53b96613",
      "to": "0x238213078dbd09f2d15f4c14c02300fa1b2a81bb",
      "cumulativeGasUsed": "0x53b8",
      "gasUsed": "0x53b8",
      "contractAddress": null,
      "logs": [],
      "status": "0x1",
      "logsBloom": "0x00000000000000000000000000000000000000000000000000000000000000000000000000000000000000000000000000000000000000000000000000000000000000000000000000000000000000000000000000000000000000000000000000000000000000000000000000000000000000000000000000000000000000000000000000000000000000000000000000000000000000000000000000000000000000000000000000000000000000000000000000000000000000000000000000000000000000000000000000000000000000000000000000000000000000000000000000000000000000000000000000000000000000000000000000000000",
      "type": "0x0",
      "effectiveGasPrice": "0x5f5e100"
    },
    {
      "transactionHash": "0x5c0693cbed41e9c53d1e2b3c82a3a12960945657b7b86b7c8453fe2995f2e643",
      "transactionIndex": "0x1",
      "blockHash": "0x8436d0021f2ccdda3a5076b81617c67d13f359a2fcd5e8aea2a2150ed8fa9eae",
      "blockNumber": "0xe4a122",
      "from": "0xfb0a3a93e9acd461747e7d613eb3722d53b96613",
      "to": "0x238213078dbd09f2d15f4c14c02300fa1b2a81bb",
      "cumulativeGasUsed": "0x53b8",
      "gasUsed": "0x53b8",
      "contractAddress": null,
      "logs": [],
      "status": "0x1",
      "logsBloom": "0x00000000000000000000000000000000000000000000000000000000000000000000000000000000000000000000000000000000000000000000000000000000000000000000000000000000000000000000000000000000000000000000000000000000000000000000000000000000000000000000000000000000000000000000000000000000000000000000000000000000000000000000000000000000000000000000000000000000000000000000000000000000000000000000000000000000000000000000000000000000000000000000000000000000000000000000000000000000000000000000000000000000000000000000000000000000",
      "type": "0x0",
      "effectiveGasPrice": "0x5f5e100"
    },
    {
      "transactionHash": "0x18069f5632698caae9cebef92c4505adcb59a8068626c4c75ce1b5365f698f32",
      "transactionIndex": "0x1",
      "blockHash": "0x772acf324640010e9c5e35fe246996b7a3373ad82406eb4e11df06e23ca1db04",
      "blockNumber": "0xe4a126",
      "from": "0xfb0a3a93e9acd461747e7d613eb3722d53b96613",
      "to": "0xc7f2cf4845c6db0e1a1e91ed41bcd0fcc1b0e141",
      "cumulativeGasUsed": "0x5434",
      "gasUsed": "0x5434",
      "contractAddress": null,
      "logs": [],
      "status": "0x1",
      "logsBloom": "0x00000000000000000000000000000000000000000000000000000000000000000000000000000000000000000000000000000000000000000000000000000000000000000000000000000000000000000000000000000000000000000000000000000000000000000000000000000000000000000000000000000000000000000000000000000000000000000000000000000000000000000000000000000000000000000000000000000000000000000000000000000000000000000000000000000000000000000000000000000000000000000000000000000000000000000000000000000000000000000000000000000000000000000000000000000000",
      "type": "0x0",
      "effectiveGasPrice": "0x5f5e100"
    },
    {
      "transactionHash": "0xca4c1b65d1a3358ea88b5d02d504720d76e6bd7ca60cc844b633df2d051b7bee",
      "transactionIndex": "0x1",
      "blockHash": "0x40db401309422ef2bb4b9ed9fbc2934497a8ba4594c270e4ef305a23b78672da",
      "blockNumber": "0xe4a12a",
      "from": "0xfb0a3a93e9acd461747e7d613eb3722d53b96613",
      "to": "0xd85bdcdae4db1faeb8ef93331525fe68d7c8b3f0",
      "cumulativeGasUsed": "0x5384",
      "gasUsed": "0x5384",
      "contractAddress": null,
      "logs": [],
      "status": "0x1",
      "logsBloom": "0x00000000000000000000000000000000000000000000000000000000000000000000000000000000000000000000000000000000000000000000000000000000000000000000000000000000000000000000000000000000000000000000000000000000000000000000000000000000000000000000000000000000000000000000000000000000000000000000000000000000000000000000000000000000000000000000000000000000000000000000000000000000000000000000000000000000000000000000000000000000000000000000000000000000000000000000000000000000000000000000000000000000000000000000000000000000",
      "type": "0x0",
      "effectiveGasPrice": "0x5f5e100"
    },
    {
      "transactionHash": "0x808ca47d429d3db7af85c6160f2547fd5dbcd9ab286cd4a7d1e884f4a99bb400",
      "transactionIndex": "0x1",
      "blockHash": "0x76b93d34911f51acc1b0bf3efcf5aa5303c9bd66bde4249f7f61d0c7a14123a8",
      "blockNumber": "0xe4a132",
      "from": "0xfb0a3a93e9acd461747e7d613eb3722d53b96613",
      "to": "0x238213078dbd09f2d15f4c14c02300fa1b2a81bb",
      "cumulativeGasUsed": "0x53b8",
      "gasUsed": "0x53b8",
      "contractAddress": null,
      "logs": [],
      "status": "0x1",
      "logsBloom": "0x00000000000000000000000000000000000000000000000000000000000000000000000000000000000000000000000000000000000000000000000000000000000000000000000000000000000000000000000000000000000000000000000000000000000000000000000000000000000000000000000000000000000000000000000000000000000000000000000000000000000000000000000000000000000000000000000000000000000000000000000000000000000000000000000000000000000000000000000000000000000000000000000000000000000000000000000000000000000000000000000000000000000000000000000000000000",
      "type": "0x0",
      "effectiveGasPrice": "0x5f5e100"
    },
    {
      "transactionHash": "0xfeda2d52ddb9d89b71b43453ed354f26908bafd67be50e3b2d37ee22598f81cc",
      "transactionIndex": "0x1",
      "blockHash": "0x4feed76aa51082969b35ee8d6d02c6927404c065306bd13a117800e10ae8c1ae",
      "blockNumber": "0xe4a135",
      "from": "0xfb0a3a93e9acd461747e7d613eb3722d53b96613",
      "to": "0x238213078dbd09f2d15f4c14c02300fa1b2a81bb",
      "cumulativeGasUsed": "0x53b8",
      "gasUsed": "0x53b8",
      "contractAddress": null,
      "logs": [],
      "status": "0x1",
      "logsBloom": "0x00000000000000000000000000000000000000000000000000000000000000000000000000000000000000000000000000000000000000000000000000000000000000000000000000000000000000000000000000000000000000000000000000000000000000000000000000000000000000000000000000000000000000000000000000000000000000000000000000000000000000000000000000000000000000000000000000000000000000000000000000000000000000000000000000000000000000000000000000000000000000000000000000000000000000000000000000000000000000000000000000000000000000000000000000000000",
      "type": "0x0",
      "effectiveGasPrice": "0x5f5e100"
    },
    {
      "transactionHash": "0x04f47fb51bef97a038a467827fc3c116c2cd89045f94428b76a59cb9a31e5a27",
      "transactionIndex": "0x1",
      "blockHash": "0x900657bade4d28457d333deac53bc9b4e059c1a3636c5d0333088c4f7b7c9850",
      "blockNumber": "0xe4a13d",
      "from": "0xfb0a3a93e9acd461747e7d613eb3722d53b96613",
      "to": "0xc7f2cf4845c6db0e1a1e91ed41bcd0fcc1b0e141",
      "cumulativeGasUsed": "0x5434",
      "gasUsed": "0x5434",
      "contractAddress": null,
      "logs": [],
      "status": "0x1",
      "logsBloom": "0x00000000000000000000000000000000000000000000000000000000000000000000000000000000000000000000000000000000000000000000000000000000000000000000000000000000000000000000000000000000000000000000000000000000000000000000000000000000000000000000000000000000000000000000000000000000000000000000000000000000000000000000000000000000000000000000000000000000000000000000000000000000000000000000000000000000000000000000000000000000000000000000000000000000000000000000000000000000000000000000000000000000000000000000000000000000",
      "type": "0x0",
      "effectiveGasPrice": "0x5f5e100"
    },
    {
      "transactionHash": "0x12406896558806312599429a3439f252c8aefaf0ae27300c67f24729649fa4f3",
      "transactionIndex": "0x1",
      "blockHash": "0xa0faea7479ffe36ae7524532610ad5a4328fee9aed1404f1a7487aea81c314b7",
      "blockNumber": "0xe4a142",
      "from": "0xfb0a3a93e9acd461747e7d613eb3722d53b96613",
      "to": "0xd85bdcdae4db1faeb8ef93331525fe68d7c8b3f0",
      "cumulativeGasUsed": "0x5384",
      "gasUsed": "0x5384",
      "contractAddress": null,
      "logs": [],
      "status": "0x1",
      "logsBloom": "0x00000000000000000000000000000000000000000000000000000000000000000000000000000000000000000000000000000000000000000000000000000000000000000000000000000000000000000000000000000000000000000000000000000000000000000000000000000000000000000000000000000000000000000000000000000000000000000000000000000000000000000000000000000000000000000000000000000000000000000000000000000000000000000000000000000000000000000000000000000000000000000000000000000000000000000000000000000000000000000000000000000000000000000000000000000000",
      "type": "0x0",
      "effectiveGasPrice": "0x5f5e100"
    },
    {
      "transactionHash": "0xd48a4393b6e7a0fa897beb66967772a99f171422c0f0b0f49dfaa6f80d10acc7",
      "transactionIndex": "0x1",
      "blockHash": "0xae097244a95260a3d48e5d2d114e931b9c66b8c465d171c1d8bb11dbc882d043",
      "blockNumber": "0xe4a14a",
      "from": "0xfb0a3a93e9acd461747e7d613eb3722d53b96613",
      "to": "0x238213078dbd09f2d15f4c14c02300fa1b2a81bb",
      "cumulativeGasUsed": "0x53b8",
      "gasUsed": "0x53b8",
      "contractAddress": null,
      "logs": [],
      "status": "0x1",
      "logsBloom": "0x00000000000000000000000000000000000000000000000000000000000000000000000000000000000000000000000000000000000000000000000000000000000000000000000000000000000000000000000000000000000000000000000000000000000000000000000000000000000000000000000000000000000000000000000000000000000000000000000000000000000000000000000000000000000000000000000000000000000000000000000000000000000000000000000000000000000000000000000000000000000000000000000000000000000000000000000000000000000000000000000000000000000000000000000000000000",
      "type": "0x0",
      "effectiveGasPrice": "0x5f5e100"
    },
    {
      "transactionHash": "0x1c8f46f516457faaeafdd5b42f6241b390ea71d2efdaefc6d7e69daeef5c75ec",
      "transactionIndex": "0x1",
      "blockHash": "0xbba639c9e22bcb23f6a241cc47e806fe4c19555e70a8bf556b762fe5088ccc20",
      "blockNumber": "0xe4a150",
      "from": "0xfb0a3a93e9acd461747e7d613eb3722d53b96613",
      "to": "0x238213078dbd09f2d15f4c14c02300fa1b2a81bb",
      "cumulativeGasUsed": "0x53b8",
      "gasUsed": "0x53b8",
      "contractAddress": null,
      "logs": [],
      "status": "0x1",
      "logsBloom": "0x00000000000000000000000000000000000000000000000000000000000000000000000000000000000000000000000000000000000000000000000000000000000000000000000000000000000000000000000000000000000000000000000000000000000000000000000000000000000000000000000000000000000000000000000000000000000000000000000000000000000000000000000000000000000000000000000000000000000000000000000000000000000000000000000000000000000000000000000000000000000000000000000000000000000000000000000000000000000000000000000000000000000000000000000000000000",
      "type": "0x0",
      "effectiveGasPrice": "0x5f5e100"
    }
  ],
  "libraries": [],
  "pending": [],
  "path": "/home/miguelbits/Desktop/Y2K/EARTHQUAKE/broadcast/DeployRinkeby.s.sol/421611/run-latest.json",
  "returns": {},
  "timestamp": 1661849272
}