{
  "transactions": [
    {
      "hash": "0x4b7819597ba0c98fe4a4be90a0baf82931d2d751a04830bbb6c95c1a1f0319cb",
      "transactionType": "CALL",
      "contractName": "VaultFactory",
      "contractAddress": "0xc7f2cf4845c6db0e1a1e91ed41bcd0fcc1b0e141",
      "function": "createNewMarket(uint256,address,int256,uint256,uint256,address,string):(address,address)",
      "arguments": [
        "32",
        "01be23585060835e02b77ef475b0cc51aa1e0709",
        "63",
        "630bc71c",
        "6330b11c",
        "5f0423b1a6935dc5596e7a24d98532b67a0aefd8",
        "y2kUSDC_99*SET"
      ],
      "transaction": {
        "type": "0x00",
        "from": "0xfb0a3a93e9acd461747e7d613eb3722d53b96613",
        "to": "0xc7f2cf4845c6db0e1a1e91ed41bcd0fcc1b0e141",
        "gas": "0x74d6",
        "value": "0x0",
        "data": "0x15355d89000000000000000000000000000000000000000000000000000000000000003200000000000000000000000001be23585060835e02b77ef475b0cc51aa1e0709000000000000000000000000000000000000000000000000000000000000006300000000000000000000000000000000000000000000000000000000630bc71c000000000000000000000000000000000000000000000000000000006330b11c0000000000000000000000005f0423b1a6935dc5596e7a24d98532b67a0aefd800000000000000000000000000000000000000000000000000000000000000e0000000000000000000000000000000000000000000000000000000000000000e79326b555344435f39392a534554000000000000000000000000000000000000",
        "nonce": "0x13f"
      }
    },
    {
      "hash": "0xa3d05bbb9bc938aff9909bc1058941fb024699ff59cb805b0d09a2b1caf93584",
      "transactionType": "CALL",
      "contractName": "RewardsFactory",
      "contractAddress": "0xd85bdcdae4db1faeb8ef93331525fe68d7c8b3f0",
      "function": "createStakingRewards(uint256,uint256):(address,address)",
      "arguments": [
        "1",
        "6330b11c"
      ],
      "transaction": {
        "type": "0x00",
        "from": "0xfb0a3a93e9acd461747e7d613eb3722d53b96613",
        "to": "0xd85bdcdae4db1faeb8ef93331525fe68d7c8b3f0",
        "gas": "0x6c92",
        "value": "0x0",
        "data": "0x2acbfaa30000000000000000000000000000000000000000000000000000000000000001000000000000000000000000000000000000000000000000000000006330b11c",
        "nonce": "0x140"
      }
    },
    {
      "hash": "0xee2b550347e9d9f982e2798a0e115b04e1bf9ca7022d7945a77a7babb574ca06",
      "transactionType": "CALL",
      "contractName": "VaultFactory",
      "contractAddress": "0xc7f2cf4845c6db0e1a1e91ed41bcd0fcc1b0e141",
      "function": "createNewMarket(uint256,address,int256,uint256,uint256,address,string):(address,address)",
      "arguments": [
        "32",
        "01be23585060835e02b77ef475b0cc51aa1e0709",
        "61",
        "630bc71c",
        "6330b11c",
        "5f0423b1a6935dc5596e7a24d98532b67a0aefd8",
        "y2kUSDC_97*SET"
      ],
      "transaction": {
        "type": "0x00",
        "from": "0xfb0a3a93e9acd461747e7d613eb3722d53b96613",
        "to": "0xc7f2cf4845c6db0e1a1e91ed41bcd0fcc1b0e141",
        "gas": "0x74d6",
        "value": "0x0",
        "data": "0x15355d89000000000000000000000000000000000000000000000000000000000000003200000000000000000000000001be23585060835e02b77ef475b0cc51aa1e0709000000000000000000000000000000000000000000000000000000000000006100000000000000000000000000000000000000000000000000000000630bc71c000000000000000000000000000000000000000000000000000000006330b11c0000000000000000000000005f0423b1a6935dc5596e7a24d98532b67a0aefd800000000000000000000000000000000000000000000000000000000000000e0000000000000000000000000000000000000000000000000000000000000000e79326b555344435f39372a534554000000000000000000000000000000000000",
        "nonce": "0x141"
      }
    },
    {
      "hash": "0xe0314ee7108d18ae80892f41fcc9c8f0b449284510311715ec1b6d58570c2e28",
      "transactionType": "CALL",
      "contractName": "RewardsFactory",
      "contractAddress": "0xd85bdcdae4db1faeb8ef93331525fe68d7c8b3f0",
      "function": "createStakingRewards(uint256,uint256):(address,address)",
      "arguments": [
        "2",
        "6330b11c"
      ],
      "transaction": {
        "type": "0x00",
        "from": "0xfb0a3a93e9acd461747e7d613eb3722d53b96613",
        "to": "0xd85bdcdae4db1faeb8ef93331525fe68d7c8b3f0",
        "gas": "0x6c92",
        "value": "0x0",
        "data": "0x2acbfaa30000000000000000000000000000000000000000000000000000000000000002000000000000000000000000000000000000000000000000000000006330b11c",
        "nonce": "0x142"
      }
    },
    {
      "hash": "0x90d2b0dbaef86aea7278dcee2aca948ef06d867ee2b6546c80a2e184f5230f07",
      "transactionType": "CALL",
      "contractName": "VaultFactory",
      "contractAddress": "0xc7f2cf4845c6db0e1a1e91ed41bcd0fcc1b0e141",
      "function": "createNewMarket(uint256,address,int256,uint256,uint256,address,string):(address,address)",
      "arguments": [
        "32",
        "01be23585060835e02b77ef475b0cc51aa1e0709",
        "5f",
        "630bc71c",
        "6330b11c",
        "5f0423b1a6935dc5596e7a24d98532b67a0aefd8",
        "y2kUSDC_95*SET"
      ],
      "transaction": {
        "type": "0x00",
        "from": "0xfb0a3a93e9acd461747e7d613eb3722d53b96613",
        "to": "0xc7f2cf4845c6db0e1a1e91ed41bcd0fcc1b0e141",
        "gas": "0x74d6",
        "value": "0x0",
        "data": "0x15355d89000000000000000000000000000000000000000000000000000000000000003200000000000000000000000001be23585060835e02b77ef475b0cc51aa1e0709000000000000000000000000000000000000000000000000000000000000005f00000000000000000000000000000000000000000000000000000000630bc71c000000000000000000000000000000000000000000000000000000006330b11c0000000000000000000000005f0423b1a6935dc5596e7a24d98532b67a0aefd800000000000000000000000000000000000000000000000000000000000000e0000000000000000000000000000000000000000000000000000000000000000e79326b555344435f39352a534554000000000000000000000000000000000000",
        "nonce": "0x143"
      }
    },
    {
      "hash": "0x5d8984449a32c8d7cb10cf110880ffa04b0d73333847486961382d389f9c1ec6",
      "transactionType": "CALL",
      "contractName": "RewardsFactory",
      "contractAddress": "0xd85bdcdae4db1faeb8ef93331525fe68d7c8b3f0",
      "function": "createStakingRewards(uint256,uint256):(address,address)",
      "arguments": [
        "3",
        "6330b11c"
      ],
      "transaction": {
        "type": "0x00",
        "from": "0xfb0a3a93e9acd461747e7d613eb3722d53b96613",
        "to": "0xd85bdcdae4db1faeb8ef93331525fe68d7c8b3f0",
        "gas": "0x6c92",
        "value": "0x0",
        "data": "0x2acbfaa30000000000000000000000000000000000000000000000000000000000000003000000000000000000000000000000000000000000000000000000006330b11c",
        "nonce": "0x144"
      }
    },
    {
      "hash": "0x9b90bb69c3217b04432c2fbcfd1d36a0b1ceae1567281f870c8d3587433d8349",
      "transactionType": "CALL",
      "contractName": "VaultFactory",
      "contractAddress": "0xc7f2cf4845c6db0e1a1e91ed41bcd0fcc1b0e141",
      "function": "createNewMarket(uint256,address,int256,uint256,uint256,address,string):(address,address)",
      "arguments": [
        "32",
        "4dcf5ac4509888714dd43a5ccc46d7ab389d9c23",
        "63",
        "630bc71c",
        "6330b11c",
        "3e3546c6b5689f7eaa1ba7bc9571322c3168d786",
        "y2kDAI_99*SET"
      ],
      "transaction": {
        "type": "0x00",
        "from": "0xfb0a3a93e9acd461747e7d613eb3722d53b96613",
        "to": "0xc7f2cf4845c6db0e1a1e91ed41bcd0fcc1b0e141",
        "gas": "0x74c6",
        "value": "0x0",
        "data": "0x15355d8900000000000000000000000000000000000000000000000000000000000000320000000000000000000000004dcf5ac4509888714dd43a5ccc46d7ab389d9c23000000000000000000000000000000000000000000000000000000000000006300000000000000000000000000000000000000000000000000000000630bc71c000000000000000000000000000000000000000000000000000000006330b11c0000000000000000000000003e3546c6b5689f7eaa1ba7bc9571322c3168d78600000000000000000000000000000000000000000000000000000000000000e0000000000000000000000000000000000000000000000000000000000000000d79326b4441495f39392a53455400000000000000000000000000000000000000",
        "nonce": "0x145"
      }
    },
    {
      "hash": "0xe67dbcdfdd9e96765a9671d796e12d34d7c45146bd187a57aa6328d146dc7b81",
      "transactionType": "CALL",
      "contractName": "RewardsFactory",
      "contractAddress": "0xd85bdcdae4db1faeb8ef93331525fe68d7c8b3f0",
      "function": "createStakingRewards(uint256,uint256):(address,address)",
      "arguments": [
        "4",
        "6330b11c"
      ],
      "transaction": {
        "type": "0x00",
        "from": "0xfb0a3a93e9acd461747e7d613eb3722d53b96613",
        "to": "0xd85bdcdae4db1faeb8ef93331525fe68d7c8b3f0",
        "gas": "0x6c92",
        "value": "0x0",
        "data": "0x2acbfaa30000000000000000000000000000000000000000000000000000000000000004000000000000000000000000000000000000000000000000000000006330b11c",
        "nonce": "0x146"
      }
    },
    {
      "hash": "0x71275bdbcbac62d63c06abe24337bff64425b64b161d9c328016144d664e65a6",
      "transactionType": "CALL",
      "contractName": "VaultFactory",
      "contractAddress": "0xc7f2cf4845c6db0e1a1e91ed41bcd0fcc1b0e141",
      "function": "createNewMarket(uint256,address,int256,uint256,uint256,address,string):(address,address)",
      "arguments": [
        "32",
        "4dcf5ac4509888714dd43a5ccc46d7ab389d9c23",
        "61",
        "630bc71c",
        "6330b11c",
        "3e3546c6b5689f7eaa1ba7bc9571322c3168d786",
        "y2kDAI_97*SET"
      ],
      "transaction": {
        "type": "0x00",
        "from": "0xfb0a3a93e9acd461747e7d613eb3722d53b96613",
        "to": "0xc7f2cf4845c6db0e1a1e91ed41bcd0fcc1b0e141",
        "gas": "0x74c6",
        "value": "0x0",
        "data": "0x15355d8900000000000000000000000000000000000000000000000000000000000000320000000000000000000000004dcf5ac4509888714dd43a5ccc46d7ab389d9c23000000000000000000000000000000000000000000000000000000000000006100000000000000000000000000000000000000000000000000000000630bc71c000000000000000000000000000000000000000000000000000000006330b11c0000000000000000000000003e3546c6b5689f7eaa1ba7bc9571322c3168d78600000000000000000000000000000000000000000000000000000000000000e0000000000000000000000000000000000000000000000000000000000000000d79326b4441495f39372a53455400000000000000000000000000000000000000",
        "nonce": "0x147"
      }
    },
    {
      "hash": "0x7ad917bf5aa9cebd3c2d2361624db80bcc4dba0d91d9f00a40fc91e644248623",
      "transactionType": "CALL",
      "contractName": "RewardsFactory",
      "contractAddress": "0xd85bdcdae4db1faeb8ef93331525fe68d7c8b3f0",
      "function": "createStakingRewards(uint256,uint256):(address,address)",
      "arguments": [
        "5",
        "6330b11c"
      ],
      "transaction": {
        "type": "0x00",
        "from": "0xfb0a3a93e9acd461747e7d613eb3722d53b96613",
        "to": "0xd85bdcdae4db1faeb8ef93331525fe68d7c8b3f0",
        "gas": "0x6c92",
        "value": "0x0",
        "data": "0x2acbfaa30000000000000000000000000000000000000000000000000000000000000005000000000000000000000000000000000000000000000000000000006330b11c",
        "nonce": "0x148"
      }
    },
    {
      "hash": "0x06f6542276d3ecb453ddd4d8b266adf99f3302eaa8df49dd09b6070899620b2e",
      "transactionType": "CALL",
      "contractName": "VaultFactory",
      "contractAddress": "0xc7f2cf4845c6db0e1a1e91ed41bcd0fcc1b0e141",
      "function": "createNewMarket(uint256,address,int256,uint256,uint256,address,string):(address,address)",
      "arguments": [
        "32",
        "4dcf5ac4509888714dd43a5ccc46d7ab389d9c23",
        "5f",
        "630bc71c",
        "6330b11c",
        "3e3546c6b5689f7eaa1ba7bc9571322c3168d786",
        "y2kDAI_95*SET"
      ],
      "transaction": {
        "type": "0x00",
        "from": "0xfb0a3a93e9acd461747e7d613eb3722d53b96613",
        "to": "0xc7f2cf4845c6db0e1a1e91ed41bcd0fcc1b0e141",
        "gas": "0x74c6",
        "value": "0x0",
        "data": "0x15355d8900000000000000000000000000000000000000000000000000000000000000320000000000000000000000004dcf5ac4509888714dd43a5ccc46d7ab389d9c23000000000000000000000000000000000000000000000000000000000000005f00000000000000000000000000000000000000000000000000000000630bc71c000000000000000000000000000000000000000000000000000000006330b11c0000000000000000000000003e3546c6b5689f7eaa1ba7bc9571322c3168d78600000000000000000000000000000000000000000000000000000000000000e0000000000000000000000000000000000000000000000000000000000000000d79326b4441495f39352a53455400000000000000000000000000000000000000",
        "nonce": "0x149"
      }
    },
    {
      "hash": "0xcc50b4f59341ebc54d4e6fc7e4848fe73c4f1f8d85a064646b43cdd6e18b4470",
      "transactionType": "CALL",
      "contractName": "RewardsFactory",
      "contractAddress": "0xd85bdcdae4db1faeb8ef93331525fe68d7c8b3f0",
      "function": "createStakingRewards(uint256,uint256):(address,address)",
      "arguments": [
        "6",
        "6330b11c"
      ],
      "transaction": {
        "type": "0x00",
        "from": "0xfb0a3a93e9acd461747e7d613eb3722d53b96613",
        "to": "0xd85bdcdae4db1faeb8ef93331525fe68d7c8b3f0",
        "gas": "0x6c92",
        "value": "0x0",
        "data": "0x2acbfaa30000000000000000000000000000000000000000000000000000000000000006000000000000000000000000000000000000000000000000000000006330b11c",
        "nonce": "0x14a"
      }
    },
    {
      "hash": "0x50b50322113962c1c206066a0844b5a43823a547176293eb70ae476ed8ec6a48",
      "transactionType": "CALL",
      "contractName": "VaultFactory",
      "contractAddress": "0xc7f2cf4845c6db0e1a1e91ed41bcd0fcc1b0e141",
      "function": "deployMoreAssets(uint256,uint256,uint256)",
      "arguments": [
        "1",
        "6333541c",
        "63583e1c"
      ],
      "transaction": {
        "type": "0x00",
        "from": "0xfb0a3a93e9acd461747e7d613eb3722d53b96613",
        "to": "0xc7f2cf4845c6db0e1a1e91ed41bcd0fcc1b0e141",
        "gas": "0x6d76",
        "value": "0x0",
        "data": "0x7bb4a17b0000000000000000000000000000000000000000000000000000000000000001000000000000000000000000000000000000000000000000000000006333541c0000000000000000000000000000000000000000000000000000000063583e1c",
        "nonce": "0x14b"
      }
    },
    {
      "hash": "0x170713ebcf35ba7c479abc18cf2209ade782810e559a2e0fefe2a4cc6daa7a41",
      "transactionType": "CALL",
      "contractName": "RewardsFactory",
      "contractAddress": "0xd85bdcdae4db1faeb8ef93331525fe68d7c8b3f0",
      "function": "createStakingRewards(uint256,uint256):(address,address)",
      "arguments": [
        "1",
        "63583e1c"
      ],
      "transaction": {
        "type": "0x00",
        "from": "0xfb0a3a93e9acd461747e7d613eb3722d53b96613",
        "to": "0xd85bdcdae4db1faeb8ef93331525fe68d7c8b3f0",
        "gas": "0x6c92",
        "value": "0x0",
        "data": "0x2acbfaa300000000000000000000000000000000000000000000000000000000000000010000000000000000000000000000000000000000000000000000000063583e1c",
        "nonce": "0x14c"
      }
    },
    {
      "hash": "0x1188e2c857b265a78bb8dbe24fcf7b16c5c009b4c7f98f98c6cc238d64c34d97",
      "transactionType": "CALL",
      "contractName": "VaultFactory",
      "contractAddress": "0xc7f2cf4845c6db0e1a1e91ed41bcd0fcc1b0e141",
      "function": "deployMoreAssets(uint256,uint256,uint256)",
      "arguments": [
        "2",
        "6333541c",
        "63583e1c"
      ],
      "transaction": {
        "type": "0x00",
        "from": "0xfb0a3a93e9acd461747e7d613eb3722d53b96613",
        "to": "0xc7f2cf4845c6db0e1a1e91ed41bcd0fcc1b0e141",
        "gas": "0x6d76",
        "value": "0x0",
        "data": "0x7bb4a17b0000000000000000000000000000000000000000000000000000000000000002000000000000000000000000000000000000000000000000000000006333541c0000000000000000000000000000000000000000000000000000000063583e1c",
        "nonce": "0x14d"
      }
    },
    {
      "hash": "0xd61a6a6665a2308639e63348b2a5e9b10d9b8b774c0a1e380bddaa511b540eca",
      "transactionType": "CALL",
      "contractName": "RewardsFactory",
      "contractAddress": "0xd85bdcdae4db1faeb8ef93331525fe68d7c8b3f0",
      "function": "createStakingRewards(uint256,uint256):(address,address)",
      "arguments": [
        "2",
        "63583e1c"
      ],
      "transaction": {
        "type": "0x00",
        "from": "0xfb0a3a93e9acd461747e7d613eb3722d53b96613",
        "to": "0xd85bdcdae4db1faeb8ef93331525fe68d7c8b3f0",
        "gas": "0x6c92",
        "value": "0x0",
        "data": "0x2acbfaa300000000000000000000000000000000000000000000000000000000000000020000000000000000000000000000000000000000000000000000000063583e1c",
        "nonce": "0x14e"
      }
    },
    {
      "hash": "0x660ca0297096b6dc2158ac681e86f681e85a75f0482c5ab2f6e820a8eed52523",
      "transactionType": "CALL",
      "contractName": "VaultFactory",
      "contractAddress": "0xc7f2cf4845c6db0e1a1e91ed41bcd0fcc1b0e141",
      "function": "deployMoreAssets(uint256,uint256,uint256)",
      "arguments": [
        "3",
        "6333541c",
        "63583e1c"
      ],
      "transaction": {
        "type": "0x00",
        "from": "0xfb0a3a93e9acd461747e7d613eb3722d53b96613",
        "to": "0xc7f2cf4845c6db0e1a1e91ed41bcd0fcc1b0e141",
        "gas": "0x6d76",
        "value": "0x0",
        "data": "0x7bb4a17b0000000000000000000000000000000000000000000000000000000000000003000000000000000000000000000000000000000000000000000000006333541c0000000000000000000000000000000000000000000000000000000063583e1c",
        "nonce": "0x14f"
      }
    },
    {
      "hash": "0x8fbd293b1bc53d1a648c93f14ba8f08108fc3ac1dc71f3c56e3eaee364a9bd0c",
      "transactionType": "CALL",
      "contractName": "RewardsFactory",
      "contractAddress": "0xd85bdcdae4db1faeb8ef93331525fe68d7c8b3f0",
      "function": "createStakingRewards(uint256,uint256):(address,address)",
      "arguments": [
        "3",
        "63583e1c"
      ],
      "transaction": {
        "type": "0x00",
        "from": "0xfb0a3a93e9acd461747e7d613eb3722d53b96613",
        "to": "0xd85bdcdae4db1faeb8ef93331525fe68d7c8b3f0",
        "gas": "0x6c92",
        "value": "0x0",
        "data": "0x2acbfaa300000000000000000000000000000000000000000000000000000000000000030000000000000000000000000000000000000000000000000000000063583e1c",
        "nonce": "0x150"
      }
    },
    {
      "hash": "0x6aa108ca5c87f9d0e1fccd90ae8c15039ee4726fbf861837a105e687366da546",
      "transactionType": "CALL",
      "contractName": "VaultFactory",
      "contractAddress": "0xc7f2cf4845c6db0e1a1e91ed41bcd0fcc1b0e141",
      "function": "deployMoreAssets(uint256,uint256,uint256)",
      "arguments": [
        "4",
        "6333541c",
        "63583e1c"
      ],
      "transaction": {
        "type": "0x00",
        "from": "0xfb0a3a93e9acd461747e7d613eb3722d53b96613",
        "to": "0xc7f2cf4845c6db0e1a1e91ed41bcd0fcc1b0e141",
        "gas": "0x6d76",
        "value": "0x0",
        "data": "0x7bb4a17b0000000000000000000000000000000000000000000000000000000000000004000000000000000000000000000000000000000000000000000000006333541c0000000000000000000000000000000000000000000000000000000063583e1c",
        "nonce": "0x151"
      }
    },
    {
      "hash": "0x82105dd8ab7b838223070b92f5de9a8ae0cf7c0dd87d95b0b68da0b3d51117be",
      "transactionType": "CALL",
      "contractName": "RewardsFactory",
      "contractAddress": "0xd85bdcdae4db1faeb8ef93331525fe68d7c8b3f0",
      "function": "createStakingRewards(uint256,uint256):(address,address)",
      "arguments": [
        "4",
        "63583e1c"
      ],
      "transaction": {
        "type": "0x00",
        "from": "0xfb0a3a93e9acd461747e7d613eb3722d53b96613",
        "to": "0xd85bdcdae4db1faeb8ef93331525fe68d7c8b3f0",
        "gas": "0x6c92",
        "value": "0x0",
        "data": "0x2acbfaa300000000000000000000000000000000000000000000000000000000000000040000000000000000000000000000000000000000000000000000000063583e1c",
        "nonce": "0x152"
      }
    },
    {
      "hash": "0x481c5d1f8672a5f43fb717832dea6efb064002b5921f779d01bb79820a5bae53",
      "transactionType": "CALL",
      "contractName": "VaultFactory",
      "contractAddress": "0xc7f2cf4845c6db0e1a1e91ed41bcd0fcc1b0e141",
      "function": "deployMoreAssets(uint256,uint256,uint256)",
      "arguments": [
        "5",
        "6333541c",
        "63583e1c"
      ],
      "transaction": {
        "type": "0x00",
        "from": "0xfb0a3a93e9acd461747e7d613eb3722d53b96613",
        "to": "0xc7f2cf4845c6db0e1a1e91ed41bcd0fcc1b0e141",
        "gas": "0x6d76",
        "value": "0x0",
        "data": "0x7bb4a17b0000000000000000000000000000000000000000000000000000000000000005000000000000000000000000000000000000000000000000000000006333541c0000000000000000000000000000000000000000000000000000000063583e1c",
        "nonce": "0x153"
      }
    },
    {
      "hash": "0x2ed56b77d57a1a599114c2c2109c2545568c4684ae8ba04be8c81d98cf4300d0",
      "transactionType": "CALL",
      "contractName": "RewardsFactory",
      "contractAddress": "0xd85bdcdae4db1faeb8ef93331525fe68d7c8b3f0",
      "function": "createStakingRewards(uint256,uint256):(address,address)",
      "arguments": [
        "5",
        "63583e1c"
      ],
      "transaction": {
        "type": "0x00",
        "from": "0xfb0a3a93e9acd461747e7d613eb3722d53b96613",
        "to": "0xd85bdcdae4db1faeb8ef93331525fe68d7c8b3f0",
        "gas": "0x6c92",
        "value": "0x0",
        "data": "0x2acbfaa300000000000000000000000000000000000000000000000000000000000000050000000000000000000000000000000000000000000000000000000063583e1c",
        "nonce": "0x154"
      }
    },
    {
      "hash": "0xd7272bf56b324acb9403352a880099d02de52aca340c745167cf7ef32e77cea9",
      "transactionType": "CALL",
      "contractName": "VaultFactory",
      "contractAddress": "0xc7f2cf4845c6db0e1a1e91ed41bcd0fcc1b0e141",
      "function": "deployMoreAssets(uint256,uint256,uint256)",
      "arguments": [
        "6",
        "6333541c",
        "63583e1c"
      ],
      "transaction": {
        "type": "0x00",
        "from": "0xfb0a3a93e9acd461747e7d613eb3722d53b96613",
        "to": "0xc7f2cf4845c6db0e1a1e91ed41bcd0fcc1b0e141",
        "gas": "0x6d76",
        "value": "0x0",
        "data": "0x7bb4a17b0000000000000000000000000000000000000000000000000000000000000006000000000000000000000000000000000000000000000000000000006333541c0000000000000000000000000000000000000000000000000000000063583e1c",
        "nonce": "0x155"
      }
    },
    {
      "hash": "0xad578378e53bfb89d7169196d651ec0471cfdc5921b3a68cf84d9809fda36274",
      "transactionType": "CALL",
      "contractName": "RewardsFactory",
      "contractAddress": "0xd85bdcdae4db1faeb8ef93331525fe68d7c8b3f0",
      "function": "createStakingRewards(uint256,uint256):(address,address)",
      "arguments": [
        "6",
        "63583e1c"
      ],
      "transaction": {
        "type": "0x00",
        "from": "0xfb0a3a93e9acd461747e7d613eb3722d53b96613",
        "to": "0xd85bdcdae4db1faeb8ef93331525fe68d7c8b3f0",
        "gas": "0x6c92",
        "value": "0x0",
        "data": "0x2acbfaa300000000000000000000000000000000000000000000000000000000000000060000000000000000000000000000000000000000000000000000000063583e1c",
        "nonce": "0x156"
      }
    }
  ],
  "receipts": [
    {
      "transactionHash": "0x4b7819597ba0c98fe4a4be90a0baf82931d2d751a04830bbb6c95c1a1f0319cb",
      "transactionIndex": "0x1",
      "blockHash": "0x792ce1166e6dbb9bf9274b677a3ee6f6371952c4fb1ebac141e613ac32577ecc",
      "blockNumber": "0xe1f2aa",
      "from": "0xfb0a3a93e9acd461747e7d613eb3722d53b96613",
      "to": "0xc7f2cf4845c6db0e1a1e91ed41bcd0fcc1b0e141",
      "cumulativeGasUsed": "0x59e0",
      "gasUsed": "0x59e0",
      "contractAddress": null,
      "logs": [],
      "status": "0x1",
      "logsBloom": "0x00000000000000000000000000000000000000000000000000000000000000000000000000000000000000000000000000000000000000000000000000000000000000000000000000000000000000000000000000000000000000000000000000000000000000000000000000000000000000000000000000000000000000000000000000000000000000000000000000000000000000000000000000000000000000000000000000000000000000000000000000000000000000000000000000000000000000000000000000000000000000000000000000000000000000000000000000000000000000000000000000000000000000000000000000000000",
      "type": "0x0",
      "effectiveGasPrice": "0x5f5e100"
    },
    {
      "transactionHash": "0xa3d05bbb9bc938aff9909bc1058941fb024699ff59cb805b0d09a2b1caf93584",
      "transactionIndex": "0x1",
      "blockHash": "0xf527029552d9d3f52d4874be7c2ad4f773cfc4712b3299c5113397b59e761344",
      "blockNumber": "0xe1f2b8",
      "from": "0xfb0a3a93e9acd461747e7d613eb3722d53b96613",
      "to": "0xd85bdcdae4db1faeb8ef93331525fe68d7c8b3f0",
      "cumulativeGasUsed": "0x5384",
      "gasUsed": "0x5384",
      "contractAddress": null,
      "logs": [],
      "status": "0x1",
      "logsBloom": "0x00000000000000000000000000000000000000000000000000000000000000000000000000000000000000000000000000000000000000000000000000000000000000000000000000000000000000000000000000000000000000000000000000000000000000000000000000000000000000000000000000000000000000000000000000000000000000000000000000000000000000000000000000000000000000000000000000000000000000000000000000000000000000000000000000000000000000000000000000000000000000000000000000000000000000000000000000000000000000000000000000000000000000000000000000000000",
      "type": "0x0",
      "effectiveGasPrice": "0x5f5e100"
    },
    {
      "transactionHash": "0xee2b550347e9d9f982e2798a0e115b04e1bf9ca7022d7945a77a7babb574ca06",
      "transactionIndex": "0x1",
      "blockHash": "0x9b72572c99a05558cbd2bc98e95f6d6053701f2de77b102b127fcfe721c869db",
      "blockNumber": "0xe1f2bf",
      "from": "0xfb0a3a93e9acd461747e7d613eb3722d53b96613",
      "to": "0xc7f2cf4845c6db0e1a1e91ed41bcd0fcc1b0e141",
      "cumulativeGasUsed": "0x59e0",
      "gasUsed": "0x59e0",
      "contractAddress": null,
      "logs": [],
      "status": "0x1",
      "logsBloom": "0x00000000000000000000000000000000000000000000000000000000000000000000000000000000000000000000000000000000000000000000000000000000000000000000000000000000000000000000000000000000000000000000000000000000000000000000000000000000000000000000000000000000000000000000000000000000000000000000000000000000000000000000000000000000000000000000000000000000000000000000000000000000000000000000000000000000000000000000000000000000000000000000000000000000000000000000000000000000000000000000000000000000000000000000000000000000",
      "type": "0x0",
      "effectiveGasPrice": "0x5f5e100"
    },
    {
      "transactionHash": "0xe0314ee7108d18ae80892f41fcc9c8f0b449284510311715ec1b6d58570c2e28",
      "transactionIndex": "0x1",
      "blockHash": "0x074aa2b692da846ed3f526545ecfe75e528cc842cc161f8288ecb08663260ec4",
      "blockNumber": "0xe1f2c2",
      "from": "0xfb0a3a93e9acd461747e7d613eb3722d53b96613",
      "to": "0xd85bdcdae4db1faeb8ef93331525fe68d7c8b3f0",
      "cumulativeGasUsed": "0x5384",
      "gasUsed": "0x5384",
      "contractAddress": null,
      "logs": [],
      "status": "0x1",
      "logsBloom": "0x00000000000000000000000000000000000000000000000000000000000000000000000000000000000000000000000000000000000000000000000000000000000000000000000000000000000000000000000000000000000000000000000000000000000000000000000000000000000000000000000000000000000000000000000000000000000000000000000000000000000000000000000000000000000000000000000000000000000000000000000000000000000000000000000000000000000000000000000000000000000000000000000000000000000000000000000000000000000000000000000000000000000000000000000000000000",
      "type": "0x0",
      "effectiveGasPrice": "0x5f5e100"
    },
    {
      "transactionHash": "0x90d2b0dbaef86aea7278dcee2aca948ef06d867ee2b6546c80a2e184f5230f07",
      "transactionIndex": "0x1",
      "blockHash": "0x18d16f679e2ca50e935a831eb2bca393363c6ea66b42053385b78fbef81f5413",
      "blockNumber": "0xe1f2c6",
      "from": "0xfb0a3a93e9acd461747e7d613eb3722d53b96613",
      "to": "0xc7f2cf4845c6db0e1a1e91ed41bcd0fcc1b0e141",
      "cumulativeGasUsed": "0x59e0",
      "gasUsed": "0x59e0",
      "contractAddress": null,
      "logs": [],
      "status": "0x1",
      "logsBloom": "0x00000000000000000000000000000000000000000000000000000000000000000000000000000000000000000000000000000000000000000000000000000000000000000000000000000000000000000000000000000000000000000000000000000000000000000000000000000000000000000000000000000000000000000000000000000000000000000000000000000000000000000000000000000000000000000000000000000000000000000000000000000000000000000000000000000000000000000000000000000000000000000000000000000000000000000000000000000000000000000000000000000000000000000000000000000000",
      "type": "0x0",
      "effectiveGasPrice": "0x5f5e100"
    },
    {
      "transactionHash": "0x5d8984449a32c8d7cb10cf110880ffa04b0d73333847486961382d389f9c1ec6",
      "transactionIndex": "0x1",
      "blockHash": "0x143a20e9574b7953dc192f84f78776d35cc9ca57aec68321245107224af47aa9",
      "blockNumber": "0xe1f2ca",
      "from": "0xfb0a3a93e9acd461747e7d613eb3722d53b96613",
      "to": "0xd85bdcdae4db1faeb8ef93331525fe68d7c8b3f0",
      "cumulativeGasUsed": "0x5384",
      "gasUsed": "0x5384",
      "contractAddress": null,
      "logs": [],
      "status": "0x1",
      "logsBloom": "0x00000000000000000000000000000000000000000000000000000000000000000000000000000000000000000000000000000000000000000000000000000000000000000000000000000000000000000000000000000000000000000000000000000000000000000000000000000000000000000000000000000000000000000000000000000000000000000000000000000000000000000000000000000000000000000000000000000000000000000000000000000000000000000000000000000000000000000000000000000000000000000000000000000000000000000000000000000000000000000000000000000000000000000000000000000000",
      "type": "0x0",
      "effectiveGasPrice": "0x5f5e100"
    },
    {
      "transactionHash": "0x9b90bb69c3217b04432c2fbcfd1d36a0b1ceae1567281f870c8d3587433d8349",
      "transactionIndex": "0x1",
      "blockHash": "0xb49459cd9ab366ee747aa0f96693e2a554f5abea8505c894a63dbd9b46384e87",
      "blockNumber": "0xe1f2d4",
      "from": "0xfb0a3a93e9acd461747e7d613eb3722d53b96613",
      "to": "0xc7f2cf4845c6db0e1a1e91ed41bcd0fcc1b0e141",
      "cumulativeGasUsed": "0x59d4",
      "gasUsed": "0x59d4",
      "contractAddress": null,
      "logs": [],
      "status": "0x1",
      "logsBloom": "0x00000000000000000000000000000000000000000000000000000000000000000000000000000000000000000000000000000000000000000000000000000000000000000000000000000000000000000000000000000000000000000000000000000000000000000000000000000000000000000000000000000000000000000000000000000000000000000000000000000000000000000000000000000000000000000000000000000000000000000000000000000000000000000000000000000000000000000000000000000000000000000000000000000000000000000000000000000000000000000000000000000000000000000000000000000000",
      "type": "0x0",
      "effectiveGasPrice": "0x5f5e100"
    },
    {
      "transactionHash": "0xe67dbcdfdd9e96765a9671d796e12d34d7c45146bd187a57aa6328d146dc7b81",
      "transactionIndex": "0x1",
      "blockHash": "0x04e9992beb7625b6d6f507b070f056568958fe56f67be611c8bf4c8388efdb12",
      "blockNumber": "0xe1f2dc",
      "from": "0xfb0a3a93e9acd461747e7d613eb3722d53b96613",
      "to": "0xd85bdcdae4db1faeb8ef93331525fe68d7c8b3f0",
      "cumulativeGasUsed": "0x5384",
      "gasUsed": "0x5384",
      "contractAddress": null,
      "logs": [],
      "status": "0x1",
      "logsBloom": "0x00000000000000000000000000000000000000000000000000000000000000000000000000000000000000000000000000000000000000000000000000000000000000000000000000000000000000000000000000000000000000000000000000000000000000000000000000000000000000000000000000000000000000000000000000000000000000000000000000000000000000000000000000000000000000000000000000000000000000000000000000000000000000000000000000000000000000000000000000000000000000000000000000000000000000000000000000000000000000000000000000000000000000000000000000000000",
      "type": "0x0",
      "effectiveGasPrice": "0x5f5e100"
    },
    {
      "transactionHash": "0x71275bdbcbac62d63c06abe24337bff64425b64b161d9c328016144d664e65a6",
      "transactionIndex": "0x1",
      "blockHash": "0xa8e30be91941f8fb52667c326d9d3a56465711778b8e26b5a0a727b1714d4cdd",
      "blockNumber": "0xe1f2e0",
      "from": "0xfb0a3a93e9acd461747e7d613eb3722d53b96613",
      "to": "0xc7f2cf4845c6db0e1a1e91ed41bcd0fcc1b0e141",
      "cumulativeGasUsed": "0x59d4",
      "gasUsed": "0x59d4",
      "contractAddress": null,
      "logs": [],
      "status": "0x1",
      "logsBloom": "0x00000000000000000000000000000000000000000000000000000000000000000000000000000000000000000000000000000000000000000000000000000000000000000000000000000000000000000000000000000000000000000000000000000000000000000000000000000000000000000000000000000000000000000000000000000000000000000000000000000000000000000000000000000000000000000000000000000000000000000000000000000000000000000000000000000000000000000000000000000000000000000000000000000000000000000000000000000000000000000000000000000000000000000000000000000000",
      "type": "0x0",
      "effectiveGasPrice": "0x5f5e100"
    },
    {
      "transactionHash": "0x7ad917bf5aa9cebd3c2d2361624db80bcc4dba0d91d9f00a40fc91e644248623",
      "transactionIndex": "0x1",
      "blockHash": "0x7dff8cad6bd52af1056817988581650b802f51f64fa78558984d3bb3f9ca41cd",
      "blockNumber": "0xe1f2e4",
      "from": "0xfb0a3a93e9acd461747e7d613eb3722d53b96613",
      "to": "0xd85bdcdae4db1faeb8ef93331525fe68d7c8b3f0",
      "cumulativeGasUsed": "0x5384",
      "gasUsed": "0x5384",
      "contractAddress": null,
      "logs": [],
      "status": "0x1",
      "logsBloom": "0x00000000000000000000000000000000000000000000000000000000000000000000000000000000000000000000000000000000000000000000000000000000000000000000000000000000000000000000000000000000000000000000000000000000000000000000000000000000000000000000000000000000000000000000000000000000000000000000000000000000000000000000000000000000000000000000000000000000000000000000000000000000000000000000000000000000000000000000000000000000000000000000000000000000000000000000000000000000000000000000000000000000000000000000000000000000",
      "type": "0x0",
      "effectiveGasPrice": "0x5f5e100"
    },
    {
      "transactionHash": "0x06f6542276d3ecb453ddd4d8b266adf99f3302eaa8df49dd09b6070899620b2e",
      "transactionIndex": "0x1",
      "blockHash": "0x18c10ef4bb264eb750895917c6b07384c41ab132050977cece34ec43af56cc3e",
      "blockNumber": "0xe1f2ee",
      "from": "0xfb0a3a93e9acd461747e7d613eb3722d53b96613",
      "to": "0xc7f2cf4845c6db0e1a1e91ed41bcd0fcc1b0e141",
      "cumulativeGasUsed": "0x59d4",
      "gasUsed": "0x59d4",
      "contractAddress": null,
      "logs": [],
      "status": "0x1",
      "logsBloom": "0x00000000000000000000000000000000000000000000000000000000000000000000000000000000000000000000000000000000000000000000000000000000000000000000000000000000000000000000000000000000000000000000000000000000000000000000000000000000000000000000000000000000000000000000000000000000000000000000000000000000000000000000000000000000000000000000000000000000000000000000000000000000000000000000000000000000000000000000000000000000000000000000000000000000000000000000000000000000000000000000000000000000000000000000000000000000",
      "type": "0x0",
      "effectiveGasPrice": "0x5f5e100"
    },
    {
      "transactionHash": "0xcc50b4f59341ebc54d4e6fc7e4848fe73c4f1f8d85a064646b43cdd6e18b4470",
      "transactionIndex": "0x1",
      "blockHash": "0xb1dbe13c14634185d03c35647101835f2d976ddfdd65e1b56254ba029e5fd79f",
      "blockNumber": "0xe1f2f4",
      "from": "0xfb0a3a93e9acd461747e7d613eb3722d53b96613",
      "to": "0xd85bdcdae4db1faeb8ef93331525fe68d7c8b3f0",
      "cumulativeGasUsed": "0x5384",
      "gasUsed": "0x5384",
      "contractAddress": null,
      "logs": [],
      "status": "0x1",
      "logsBloom": "0x00000000000000000000000000000000000000000000000000000000000000000000000000000000000000000000000000000000000000000000000000000000000000000000000000000000000000000000000000000000000000000000000000000000000000000000000000000000000000000000000000000000000000000000000000000000000000000000000000000000000000000000000000000000000000000000000000000000000000000000000000000000000000000000000000000000000000000000000000000000000000000000000000000000000000000000000000000000000000000000000000000000000000000000000000000000",
      "type": "0x0",
      "effectiveGasPrice": "0x5f5e100"
    },
    {
      "transactionHash": "0x50b50322113962c1c206066a0844b5a43823a547176293eb70ae476ed8ec6a48",
      "transactionIndex": "0x1",
      "blockHash": "0xe60b045a5ea8ed893724e269822478f9e8ddeceeed0f6dec4c4a0de020e50975",
      "blockNumber": "0xe1f2f9",
      "from": "0xfb0a3a93e9acd461747e7d613eb3722d53b96613",
      "to": "0xc7f2cf4845c6db0e1a1e91ed41bcd0fcc1b0e141",
      "cumulativeGasUsed": "0x5434",
      "gasUsed": "0x5434",
      "contractAddress": null,
      "logs": [],
      "status": "0x1",
      "logsBloom": "0x00000000000000000000000000000000000000000000000000000000000000000000000000000000000000000000000000000000000000000000000000000000000000000000000000000000000000000000000000000000000000000000000000000000000000000000000000000000000000000000000000000000000000000000000000000000000000000000000000000000000000000000000000000000000000000000000000000000000000000000000000000000000000000000000000000000000000000000000000000000000000000000000000000000000000000000000000000000000000000000000000000000000000000000000000000000",
      "type": "0x0",
      "effectiveGasPrice": "0x5f5e100"
    },
    {
      "transactionHash": "0x170713ebcf35ba7c479abc18cf2209ade782810e559a2e0fefe2a4cc6daa7a41",
      "transactionIndex": "0x1",
      "blockHash": "0x83d4f05811e4166e77612d209b4c14aed632c9b04bb4c72a0aeceb47928f2fbf",
      "blockNumber": "0xe1f2fd",
      "from": "0xfb0a3a93e9acd461747e7d613eb3722d53b96613",
      "to": "0xd85bdcdae4db1faeb8ef93331525fe68d7c8b3f0",
      "cumulativeGasUsed": "0x5384",
      "gasUsed": "0x5384",
      "contractAddress": null,
      "logs": [],
      "status": "0x1",
      "logsBloom": "0x00000000000000000000000000000000000000000000000000000000000000000000000000000000000000000000000000000000000000000000000000000000000000000000000000000000000000000000000000000000000000000000000000000000000000000000000000000000000000000000000000000000000000000000000000000000000000000000000000000000000000000000000000000000000000000000000000000000000000000000000000000000000000000000000000000000000000000000000000000000000000000000000000000000000000000000000000000000000000000000000000000000000000000000000000000000",
      "type": "0x0",
      "effectiveGasPrice": "0x5f5e100"
    },
    {
      "transactionHash": "0x1188e2c857b265a78bb8dbe24fcf7b16c5c009b4c7f98f98c6cc238d64c34d97",
      "transactionIndex": "0x1",
      "blockHash": "0xc547e35904eab4ee42698a851e2b3b1acde4b3886770ef69c00302aaf6770fa2",
      "blockNumber": "0xe1f303",
      "from": "0xfb0a3a93e9acd461747e7d613eb3722d53b96613",
      "to": "0xc7f2cf4845c6db0e1a1e91ed41bcd0fcc1b0e141",
      "cumulativeGasUsed": "0x5434",
      "gasUsed": "0x5434",
      "contractAddress": null,
      "logs": [],
      "status": "0x1",
      "logsBloom": "0x00000000000000000000000000000000000000000000000000000000000000000000000000000000000000000000000000000000000000000000000000000000000000000000000000000000000000000000000000000000000000000000000000000000000000000000000000000000000000000000000000000000000000000000000000000000000000000000000000000000000000000000000000000000000000000000000000000000000000000000000000000000000000000000000000000000000000000000000000000000000000000000000000000000000000000000000000000000000000000000000000000000000000000000000000000000",
      "type": "0x0",
      "effectiveGasPrice": "0x5f5e100"
    },
    {
      "transactionHash": "0xd61a6a6665a2308639e63348b2a5e9b10d9b8b774c0a1e380bddaa511b540eca",
      "transactionIndex": "0x1",
      "blockHash": "0xf6467e702fc2e3c67cd515662c744544b351ccaec52d99b2a9ad8a110acd4c22",
      "blockNumber": "0xe1f308",
      "from": "0xfb0a3a93e9acd461747e7d613eb3722d53b96613",
      "to": "0xd85bdcdae4db1faeb8ef93331525fe68d7c8b3f0",
      "cumulativeGasUsed": "0x5384",
      "gasUsed": "0x5384",
      "contractAddress": null,
      "logs": [],
      "status": "0x1",
      "logsBloom": "0x00000000000000000000000000000000000000000000000000000000000000000000000000000000000000000000000000000000000000000000000000000000000000000000000000000000000000000000000000000000000000000000000000000000000000000000000000000000000000000000000000000000000000000000000000000000000000000000000000000000000000000000000000000000000000000000000000000000000000000000000000000000000000000000000000000000000000000000000000000000000000000000000000000000000000000000000000000000000000000000000000000000000000000000000000000000",
      "type": "0x0",
      "effectiveGasPrice": "0x5f5e100"
    },
    {
      "transactionHash": "0x660ca0297096b6dc2158ac681e86f681e85a75f0482c5ab2f6e820a8eed52523",
      "transactionIndex": "0x1",
      "blockHash": "0x489d3f922e98684fd2e3920972172f715a526383ccb648af5122321805b65d57",
      "blockNumber": "0xe1f30d",
      "from": "0xfb0a3a93e9acd461747e7d613eb3722d53b96613",
      "to": "0xc7f2cf4845c6db0e1a1e91ed41bcd0fcc1b0e141",
      "cumulativeGasUsed": "0x5434",
      "gasUsed": "0x5434",
      "contractAddress": null,
      "logs": [],
      "status": "0x1",
      "logsBloom": "0x00000000000000000000000000000000000000000000000000000000000000000000000000000000000000000000000000000000000000000000000000000000000000000000000000000000000000000000000000000000000000000000000000000000000000000000000000000000000000000000000000000000000000000000000000000000000000000000000000000000000000000000000000000000000000000000000000000000000000000000000000000000000000000000000000000000000000000000000000000000000000000000000000000000000000000000000000000000000000000000000000000000000000000000000000000000",
      "type": "0x0",
      "effectiveGasPrice": "0x5f5e100"
    },
    {
      "transactionHash": "0x8fbd293b1bc53d1a648c93f14ba8f08108fc3ac1dc71f3c56e3eaee364a9bd0c",
      "transactionIndex": "0x1",
      "blockHash": "0x235fdaeffecf64db3491ec6302dfca6e8e49efc6f31ec298965ee2d7c75631f1",
      "blockNumber": "0xe1f318",
      "from": "0xfb0a3a93e9acd461747e7d613eb3722d53b96613",
      "to": "0xd85bdcdae4db1faeb8ef93331525fe68d7c8b3f0",
      "cumulativeGasUsed": "0x5384",
      "gasUsed": "0x5384",
      "contractAddress": null,
      "logs": [],
      "status": "0x1",
      "logsBloom": "0x00000000000000000000000000000000000000000000000000000000000000000000000000000000000000000000000000000000000000000000000000000000000000000000000000000000000000000000000000000000000000000000000000000000000000000000000000000000000000000000000000000000000000000000000000000000000000000000000000000000000000000000000000000000000000000000000000000000000000000000000000000000000000000000000000000000000000000000000000000000000000000000000000000000000000000000000000000000000000000000000000000000000000000000000000000000",
      "type": "0x0",
      "effectiveGasPrice": "0x5f5e100"
    },
    {
      "transactionHash": "0x6aa108ca5c87f9d0e1fccd90ae8c15039ee4726fbf861837a105e687366da546",
      "transactionIndex": "0x1",
      "blockHash": "0xffe77cd78ad82581f7ee158e896bfc2a5c40e80277b54b0b873a2e004970717b",
      "blockNumber": "0xe1f31e",
      "from": "0xfb0a3a93e9acd461747e7d613eb3722d53b96613",
      "to": "0xc7f2cf4845c6db0e1a1e91ed41bcd0fcc1b0e141",
      "cumulativeGasUsed": "0x5434",
      "gasUsed": "0x5434",
      "contractAddress": null,
      "logs": [],
      "status": "0x1",
      "logsBloom": "0x00000000000000000000000000000000000000000000000000000000000000000000000000000000000000000000000000000000000000000000000000000000000000000000000000000000000000000000000000000000000000000000000000000000000000000000000000000000000000000000000000000000000000000000000000000000000000000000000000000000000000000000000000000000000000000000000000000000000000000000000000000000000000000000000000000000000000000000000000000000000000000000000000000000000000000000000000000000000000000000000000000000000000000000000000000000",
      "type": "0x0",
      "effectiveGasPrice": "0x5f5e100"
    },
    {
      "transactionHash": "0x82105dd8ab7b838223070b92f5de9a8ae0cf7c0dd87d95b0b68da0b3d51117be",
      "transactionIndex": "0x1",
      "blockHash": "0x9d8492d71185f5d09e1accaa9b4da2b7a720c2ee7d458f59d6d2a6c78f27994f",
      "blockNumber": "0xe1f322",
      "from": "0xfb0a3a93e9acd461747e7d613eb3722d53b96613",
      "to": "0xd85bdcdae4db1faeb8ef93331525fe68d7c8b3f0",
      "cumulativeGasUsed": "0x5384",
      "gasUsed": "0x5384",
      "contractAddress": null,
      "logs": [],
      "status": "0x1",
      "logsBloom": "0x00000000000000000000000000000000000000000000000000000000000000000000000000000000000000000000000000000000000000000000000000000000000000000000000000000000000000000000000000000000000000000000000000000000000000000000000000000000000000000000000000000000000000000000000000000000000000000000000000000000000000000000000000000000000000000000000000000000000000000000000000000000000000000000000000000000000000000000000000000000000000000000000000000000000000000000000000000000000000000000000000000000000000000000000000000000",
      "type": "0x0",
      "effectiveGasPrice": "0x5f5e100"
    },
    {
      "transactionHash": "0x481c5d1f8672a5f43fb717832dea6efb064002b5921f779d01bb79820a5bae53",
      "transactionIndex": "0x1",
      "blockHash": "0x346d35ffee30c344d1d4338326ab985146c1eaa1bd5d11d4bf9682cc95987a0a",
      "blockNumber": "0xe1f32c",
      "from": "0xfb0a3a93e9acd461747e7d613eb3722d53b96613",
      "to": "0xc7f2cf4845c6db0e1a1e91ed41bcd0fcc1b0e141",
      "cumulativeGasUsed": "0x5434",
      "gasUsed": "0x5434",
      "contractAddress": null,
      "logs": [],
      "status": "0x1",
      "logsBloom": "0x00000000000000000000000000000000000000000000000000000000000000000000000000000000000000000000000000000000000000000000000000000000000000000000000000000000000000000000000000000000000000000000000000000000000000000000000000000000000000000000000000000000000000000000000000000000000000000000000000000000000000000000000000000000000000000000000000000000000000000000000000000000000000000000000000000000000000000000000000000000000000000000000000000000000000000000000000000000000000000000000000000000000000000000000000000000",
      "type": "0x0",
      "effectiveGasPrice": "0x5f5e100"
    },
    {
      "transactionHash": "0x2ed56b77d57a1a599114c2c2109c2545568c4684ae8ba04be8c81d98cf4300d0",
      "transactionIndex": "0x1",
      "blockHash": "0x5ace8fc88ca35defb44b8689eac08baa073ed5a2837cac540ad5e6dde806e9d9",
      "blockNumber": "0xe1f331",
      "from": "0xfb0a3a93e9acd461747e7d613eb3722d53b96613",
      "to": "0xd85bdcdae4db1faeb8ef93331525fe68d7c8b3f0",
      "cumulativeGasUsed": "0x5384",
      "gasUsed": "0x5384",
      "contractAddress": null,
      "logs": [],
      "status": "0x1",
      "logsBloom": "0x00000000000000000000000000000000000000000000000000000000000000000000000000000000000000000000000000000000000000000000000000000000000000000000000000000000000000000000000000000000000000000000000000000000000000000000000000000000000000000000000000000000000000000000000000000000000000000000000000000000000000000000000000000000000000000000000000000000000000000000000000000000000000000000000000000000000000000000000000000000000000000000000000000000000000000000000000000000000000000000000000000000000000000000000000000000",
      "type": "0x0",
      "effectiveGasPrice": "0x5f5e100"
    },
    {
      "transactionHash": "0xd7272bf56b324acb9403352a880099d02de52aca340c745167cf7ef32e77cea9",
      "transactionIndex": "0x1",
      "blockHash": "0xf470598716d7275665a65c4c03f8645b2ae8341f20c17ae39b4c6a9bc8ae344c",
      "blockNumber": "0xe1f33a",
      "from": "0xfb0a3a93e9acd461747e7d613eb3722d53b96613",
      "to": "0xc7f2cf4845c6db0e1a1e91ed41bcd0fcc1b0e141",
      "cumulativeGasUsed": "0x5434",
      "gasUsed": "0x5434",
      "contractAddress": null,
      "logs": [],
      "status": "0x1",
      "logsBloom": "0x00000000000000000000000000000000000000000000000000000000000000000000000000000000000000000000000000000000000000000000000000000000000000000000000000000000000000000000000000000000000000000000000000000000000000000000000000000000000000000000000000000000000000000000000000000000000000000000000000000000000000000000000000000000000000000000000000000000000000000000000000000000000000000000000000000000000000000000000000000000000000000000000000000000000000000000000000000000000000000000000000000000000000000000000000000000",
      "type": "0x0",
      "effectiveGasPrice": "0x5f5e100"
    },
    {
      "transactionHash": "0xad578378e53bfb89d7169196d651ec0471cfdc5921b3a68cf84d9809fda36274",
      "transactionIndex": "0x1",
      "blockHash": "0x74775f612e562bd33254a20fdc7f6b001d7faf20b57f6a53d4344f9ee34ce3d9",
      "blockNumber": "0xe1f33d",
      "from": "0xfb0a3a93e9acd461747e7d613eb3722d53b96613",
      "to": "0xd85bdcdae4db1faeb8ef93331525fe68d7c8b3f0",
      "cumulativeGasUsed": "0x5384",
      "gasUsed": "0x5384",
      "contractAddress": null,
      "logs": [],
      "status": "0x1",
      "logsBloom": "0x00000000000000000000000000000000000000000000000000000000000000000000000000000000000000000000000000000000000000000000000000000000000000000000000000000000000000000000000000000000000000000000000000000000000000000000000000000000000000000000000000000000000000000000000000000000000000000000000000000000000000000000000000000000000000000000000000000000000000000000000000000000000000000000000000000000000000000000000000000000000000000000000000000000000000000000000000000000000000000000000000000000000000000000000000000000",
      "type": "0x0",
      "effectiveGasPrice": "0x5f5e100"
    }
  ],
  "libraries": [],
  "pending": [],
  "path": "/home/miguelbits/Desktop/Y2K/EARTHQUAKE/broadcast/DeployRinkeby.s.sol/421611/run-latest.json",
  "returns": {},
  "timestamp": 1661543672
}