{
  "transactions": [
    {
      "hash": "0x7c73708573845604f0bad691e37e865ef0d95dd6df44a4f0043d5fca67df4c3b",
      "transactionType": "CALL",
      "contractName": "VaultFactory",
      "contractAddress": "0xc7f2cf4845c6db0e1a1e91ed41bcd0fcc1b0e141",
      "function": "createNewMarket(uint256,address,int256,uint256,uint256,address,string):(address,address)",
      "arguments": [
        "32",
        "01be23585060835e02b77ef475b0cc51aa1e0709",
        "63",
        "630b60c7",
        "63304ac7",
        "5f0423b1a6935dc5596e7a24d98532b67a0aefd8",
        "y2kUSDC_99*SET"
      ],
      "transaction": {
        "type": "0x00",
        "from": "0xfb0a3a93e9acd461747e7d613eb3722d53b96613",
        "to": "0xc7f2cf4845c6db0e1a1e91ed41bcd0fcc1b0e141",
        "gas": "0x74d6",
        "value": "0x0",
        "data": "0x15355d89000000000000000000000000000000000000000000000000000000000000003200000000000000000000000001be23585060835e02b77ef475b0cc51aa1e0709000000000000000000000000000000000000000000000000000000000000006300000000000000000000000000000000000000000000000000000000630b60c70000000000000000000000000000000000000000000000000000000063304ac70000000000000000000000005f0423b1a6935dc5596e7a24d98532b67a0aefd800000000000000000000000000000000000000000000000000000000000000e0000000000000000000000000000000000000000000000000000000000000000e79326b555344435f39392a534554000000000000000000000000000000000000",
        "nonce": "0x127"
      }
    },
    {
      "hash": "0x232c16e1f1b6d9246930a26ff8ebd02b846b087183efb94dc718348d3f049efd",
      "transactionType": "CALL",
      "contractName": "RewardsFactory",
      "contractAddress": "0xd85bdcdae4db1faeb8ef93331525fe68d7c8b3f0",
      "function": "createStakingRewards(uint256,uint256):(address,address)",
      "arguments": [
        "1",
        "63304ac7"
      ],
      "transaction": {
        "type": "0x00",
        "from": "0xfb0a3a93e9acd461747e7d613eb3722d53b96613",
        "to": "0xd85bdcdae4db1faeb8ef93331525fe68d7c8b3f0",
        "gas": "0x6c92",
        "value": "0x0",
        "data": "0x2acbfaa300000000000000000000000000000000000000000000000000000000000000010000000000000000000000000000000000000000000000000000000063304ac7",
        "nonce": "0x128"
      }
    },
    {
      "hash": "0x2546b065aa835c63ea8d179b38c570102422b19a6017505cacec1e1991a79dea",
      "transactionType": "CALL",
      "contractName": "VaultFactory",
      "contractAddress": "0xc7f2cf4845c6db0e1a1e91ed41bcd0fcc1b0e141",
      "function": "createNewMarket(uint256,address,int256,uint256,uint256,address,string):(address,address)",
      "arguments": [
        "32",
        "01be23585060835e02b77ef475b0cc51aa1e0709",
        "61",
        "630b60c7",
        "63304ac7",
        "5f0423b1a6935dc5596e7a24d98532b67a0aefd8",
        "y2kUSDC_97*SET"
      ],
      "transaction": {
        "type": "0x00",
        "from": "0xfb0a3a93e9acd461747e7d613eb3722d53b96613",
        "to": "0xc7f2cf4845c6db0e1a1e91ed41bcd0fcc1b0e141",
        "gas": "0x74d6",
        "value": "0x0",
        "data": "0x15355d89000000000000000000000000000000000000000000000000000000000000003200000000000000000000000001be23585060835e02b77ef475b0cc51aa1e0709000000000000000000000000000000000000000000000000000000000000006100000000000000000000000000000000000000000000000000000000630b60c70000000000000000000000000000000000000000000000000000000063304ac70000000000000000000000005f0423b1a6935dc5596e7a24d98532b67a0aefd800000000000000000000000000000000000000000000000000000000000000e0000000000000000000000000000000000000000000000000000000000000000e79326b555344435f39372a534554000000000000000000000000000000000000",
        "nonce": "0x129"
      }
    },
    {
      "hash": "0x51ec49e7004c088e47a0dc3d13868c05c6256918bd773824756cd2ce6f07fae7",
      "transactionType": "CALL",
      "contractName": "RewardsFactory",
      "contractAddress": "0xd85bdcdae4db1faeb8ef93331525fe68d7c8b3f0",
      "function": "createStakingRewards(uint256,uint256):(address,address)",
      "arguments": [
        "2",
        "63304ac7"
      ],
      "transaction": {
        "type": "0x00",
        "from": "0xfb0a3a93e9acd461747e7d613eb3722d53b96613",
        "to": "0xd85bdcdae4db1faeb8ef93331525fe68d7c8b3f0",
        "gas": "0x6c92",
        "value": "0x0",
        "data": "0x2acbfaa300000000000000000000000000000000000000000000000000000000000000020000000000000000000000000000000000000000000000000000000063304ac7",
        "nonce": "0x12a"
      }
    },
    {
      "hash": "0xaf3a72abba0f78b9364100ccfb6cba1b1fde4674b78fe9de88c274914db46c6d",
      "transactionType": "CALL",
      "contractName": "VaultFactory",
      "contractAddress": "0xc7f2cf4845c6db0e1a1e91ed41bcd0fcc1b0e141",
      "function": "createNewMarket(uint256,address,int256,uint256,uint256,address,string):(address,address)",
      "arguments": [
        "32",
        "01be23585060835e02b77ef475b0cc51aa1e0709",
        "5f",
        "630b60c7",
        "63304ac7",
        "5f0423b1a6935dc5596e7a24d98532b67a0aefd8",
        "y2kUSDC_95*SET"
      ],
      "transaction": {
        "type": "0x00",
        "from": "0xfb0a3a93e9acd461747e7d613eb3722d53b96613",
        "to": "0xc7f2cf4845c6db0e1a1e91ed41bcd0fcc1b0e141",
        "gas": "0x74d6",
        "value": "0x0",
        "data": "0x15355d89000000000000000000000000000000000000000000000000000000000000003200000000000000000000000001be23585060835e02b77ef475b0cc51aa1e0709000000000000000000000000000000000000000000000000000000000000005f00000000000000000000000000000000000000000000000000000000630b60c70000000000000000000000000000000000000000000000000000000063304ac70000000000000000000000005f0423b1a6935dc5596e7a24d98532b67a0aefd800000000000000000000000000000000000000000000000000000000000000e0000000000000000000000000000000000000000000000000000000000000000e79326b555344435f39352a534554000000000000000000000000000000000000",
        "nonce": "0x12b"
      }
    },
    {
      "hash": "0x2930b36995670a929c90986574c5b87721a164fe9be66d4e7ad23e0486159ca4",
      "transactionType": "CALL",
      "contractName": "RewardsFactory",
      "contractAddress": "0xd85bdcdae4db1faeb8ef93331525fe68d7c8b3f0",
      "function": "createStakingRewards(uint256,uint256):(address,address)",
      "arguments": [
        "3",
        "63304ac7"
      ],
      "transaction": {
        "type": "0x00",
        "from": "0xfb0a3a93e9acd461747e7d613eb3722d53b96613",
        "to": "0xd85bdcdae4db1faeb8ef93331525fe68d7c8b3f0",
        "gas": "0x6c92",
        "value": "0x0",
        "data": "0x2acbfaa300000000000000000000000000000000000000000000000000000000000000030000000000000000000000000000000000000000000000000000000063304ac7",
        "nonce": "0x12c"
      }
    },
    {
      "hash": "0x38069d2db90f10392a0be936ae7933ec5422b577f25eb8ab717dd93f543dc25e",
      "transactionType": "CALL",
      "contractName": "VaultFactory",
      "contractAddress": "0xc7f2cf4845c6db0e1a1e91ed41bcd0fcc1b0e141",
      "function": "createNewMarket(uint256,address,int256,uint256,uint256,address,string):(address,address)",
      "arguments": [
        "32",
        "4dcf5ac4509888714dd43a5ccc46d7ab389d9c23",
        "63",
        "630b60c7",
        "63304ac7",
        "3e3546c6b5689f7eaa1ba7bc9571322c3168d786",
        "y2kDAI_99*SET"
      ],
      "transaction": {
        "type": "0x00",
        "from": "0xfb0a3a93e9acd461747e7d613eb3722d53b96613",
        "to": "0xc7f2cf4845c6db0e1a1e91ed41bcd0fcc1b0e141",
        "gas": "0x74c6",
        "value": "0x0",
        "data": "0x15355d8900000000000000000000000000000000000000000000000000000000000000320000000000000000000000004dcf5ac4509888714dd43a5ccc46d7ab389d9c23000000000000000000000000000000000000000000000000000000000000006300000000000000000000000000000000000000000000000000000000630b60c70000000000000000000000000000000000000000000000000000000063304ac70000000000000000000000003e3546c6b5689f7eaa1ba7bc9571322c3168d78600000000000000000000000000000000000000000000000000000000000000e0000000000000000000000000000000000000000000000000000000000000000d79326b4441495f39392a53455400000000000000000000000000000000000000",
        "nonce": "0x12d"
      }
    },
    {
      "hash": "0x23c669b316a44407963f882e17fcc11e73a18c40238fe5adaa0d6fb818397da7",
      "transactionType": "CALL",
      "contractName": "RewardsFactory",
      "contractAddress": "0xd85bdcdae4db1faeb8ef93331525fe68d7c8b3f0",
      "function": "createStakingRewards(uint256,uint256):(address,address)",
      "arguments": [
        "4",
        "63304ac7"
      ],
      "transaction": {
        "type": "0x00",
        "from": "0xfb0a3a93e9acd461747e7d613eb3722d53b96613",
        "to": "0xd85bdcdae4db1faeb8ef93331525fe68d7c8b3f0",
        "gas": "0x6c92",
        "value": "0x0",
        "data": "0x2acbfaa300000000000000000000000000000000000000000000000000000000000000040000000000000000000000000000000000000000000000000000000063304ac7",
        "nonce": "0x12e"
      }
    },
    {
      "hash": "0x3f7200a51021f9c231d855673d892c1f398ec8f0d3534bb9bc595e0ae9a0dcd8",
      "transactionType": "CALL",
      "contractName": "VaultFactory",
      "contractAddress": "0xc7f2cf4845c6db0e1a1e91ed41bcd0fcc1b0e141",
      "function": "createNewMarket(uint256,address,int256,uint256,uint256,address,string):(address,address)",
      "arguments": [
        "32",
        "4dcf5ac4509888714dd43a5ccc46d7ab389d9c23",
        "61",
        "630b60c7",
        "63304ac7",
        "3e3546c6b5689f7eaa1ba7bc9571322c3168d786",
        "y2kDAI_97*SET"
      ],
      "transaction": {
        "type": "0x00",
        "from": "0xfb0a3a93e9acd461747e7d613eb3722d53b96613",
        "to": "0xc7f2cf4845c6db0e1a1e91ed41bcd0fcc1b0e141",
        "gas": "0x74c6",
        "value": "0x0",
        "data": "0x15355d8900000000000000000000000000000000000000000000000000000000000000320000000000000000000000004dcf5ac4509888714dd43a5ccc46d7ab389d9c23000000000000000000000000000000000000000000000000000000000000006100000000000000000000000000000000000000000000000000000000630b60c70000000000000000000000000000000000000000000000000000000063304ac70000000000000000000000003e3546c6b5689f7eaa1ba7bc9571322c3168d78600000000000000000000000000000000000000000000000000000000000000e0000000000000000000000000000000000000000000000000000000000000000d79326b4441495f39372a53455400000000000000000000000000000000000000",
        "nonce": "0x12f"
      }
    },
    {
      "hash": "0xf70e8d68359c62eb1caaebbccfc340f2b270f7c41edaf49b40f6c14636e89907",
      "transactionType": "CALL",
      "contractName": "RewardsFactory",
      "contractAddress": "0xd85bdcdae4db1faeb8ef93331525fe68d7c8b3f0",
      "function": "createStakingRewards(uint256,uint256):(address,address)",
      "arguments": [
        "5",
        "63304ac7"
      ],
      "transaction": {
        "type": "0x00",
        "from": "0xfb0a3a93e9acd461747e7d613eb3722d53b96613",
        "to": "0xd85bdcdae4db1faeb8ef93331525fe68d7c8b3f0",
        "gas": "0x6c92",
        "value": "0x0",
        "data": "0x2acbfaa300000000000000000000000000000000000000000000000000000000000000050000000000000000000000000000000000000000000000000000000063304ac7",
        "nonce": "0x130"
      }
    },
    {
      "hash": "0xdc369fffe928f06faa2c57d5c860218e999d31a51a8247e40eef82d6925a1b09",
      "transactionType": "CALL",
      "contractName": "VaultFactory",
      "contractAddress": "0xc7f2cf4845c6db0e1a1e91ed41bcd0fcc1b0e141",
      "function": "createNewMarket(uint256,address,int256,uint256,uint256,address,string):(address,address)",
      "arguments": [
        "32",
        "4dcf5ac4509888714dd43a5ccc46d7ab389d9c23",
        "5f",
        "630b60c7",
        "63304ac7",
        "3e3546c6b5689f7eaa1ba7bc9571322c3168d786",
        "y2kDAI_95*SET"
      ],
      "transaction": {
        "type": "0x00",
        "from": "0xfb0a3a93e9acd461747e7d613eb3722d53b96613",
        "to": "0xc7f2cf4845c6db0e1a1e91ed41bcd0fcc1b0e141",
        "gas": "0x74c6",
        "value": "0x0",
        "data": "0x15355d8900000000000000000000000000000000000000000000000000000000000000320000000000000000000000004dcf5ac4509888714dd43a5ccc46d7ab389d9c23000000000000000000000000000000000000000000000000000000000000005f00000000000000000000000000000000000000000000000000000000630b60c70000000000000000000000000000000000000000000000000000000063304ac70000000000000000000000003e3546c6b5689f7eaa1ba7bc9571322c3168d78600000000000000000000000000000000000000000000000000000000000000e0000000000000000000000000000000000000000000000000000000000000000d79326b4441495f39352a53455400000000000000000000000000000000000000",
        "nonce": "0x131"
      }
    },
    {
      "hash": "0xdabde5008b6b1414c5c657c093e23b277579e825add2fac015d13c143e11aff4",
      "transactionType": "CALL",
      "contractName": "RewardsFactory",
      "contractAddress": "0xd85bdcdae4db1faeb8ef93331525fe68d7c8b3f0",
      "function": "createStakingRewards(uint256,uint256):(address,address)",
      "arguments": [
        "6",
        "63304ac7"
      ],
      "transaction": {
        "type": "0x00",
        "from": "0xfb0a3a93e9acd461747e7d613eb3722d53b96613",
        "to": "0xd85bdcdae4db1faeb8ef93331525fe68d7c8b3f0",
        "gas": "0x6c92",
        "value": "0x0",
        "data": "0x2acbfaa300000000000000000000000000000000000000000000000000000000000000060000000000000000000000000000000000000000000000000000000063304ac7",
        "nonce": "0x132"
      }
    },
    {
      "hash": "0x761da10fe2a655b734eeee7051ad125cd2a7af9fb639c25ba64682078cdf36ff",
      "transactionType": "CALL",
      "contractName": "VaultFactory",
      "contractAddress": "0xc7f2cf4845c6db0e1a1e91ed41bcd0fcc1b0e141",
      "function": "deployMoreAssets(uint256,uint256,uint256)",
      "arguments": [
        "1",
        "6332edc7",
        "6357d7c7"
      ],
      "transaction": {
        "type": "0x00",
        "from": "0xfb0a3a93e9acd461747e7d613eb3722d53b96613",
        "to": "0xc7f2cf4845c6db0e1a1e91ed41bcd0fcc1b0e141",
        "gas": "0x6d76",
        "value": "0x0",
        "data": "0x7bb4a17b0000000000000000000000000000000000000000000000000000000000000001000000000000000000000000000000000000000000000000000000006332edc7000000000000000000000000000000000000000000000000000000006357d7c7",
        "nonce": "0x133"
      }
    },
    {
      "hash": "0x185a71690626f2aaafed3e3751a0247fdbcc01bc7f7b52fd6c646062f6dbab1b",
      "transactionType": "CALL",
      "contractName": "RewardsFactory",
      "contractAddress": "0xd85bdcdae4db1faeb8ef93331525fe68d7c8b3f0",
      "function": "createStakingRewards(uint256,uint256):(address,address)",
      "arguments": [
        "1",
        "6357d7c7"
      ],
      "transaction": {
        "type": "0x00",
        "from": "0xfb0a3a93e9acd461747e7d613eb3722d53b96613",
        "to": "0xd85bdcdae4db1faeb8ef93331525fe68d7c8b3f0",
        "gas": "0x6c92",
        "value": "0x0",
        "data": "0x2acbfaa30000000000000000000000000000000000000000000000000000000000000001000000000000000000000000000000000000000000000000000000006357d7c7",
        "nonce": "0x134"
      }
    },
    {
      "hash": "0x74f341d1cf5985ba1dec4da65890903d32153f582f45a7729c6682dd35a8d69b",
      "transactionType": "CALL",
      "contractName": "VaultFactory",
      "contractAddress": "0xc7f2cf4845c6db0e1a1e91ed41bcd0fcc1b0e141",
      "function": "deployMoreAssets(uint256,uint256,uint256)",
      "arguments": [
        "2",
        "6332edc7",
        "6357d7c7"
      ],
      "transaction": {
        "type": "0x00",
        "from": "0xfb0a3a93e9acd461747e7d613eb3722d53b96613",
        "to": "0xc7f2cf4845c6db0e1a1e91ed41bcd0fcc1b0e141",
        "gas": "0x6d76",
        "value": "0x0",
        "data": "0x7bb4a17b0000000000000000000000000000000000000000000000000000000000000002000000000000000000000000000000000000000000000000000000006332edc7000000000000000000000000000000000000000000000000000000006357d7c7",
        "nonce": "0x135"
      }
    },
    {
      "hash": "0x1168691810ae30e2bdfc69ab658a769320f7486df9bca80b0692a685a23a7783",
      "transactionType": "CALL",
      "contractName": "RewardsFactory",
      "contractAddress": "0xd85bdcdae4db1faeb8ef93331525fe68d7c8b3f0",
      "function": "createStakingRewards(uint256,uint256):(address,address)",
      "arguments": [
        "2",
        "6357d7c7"
      ],
      "transaction": {
        "type": "0x00",
        "from": "0xfb0a3a93e9acd461747e7d613eb3722d53b96613",
        "to": "0xd85bdcdae4db1faeb8ef93331525fe68d7c8b3f0",
        "gas": "0x6c92",
        "value": "0x0",
        "data": "0x2acbfaa30000000000000000000000000000000000000000000000000000000000000002000000000000000000000000000000000000000000000000000000006357d7c7",
        "nonce": "0x136"
      }
    },
    {
      "hash": "0x24fbc597e094bb5c5f72ac91328f6f70acc6aa5d69c0706c7f40f1815f0f19e1",
      "transactionType": "CALL",
      "contractName": "VaultFactory",
      "contractAddress": "0xc7f2cf4845c6db0e1a1e91ed41bcd0fcc1b0e141",
      "function": "deployMoreAssets(uint256,uint256,uint256)",
      "arguments": [
        "3",
        "6332edc7",
        "6357d7c7"
      ],
      "transaction": {
        "type": "0x00",
        "from": "0xfb0a3a93e9acd461747e7d613eb3722d53b96613",
        "to": "0xc7f2cf4845c6db0e1a1e91ed41bcd0fcc1b0e141",
        "gas": "0x6d76",
        "value": "0x0",
        "data": "0x7bb4a17b0000000000000000000000000000000000000000000000000000000000000003000000000000000000000000000000000000000000000000000000006332edc7000000000000000000000000000000000000000000000000000000006357d7c7",
        "nonce": "0x137"
      }
    },
    {
      "hash": "0x8354f89781b0db3ec15bde87215afe71ead550d910e846dc5d9cb80d71927988",
      "transactionType": "CALL",
      "contractName": "RewardsFactory",
      "contractAddress": "0xd85bdcdae4db1faeb8ef93331525fe68d7c8b3f0",
      "function": "createStakingRewards(uint256,uint256):(address,address)",
      "arguments": [
        "3",
        "6357d7c7"
      ],
      "transaction": {
        "type": "0x00",
        "from": "0xfb0a3a93e9acd461747e7d613eb3722d53b96613",
        "to": "0xd85bdcdae4db1faeb8ef93331525fe68d7c8b3f0",
        "gas": "0x6c92",
        "value": "0x0",
        "data": "0x2acbfaa30000000000000000000000000000000000000000000000000000000000000003000000000000000000000000000000000000000000000000000000006357d7c7",
        "nonce": "0x138"
      }
    },
    {
      "hash": "0x70b2a46b66e21fe2134bd34c46f3753afa93f6241a95ae6911f9d9f2429bf3a9",
      "transactionType": "CALL",
      "contractName": "VaultFactory",
      "contractAddress": "0xc7f2cf4845c6db0e1a1e91ed41bcd0fcc1b0e141",
      "function": "deployMoreAssets(uint256,uint256,uint256)",
      "arguments": [
        "4",
        "6332edc7",
        "6357d7c7"
      ],
      "transaction": {
        "type": "0x00",
        "from": "0xfb0a3a93e9acd461747e7d613eb3722d53b96613",
        "to": "0xc7f2cf4845c6db0e1a1e91ed41bcd0fcc1b0e141",
        "gas": "0x6d76",
        "value": "0x0",
        "data": "0x7bb4a17b0000000000000000000000000000000000000000000000000000000000000004000000000000000000000000000000000000000000000000000000006332edc7000000000000000000000000000000000000000000000000000000006357d7c7",
        "nonce": "0x139"
      }
    },
    {
      "hash": "0x84c67fe48c33e13357020e879cb12d3e4aa3852e36783254b342e5c0a76c8b7f",
      "transactionType": "CALL",
      "contractName": "RewardsFactory",
      "contractAddress": "0xd85bdcdae4db1faeb8ef93331525fe68d7c8b3f0",
      "function": "createStakingRewards(uint256,uint256):(address,address)",
      "arguments": [
        "4",
        "6357d7c7"
      ],
      "transaction": {
        "type": "0x00",
        "from": "0xfb0a3a93e9acd461747e7d613eb3722d53b96613",
        "to": "0xd85bdcdae4db1faeb8ef93331525fe68d7c8b3f0",
        "gas": "0x6c92",
        "value": "0x0",
        "data": "0x2acbfaa30000000000000000000000000000000000000000000000000000000000000004000000000000000000000000000000000000000000000000000000006357d7c7",
        "nonce": "0x13a"
      }
    },
    {
      "hash": "0xeb161584738024d340320167cbe9ffc0e0b73492385492b66a100e0ef280b6c6",
      "transactionType": "CALL",
      "contractName": "VaultFactory",
      "contractAddress": "0xc7f2cf4845c6db0e1a1e91ed41bcd0fcc1b0e141",
      "function": "deployMoreAssets(uint256,uint256,uint256)",
      "arguments": [
        "5",
        "6332edc7",
        "6357d7c7"
      ],
      "transaction": {
        "type": "0x00",
        "from": "0xfb0a3a93e9acd461747e7d613eb3722d53b96613",
        "to": "0xc7f2cf4845c6db0e1a1e91ed41bcd0fcc1b0e141",
        "gas": "0x6d76",
        "value": "0x0",
        "data": "0x7bb4a17b0000000000000000000000000000000000000000000000000000000000000005000000000000000000000000000000000000000000000000000000006332edc7000000000000000000000000000000000000000000000000000000006357d7c7",
        "nonce": "0x13b"
      }
    },
    {
      "hash": "0x5c86d1023c201355a2d60058aa07cde6a7ef0614f87d76158d18fc5c77a45c9b",
      "transactionType": "CALL",
      "contractName": "RewardsFactory",
      "contractAddress": "0xd85bdcdae4db1faeb8ef93331525fe68d7c8b3f0",
      "function": "createStakingRewards(uint256,uint256):(address,address)",
      "arguments": [
        "5",
        "6357d7c7"
      ],
      "transaction": {
        "type": "0x00",
        "from": "0xfb0a3a93e9acd461747e7d613eb3722d53b96613",
        "to": "0xd85bdcdae4db1faeb8ef93331525fe68d7c8b3f0",
        "gas": "0x6c92",
        "value": "0x0",
        "data": "0x2acbfaa30000000000000000000000000000000000000000000000000000000000000005000000000000000000000000000000000000000000000000000000006357d7c7",
        "nonce": "0x13c"
      }
    },
    {
      "hash": "0x0d24a0309004d2422e10c0801882fa403ad74440a2eeb7948baff4a1c577678d",
      "transactionType": "CALL",
      "contractName": "VaultFactory",
      "contractAddress": "0xc7f2cf4845c6db0e1a1e91ed41bcd0fcc1b0e141",
      "function": "deployMoreAssets(uint256,uint256,uint256)",
      "arguments": [
        "6",
        "6332edc7",
        "6357d7c7"
      ],
      "transaction": {
        "type": "0x00",
        "from": "0xfb0a3a93e9acd461747e7d613eb3722d53b96613",
        "to": "0xc7f2cf4845c6db0e1a1e91ed41bcd0fcc1b0e141",
        "gas": "0x6d76",
        "value": "0x0",
        "data": "0x7bb4a17b0000000000000000000000000000000000000000000000000000000000000006000000000000000000000000000000000000000000000000000000006332edc7000000000000000000000000000000000000000000000000000000006357d7c7",
        "nonce": "0x13d"
      }
    },
    {
      "hash": "0x362049ab78046f139046bbefca669016ece1156e80e666b666f1199fec40c83b",
      "transactionType": "CALL",
      "contractName": "RewardsFactory",
      "contractAddress": "0xd85bdcdae4db1faeb8ef93331525fe68d7c8b3f0",
      "function": "createStakingRewards(uint256,uint256):(address,address)",
      "arguments": [
        "6",
        "6357d7c7"
      ],
      "transaction": {
        "type": "0x00",
        "from": "0xfb0a3a93e9acd461747e7d613eb3722d53b96613",
        "to": "0xd85bdcdae4db1faeb8ef93331525fe68d7c8b3f0",
        "gas": "0x6c92",
        "value": "0x0",
        "data": "0x2acbfaa30000000000000000000000000000000000000000000000000000000000000006000000000000000000000000000000000000000000000000000000006357d7c7",
        "nonce": "0x13e"
      }
    }
  ],
  "receipts": [
    {
      "transactionHash": "0x7c73708573845604f0bad691e37e865ef0d95dd6df44a4f0043d5fca67df4c3b",
      "transactionIndex": "0x1",
      "blockHash": "0x645fdecca070ddeb1117ca8fcb2b86f057af10c010a32550d82850b9e2b0eb97",
      "blockNumber": "0xe1bc81",
      "from": "0xfb0a3a93e9acd461747e7d613eb3722d53b96613",
      "to": "0xc7f2cf4845c6db0e1a1e91ed41bcd0fcc1b0e141",
      "cumulativeGasUsed": "0x59e0",
      "gasUsed": "0x59e0",
      "contractAddress": null,
      "logs": [],
      "status": "0x1",
      "logsBloom": "0x00000000000000000000000000000000000000000000000000000000000000000000000000000000000000000000000000000000000000000000000000000000000000000000000000000000000000000000000000000000000000000000000000000000000000000000000000000000000000000000000000000000000000000000000000000000000000000000000000000000000000000000000000000000000000000000000000000000000000000000000000000000000000000000000000000000000000000000000000000000000000000000000000000000000000000000000000000000000000000000000000000000000000000000000000000000",
      "type": "0x0",
      "effectiveGasPrice": "0x5f5e100"
    },
    {
      "transactionHash": "0x232c16e1f1b6d9246930a26ff8ebd02b846b087183efb94dc718348d3f049efd",
      "transactionIndex": "0x1",
      "blockHash": "0xe74d35eec1d4412dde555dfe5dd9ec965ac65f34de219dd74d1fd6ad4beb0965",
      "blockNumber": "0xe1bc8c",
      "from": "0xfb0a3a93e9acd461747e7d613eb3722d53b96613",
      "to": "0xd85bdcdae4db1faeb8ef93331525fe68d7c8b3f0",
      "cumulativeGasUsed": "0x5384",
      "gasUsed": "0x5384",
      "contractAddress": null,
      "logs": [],
      "status": "0x1",
      "logsBloom": "0x00000000000000000000000000000000000000000000000000000000000000000000000000000000000000000000000000000000000000000000000000000000000000000000000000000000000000000000000000000000000000000000000000000000000000000000000000000000000000000000000000000000000000000000000000000000000000000000000000000000000000000000000000000000000000000000000000000000000000000000000000000000000000000000000000000000000000000000000000000000000000000000000000000000000000000000000000000000000000000000000000000000000000000000000000000000",
      "type": "0x0",
      "effectiveGasPrice": "0x5f5e100"
    },
    {
      "transactionHash": "0x2546b065aa835c63ea8d179b38c570102422b19a6017505cacec1e1991a79dea",
      "transactionIndex": "0x1",
      "blockHash": "0x12de7ca755ae1c2bce91dd2b00a1d3b8a9f6ae8a762063a4512004a1fe22d7ff",
      "blockNumber": "0xe1bc93",
      "from": "0xfb0a3a93e9acd461747e7d613eb3722d53b96613",
      "to": "0xc7f2cf4845c6db0e1a1e91ed41bcd0fcc1b0e141",
      "cumulativeGasUsed": "0x59e0",
      "gasUsed": "0x59e0",
      "contractAddress": null,
      "logs": [],
      "status": "0x1",
      "logsBloom": "0x00000000000000000000000000000000000000000000000000000000000000000000000000000000000000000000000000000000000000000000000000000000000000000000000000000000000000000000000000000000000000000000000000000000000000000000000000000000000000000000000000000000000000000000000000000000000000000000000000000000000000000000000000000000000000000000000000000000000000000000000000000000000000000000000000000000000000000000000000000000000000000000000000000000000000000000000000000000000000000000000000000000000000000000000000000000",
      "type": "0x0",
      "effectiveGasPrice": "0x5f5e100"
    },
    {
      "transactionHash": "0x51ec49e7004c088e47a0dc3d13868c05c6256918bd773824756cd2ce6f07fae7",
      "transactionIndex": "0x1",
      "blockHash": "0x7cefd162ed48f250b2c5b7c70c43ebddc6cf8b0c3103bd15a3ae3d7b1747209f",
      "blockNumber": "0xe1bc9c",
      "from": "0xfb0a3a93e9acd461747e7d613eb3722d53b96613",
      "to": "0xd85bdcdae4db1faeb8ef93331525fe68d7c8b3f0",
      "cumulativeGasUsed": "0x5384",
      "gasUsed": "0x5384",
      "contractAddress": null,
      "logs": [],
      "status": "0x1",
      "logsBloom": "0x00000000000000000000000000000000000000000000000000000000000000000000000000000000000000000000000000000000000000000000000000000000000000000000000000000000000000000000000000000000000000000000000000000000000000000000000000000000000000000000000000000000000000000000000000000000000000000000000000000000000000000000000000000000000000000000000000000000000000000000000000000000000000000000000000000000000000000000000000000000000000000000000000000000000000000000000000000000000000000000000000000000000000000000000000000000",
      "type": "0x0",
      "effectiveGasPrice": "0x5f5e100"
    },
    {
      "transactionHash": "0xaf3a72abba0f78b9364100ccfb6cba1b1fde4674b78fe9de88c274914db46c6d",
      "transactionIndex": "0x1",
      "blockHash": "0xab93a7eddeba3fd6a62535aaedef18891aa1fcfe47ea544a893389dffd523e20",
      "blockNumber": "0xe1bca3",
      "from": "0xfb0a3a93e9acd461747e7d613eb3722d53b96613",
      "to": "0xc7f2cf4845c6db0e1a1e91ed41bcd0fcc1b0e141",
      "cumulativeGasUsed": "0x59e0",
      "gasUsed": "0x59e0",
      "contractAddress": null,
      "logs": [],
      "status": "0x1",
      "logsBloom": "0x00000000000000000000000000000000000000000000000000000000000000000000000000000000000000000000000000000000000000000000000000000000000000000000000000000000000000000000000000000000000000000000000000000000000000000000000000000000000000000000000000000000000000000000000000000000000000000000000000000000000000000000000000000000000000000000000000000000000000000000000000000000000000000000000000000000000000000000000000000000000000000000000000000000000000000000000000000000000000000000000000000000000000000000000000000000",
      "type": "0x0",
      "effectiveGasPrice": "0x5f5e100"
    },
    {
      "transactionHash": "0x2930b36995670a929c90986574c5b87721a164fe9be66d4e7ad23e0486159ca4",
      "transactionIndex": "0x1",
      "blockHash": "0x6ae6ad79f1c2ad2b78004e726e02cab45753e65f5bde70578c76bcffb6001e91",
      "blockNumber": "0xe1bcab",
      "from": "0xfb0a3a93e9acd461747e7d613eb3722d53b96613",
      "to": "0xd85bdcdae4db1faeb8ef93331525fe68d7c8b3f0",
      "cumulativeGasUsed": "0x5384",
      "gasUsed": "0x5384",
      "contractAddress": null,
      "logs": [],
      "status": "0x1",
      "logsBloom": "0x00000000000000000000000000000000000000000000000000000000000000000000000000000000000000000000000000000000000000000000000000000000000000000000000000000000000000000000000000000000000000000000000000000000000000000000000000000000000000000000000000000000000000000000000000000000000000000000000000000000000000000000000000000000000000000000000000000000000000000000000000000000000000000000000000000000000000000000000000000000000000000000000000000000000000000000000000000000000000000000000000000000000000000000000000000000",
      "type": "0x0",
      "effectiveGasPrice": "0x5f5e100"
    },
    {
      "transactionHash": "0x38069d2db90f10392a0be936ae7933ec5422b577f25eb8ab717dd93f543dc25e",
      "transactionIndex": "0x1",
      "blockHash": "0xcd9e64b77ae5a0687579c67eeaed78b589ad99e64bdcb26da91e067474b89012",
      "blockNumber": "0xe1bcb4",
      "from": "0xfb0a3a93e9acd461747e7d613eb3722d53b96613",
      "to": "0xc7f2cf4845c6db0e1a1e91ed41bcd0fcc1b0e141",
      "cumulativeGasUsed": "0x59d4",
      "gasUsed": "0x59d4",
      "contractAddress": null,
      "logs": [],
      "status": "0x1",
      "logsBloom": "0x00000000000000000000000000000000000000000000000000000000000000000000000000000000000000000000000000000000000000000000000000000000000000000000000000000000000000000000000000000000000000000000000000000000000000000000000000000000000000000000000000000000000000000000000000000000000000000000000000000000000000000000000000000000000000000000000000000000000000000000000000000000000000000000000000000000000000000000000000000000000000000000000000000000000000000000000000000000000000000000000000000000000000000000000000000000",
      "type": "0x0",
      "effectiveGasPrice": "0x5f5e100"
    },
    {
      "transactionHash": "0x23c669b316a44407963f882e17fcc11e73a18c40238fe5adaa0d6fb818397da7",
      "transactionIndex": "0x1",
      "blockHash": "0xea959a6c0193bc5fbaa7c28de1acd1bf8a4b2d2e123838d9d853c152ceca89e1",
      "blockNumber": "0xe1bcbe",
      "from": "0xfb0a3a93e9acd461747e7d613eb3722d53b96613",
      "to": "0xd85bdcdae4db1faeb8ef93331525fe68d7c8b3f0",
      "cumulativeGasUsed": "0x5384",
      "gasUsed": "0x5384",
      "contractAddress": null,
      "logs": [],
      "status": "0x1",
      "logsBloom": "0x00000000000000000000000000000000000000000000000000000000000000000000000000000000000000000000000000000000000000000000000000000000000000000000000000000000000000000000000000000000000000000000000000000000000000000000000000000000000000000000000000000000000000000000000000000000000000000000000000000000000000000000000000000000000000000000000000000000000000000000000000000000000000000000000000000000000000000000000000000000000000000000000000000000000000000000000000000000000000000000000000000000000000000000000000000000",
      "type": "0x0",
      "effectiveGasPrice": "0x5f5e100"
    },
    {
      "transactionHash": "0x3f7200a51021f9c231d855673d892c1f398ec8f0d3534bb9bc595e0ae9a0dcd8",
      "transactionIndex": "0x1",
      "blockHash": "0x207992897f66c7138978e327381126b92eb4b283a2be5aaf8968a0813740aa51",
      "blockNumber": "0xe1bcc7",
      "from": "0xfb0a3a93e9acd461747e7d613eb3722d53b96613",
      "to": "0xc7f2cf4845c6db0e1a1e91ed41bcd0fcc1b0e141",
      "cumulativeGasUsed": "0x59d4",
      "gasUsed": "0x59d4",
      "contractAddress": null,
      "logs": [],
      "status": "0x1",
      "logsBloom": "0x00000000000000000000000000000000000000000000000000000000000000000000000000000000000000000000000000000000000000000000000000000000000000000000000000000000000000000000000000000000000000000000000000000000000000000000000000000000000000000000000000000000000000000000000000000000000000000000000000000000000000000000000000000000000000000000000000000000000000000000000000000000000000000000000000000000000000000000000000000000000000000000000000000000000000000000000000000000000000000000000000000000000000000000000000000000",
      "type": "0x0",
      "effectiveGasPrice": "0x5f5e100"
    },
    {
      "transactionHash": "0xf70e8d68359c62eb1caaebbccfc340f2b270f7c41edaf49b40f6c14636e89907",
      "transactionIndex": "0x1",
      "blockHash": "0xadd19a6e525b7adecbb98dc271b704234534e2241dedf6c09a27a7cf6f343c84",
      "blockNumber": "0xe1bcd1",
      "from": "0xfb0a3a93e9acd461747e7d613eb3722d53b96613",
      "to": "0xd85bdcdae4db1faeb8ef93331525fe68d7c8b3f0",
      "cumulativeGasUsed": "0x5384",
      "gasUsed": "0x5384",
      "contractAddress": null,
      "logs": [],
      "status": "0x1",
      "logsBloom": "0x00000000000000000000000000000000000000000000000000000000000000000000000000000000000000000000000000000000000000000000000000000000000000000000000000000000000000000000000000000000000000000000000000000000000000000000000000000000000000000000000000000000000000000000000000000000000000000000000000000000000000000000000000000000000000000000000000000000000000000000000000000000000000000000000000000000000000000000000000000000000000000000000000000000000000000000000000000000000000000000000000000000000000000000000000000000",
      "type": "0x0",
      "effectiveGasPrice": "0x5f5e100"
    },
    {
      "transactionHash": "0xdc369fffe928f06faa2c57d5c860218e999d31a51a8247e40eef82d6925a1b09",
      "transactionIndex": "0x1",
      "blockHash": "0x54a5cafc60d2521c974cbbfe1e98d723bc25267a33a1cda66b9c90f1b0cfdad2",
      "blockNumber": "0xe1bcd9",
      "from": "0xfb0a3a93e9acd461747e7d613eb3722d53b96613",
      "to": "0xc7f2cf4845c6db0e1a1e91ed41bcd0fcc1b0e141",
      "cumulativeGasUsed": "0x59d4",
      "gasUsed": "0x59d4",
      "contractAddress": null,
      "logs": [],
      "status": "0x1",
      "logsBloom": "0x00000000000000000000000000000000000000000000000000000000000000000000000000000000000000000000000000000000000000000000000000000000000000000000000000000000000000000000000000000000000000000000000000000000000000000000000000000000000000000000000000000000000000000000000000000000000000000000000000000000000000000000000000000000000000000000000000000000000000000000000000000000000000000000000000000000000000000000000000000000000000000000000000000000000000000000000000000000000000000000000000000000000000000000000000000000",
      "type": "0x0",
      "effectiveGasPrice": "0x5f5e100"
    },
    {
      "transactionHash": "0xdabde5008b6b1414c5c657c093e23b277579e825add2fac015d13c143e11aff4",
      "transactionIndex": "0x1",
      "blockHash": "0x0639f8bb424d217c370b66b23dd006b3c37a77bcf3c018d391228966c7bfc868",
      "blockNumber": "0xe1bce0",
      "from": "0xfb0a3a93e9acd461747e7d613eb3722d53b96613",
      "to": "0xd85bdcdae4db1faeb8ef93331525fe68d7c8b3f0",
      "cumulativeGasUsed": "0x5384",
      "gasUsed": "0x5384",
      "contractAddress": null,
      "logs": [],
      "status": "0x1",
      "logsBloom": "0x00000000000000000000000000000000000000000000000000000000000000000000000000000000000000000000000000000000000000000000000000000000000000000000000000000000000000000000000000000000000000000000000000000000000000000000000000000000000000000000000000000000000000000000000000000000000000000000000000000000000000000000000000000000000000000000000000000000000000000000000000000000000000000000000000000000000000000000000000000000000000000000000000000000000000000000000000000000000000000000000000000000000000000000000000000000",
      "type": "0x0",
      "effectiveGasPrice": "0x5f5e100"
    },
    {
      "transactionHash": "0x761da10fe2a655b734eeee7051ad125cd2a7af9fb639c25ba64682078cdf36ff",
      "transactionIndex": "0x1",
      "blockHash": "0x952aab887a4282c4349456c0c53f0726aaaf953171250eeb94d244d14b53c79f",
      "blockNumber": "0xe1bce9",
      "from": "0xfb0a3a93e9acd461747e7d613eb3722d53b96613",
      "to": "0xc7f2cf4845c6db0e1a1e91ed41bcd0fcc1b0e141",
      "cumulativeGasUsed": "0x5434",
      "gasUsed": "0x5434",
      "contractAddress": null,
      "logs": [],
      "status": "0x1",
      "logsBloom": "0x00000000000000000000000000000000000000000000000000000000000000000000000000000000000000000000000000000000000000000000000000000000000000000000000000000000000000000000000000000000000000000000000000000000000000000000000000000000000000000000000000000000000000000000000000000000000000000000000000000000000000000000000000000000000000000000000000000000000000000000000000000000000000000000000000000000000000000000000000000000000000000000000000000000000000000000000000000000000000000000000000000000000000000000000000000000",
      "type": "0x0",
      "effectiveGasPrice": "0x5f5e100"
    },
    {
      "transactionHash": "0x185a71690626f2aaafed3e3751a0247fdbcc01bc7f7b52fd6c646062f6dbab1b",
      "transactionIndex": "0x1",
      "blockHash": "0x6365a984bf1c01257b9e710dfe8aedfb08843f3f649ff02e1801dd75a05d1207",
      "blockNumber": "0xe1bced",
      "from": "0xfb0a3a93e9acd461747e7d613eb3722d53b96613",
      "to": "0xd85bdcdae4db1faeb8ef93331525fe68d7c8b3f0",
      "cumulativeGasUsed": "0x5384",
      "gasUsed": "0x5384",
      "contractAddress": null,
      "logs": [],
      "status": "0x1",
      "logsBloom": "0x00000000000000000000000000000000000000000000000000000000000000000000000000000000000000000000000000000000000000000000000000000000000000000000000000000000000000000000000000000000000000000000000000000000000000000000000000000000000000000000000000000000000000000000000000000000000000000000000000000000000000000000000000000000000000000000000000000000000000000000000000000000000000000000000000000000000000000000000000000000000000000000000000000000000000000000000000000000000000000000000000000000000000000000000000000000",
      "type": "0x0",
      "effectiveGasPrice": "0x5f5e100"
    },
    {
      "transactionHash": "0x74f341d1cf5985ba1dec4da65890903d32153f582f45a7729c6682dd35a8d69b",
      "transactionIndex": "0x1",
      "blockHash": "0x77fd0973b4f6dfee470f5b3bdeee6035b17dd140b5f6dc4612842d298adadcd5",
      "blockNumber": "0xe1bcf5",
      "from": "0xfb0a3a93e9acd461747e7d613eb3722d53b96613",
      "to": "0xc7f2cf4845c6db0e1a1e91ed41bcd0fcc1b0e141",
      "cumulativeGasUsed": "0x5434",
      "gasUsed": "0x5434",
      "contractAddress": null,
      "logs": [],
      "status": "0x1",
      "logsBloom": "0x00000000000000000000000000000000000000000000000000000000000000000000000000000000000000000000000000000000000000000000000000000000000000000000000000000000000000000000000000000000000000000000000000000000000000000000000000000000000000000000000000000000000000000000000000000000000000000000000000000000000000000000000000000000000000000000000000000000000000000000000000000000000000000000000000000000000000000000000000000000000000000000000000000000000000000000000000000000000000000000000000000000000000000000000000000000",
      "type": "0x0",
      "effectiveGasPrice": "0x5f5e100"
    },
    {
      "transactionHash": "0x1168691810ae30e2bdfc69ab658a769320f7486df9bca80b0692a685a23a7783",
      "transactionIndex": "0x1",
      "blockHash": "0xc76354537a14b02255fc2560e48f9637f0565b183b6e592d231463f92eacf876",
      "blockNumber": "0xe1bcfc",
      "from": "0xfb0a3a93e9acd461747e7d613eb3722d53b96613",
      "to": "0xd85bdcdae4db1faeb8ef93331525fe68d7c8b3f0",
      "cumulativeGasUsed": "0x5384",
      "gasUsed": "0x5384",
      "contractAddress": null,
      "logs": [],
      "status": "0x1",
      "logsBloom": "0x00000000000000000000000000000000000000000000000000000000000000000000000000000000000000000000000000000000000000000000000000000000000000000000000000000000000000000000000000000000000000000000000000000000000000000000000000000000000000000000000000000000000000000000000000000000000000000000000000000000000000000000000000000000000000000000000000000000000000000000000000000000000000000000000000000000000000000000000000000000000000000000000000000000000000000000000000000000000000000000000000000000000000000000000000000000",
      "type": "0x0",
      "effectiveGasPrice": "0x5f5e100"
    },
    {
      "transactionHash": "0x24fbc597e094bb5c5f72ac91328f6f70acc6aa5d69c0706c7f40f1815f0f19e1",
      "transactionIndex": "0x1",
      "blockHash": "0x75b5a1c342a5f54b81482a1090e117ce1daccf9b15909c673599fba0f94cb2e5",
      "blockNumber": "0xe1bd03",
      "from": "0xfb0a3a93e9acd461747e7d613eb3722d53b96613",
      "to": "0xc7f2cf4845c6db0e1a1e91ed41bcd0fcc1b0e141",
      "cumulativeGasUsed": "0x5434",
      "gasUsed": "0x5434",
      "contractAddress": null,
      "logs": [],
      "status": "0x1",
      "logsBloom": "0x00000000000000000000000000000000000000000000000000000000000000000000000000000000000000000000000000000000000000000000000000000000000000000000000000000000000000000000000000000000000000000000000000000000000000000000000000000000000000000000000000000000000000000000000000000000000000000000000000000000000000000000000000000000000000000000000000000000000000000000000000000000000000000000000000000000000000000000000000000000000000000000000000000000000000000000000000000000000000000000000000000000000000000000000000000000",
      "type": "0x0",
      "effectiveGasPrice": "0x5f5e100"
    },
    {
      "transactionHash": "0x8354f89781b0db3ec15bde87215afe71ead550d910e846dc5d9cb80d71927988",
      "transactionIndex": "0x1",
      "blockHash": "0x3f3b3e28e78767597ed6bc339bc4131b4c387458eb19bb7823038cc8a6a427f0",
      "blockNumber": "0xe1bd0b",
      "from": "0xfb0a3a93e9acd461747e7d613eb3722d53b96613",
      "to": "0xd85bdcdae4db1faeb8ef93331525fe68d7c8b3f0",
      "cumulativeGasUsed": "0x5384",
      "gasUsed": "0x5384",
      "contractAddress": null,
      "logs": [],
      "status": "0x1",
      "logsBloom": "0x00000000000000000000000000000000000000000000000000000000000000000000000000000000000000000000000000000000000000000000000000000000000000000000000000000000000000000000000000000000000000000000000000000000000000000000000000000000000000000000000000000000000000000000000000000000000000000000000000000000000000000000000000000000000000000000000000000000000000000000000000000000000000000000000000000000000000000000000000000000000000000000000000000000000000000000000000000000000000000000000000000000000000000000000000000000",
      "type": "0x0",
      "effectiveGasPrice": "0x5f5e100"
    },
    {
      "transactionHash": "0x70b2a46b66e21fe2134bd34c46f3753afa93f6241a95ae6911f9d9f2429bf3a9",
      "transactionIndex": "0x1",
      "blockHash": "0x49ed0175a1f10de27b0b0df20794f0f2ff9556a116b938d84abed51c13d7bebd",
      "blockNumber": "0xe1bd11",
      "from": "0xfb0a3a93e9acd461747e7d613eb3722d53b96613",
      "to": "0xc7f2cf4845c6db0e1a1e91ed41bcd0fcc1b0e141",
      "cumulativeGasUsed": "0x5434",
      "gasUsed": "0x5434",
      "contractAddress": null,
      "logs": [],
      "status": "0x1",
      "logsBloom": "0x00000000000000000000000000000000000000000000000000000000000000000000000000000000000000000000000000000000000000000000000000000000000000000000000000000000000000000000000000000000000000000000000000000000000000000000000000000000000000000000000000000000000000000000000000000000000000000000000000000000000000000000000000000000000000000000000000000000000000000000000000000000000000000000000000000000000000000000000000000000000000000000000000000000000000000000000000000000000000000000000000000000000000000000000000000000",
      "type": "0x0",
      "effectiveGasPrice": "0x5f5e100"
    },
    {
      "transactionHash": "0x84c67fe48c33e13357020e879cb12d3e4aa3852e36783254b342e5c0a76c8b7f",
      "transactionIndex": "0x1",
      "blockHash": "0x7ae5c4a424ea6987a9ce1f94c0e21a9f98093e7debb8ca8b10c358535e41109d",
      "blockNumber": "0xe1bd17",
      "from": "0xfb0a3a93e9acd461747e7d613eb3722d53b96613",
      "to": "0xd85bdcdae4db1faeb8ef93331525fe68d7c8b3f0",
      "cumulativeGasUsed": "0x5384",
      "gasUsed": "0x5384",
      "contractAddress": null,
      "logs": [],
      "status": "0x1",
      "logsBloom": "0x00000000000000000000000000000000000000000000000000000000000000000000000000000000000000000000000000000000000000000000000000000000000000000000000000000000000000000000000000000000000000000000000000000000000000000000000000000000000000000000000000000000000000000000000000000000000000000000000000000000000000000000000000000000000000000000000000000000000000000000000000000000000000000000000000000000000000000000000000000000000000000000000000000000000000000000000000000000000000000000000000000000000000000000000000000000",
      "type": "0x0",
      "effectiveGasPrice": "0x5f5e100"
    },
    {
      "transactionHash": "0xeb161584738024d340320167cbe9ffc0e0b73492385492b66a100e0ef280b6c6",
      "transactionIndex": "0x1",
      "blockHash": "0x6e605449a5634cc35ffe485c78cff55f6a5c86fddd313d3361e96da872ec6ad8",
      "blockNumber": "0xe1bd1b",
      "from": "0xfb0a3a93e9acd461747e7d613eb3722d53b96613",
      "to": "0xc7f2cf4845c6db0e1a1e91ed41bcd0fcc1b0e141",
      "cumulativeGasUsed": "0x5434",
      "gasUsed": "0x5434",
      "contractAddress": null,
      "logs": [],
      "status": "0x1",
      "logsBloom": "0x00000000000000000000000000000000000000000000000000000000000000000000000000000000000000000000000000000000000000000000000000000000000000000000000000000000000000000000000000000000000000000000000000000000000000000000000000000000000000000000000000000000000000000000000000000000000000000000000000000000000000000000000000000000000000000000000000000000000000000000000000000000000000000000000000000000000000000000000000000000000000000000000000000000000000000000000000000000000000000000000000000000000000000000000000000000",
      "type": "0x0",
      "effectiveGasPrice": "0x5f5e100"
    },
    {
      "transactionHash": "0x5c86d1023c201355a2d60058aa07cde6a7ef0614f87d76158d18fc5c77a45c9b",
      "transactionIndex": "0x1",
      "blockHash": "0x22680a79d1456fea0555f5cee7990adfedc86f436edefeada6dc634de8b0fecf",
      "blockNumber": "0xe1bd24",
      "from": "0xfb0a3a93e9acd461747e7d613eb3722d53b96613",
      "to": "0xd85bdcdae4db1faeb8ef93331525fe68d7c8b3f0",
      "cumulativeGasUsed": "0x5384",
      "gasUsed": "0x5384",
      "contractAddress": null,
      "logs": [],
      "status": "0x1",
      "logsBloom": "0x00000000000000000000000000000000000000000000000000000000000000000000000000000000000000000000000000000000000000000000000000000000000000000000000000000000000000000000000000000000000000000000000000000000000000000000000000000000000000000000000000000000000000000000000000000000000000000000000000000000000000000000000000000000000000000000000000000000000000000000000000000000000000000000000000000000000000000000000000000000000000000000000000000000000000000000000000000000000000000000000000000000000000000000000000000000",
      "type": "0x0",
      "effectiveGasPrice": "0x5f5e100"
    },
    {
      "transactionHash": "0x0d24a0309004d2422e10c0801882fa403ad74440a2eeb7948baff4a1c577678d",
      "transactionIndex": "0x1",
      "blockHash": "0x1e65acc4f398c96b083186516e44bb5cfd551391ca31e0a00135413eb40d20da",
      "blockNumber": "0xe1bd28",
      "from": "0xfb0a3a93e9acd461747e7d613eb3722d53b96613",
      "to": "0xc7f2cf4845c6db0e1a1e91ed41bcd0fcc1b0e141",
      "cumulativeGasUsed": "0x5434",
      "gasUsed": "0x5434",
      "contractAddress": null,
      "logs": [],
      "status": "0x1",
      "logsBloom": "0x00000000000000000000000000000000000000000000000000000000000000000000000000000000000000000000000000000000000000000000000000000000000000000000000000000000000000000000000000000000000000000000000000000000000000000000000000000000000000000000000000000000000000000000000000000000000000000000000000000000000000000000000000000000000000000000000000000000000000000000000000000000000000000000000000000000000000000000000000000000000000000000000000000000000000000000000000000000000000000000000000000000000000000000000000000000",
      "type": "0x0",
      "effectiveGasPrice": "0x5f5e100"
    },
    {
      "transactionHash": "0x362049ab78046f139046bbefca669016ece1156e80e666b666f1199fec40c83b",
      "transactionIndex": "0x1",
      "blockHash": "0xadf26c14dee918e572963734331611f1f90fd873ba29d0b1e08c4d7844dfb432",
      "blockNumber": "0xe1bd30",
      "from": "0xfb0a3a93e9acd461747e7d613eb3722d53b96613",
      "to": "0xd85bdcdae4db1faeb8ef93331525fe68d7c8b3f0",
      "cumulativeGasUsed": "0x5384",
      "gasUsed": "0x5384",
      "contractAddress": null,
      "logs": [],
      "status": "0x1",
      "logsBloom": "0x00000000000000000000000000000000000000000000000000000000000000000000000000000000000000000000000000000000000000000000000000000000000000000000000000000000000000000000000000000000000000000000000000000000000000000000000000000000000000000000000000000000000000000000000000000000000000000000000000000000000000000000000000000000000000000000000000000000000000000000000000000000000000000000000000000000000000000000000000000000000000000000000000000000000000000000000000000000000000000000000000000000000000000000000000000000",
      "type": "0x0",
      "effectiveGasPrice": "0x5f5e100"
    }
  ],
  "libraries": [],
  "pending": [],
  "path": "/home/miguelbits/Desktop/Y2K/EARTHQUAKE/broadcast/DeployRinkeby.s.sol/421611/run-latest.json",
  "returns": {},
  "timestamp": 1661517528
}