{
  "transactions": [
    {
      "hash": "0x56ee30c59b7da8d3f0f8a2d6325280a0aa1e8eb5d2e64183283970fca3412daa",
      "transactionType": "CALL",
      "contractName": "VaultFactory",
      "contractAddress": "0xc7f2cf4845c6db0e1a1e91ed41bcd0fcc1b0e141",
      "function": "createNewMarket(uint256,address,int256,uint256,uint256,address,string):(address,address)",
      "arguments": [
        "32",
        "01be23585060835e02b77ef475b0cc51aa1e0709",
        "63",
        "6314632f",
        "633558af",
        "5f0423b1a6935dc5596e7a24d98532b67a0aefd8",
        "y2kUSDC_99*SET"
      ],
      "transaction": {
        "type": "0x00",
        "from": "0xfb0a3a93e9acd461747e7d613eb3722d53b96613",
        "to": "0xc7f2cf4845c6db0e1a1e91ed41bcd0fcc1b0e141",
        "gas": "0x74d6",
        "value": "0x0",
        "data": "0x15355d89000000000000000000000000000000000000000000000000000000000000003200000000000000000000000001be23585060835e02b77ef475b0cc51aa1e07090000000000000000000000000000000000000000000000000000000000000063000000000000000000000000000000000000000000000000000000006314632f00000000000000000000000000000000000000000000000000000000633558af0000000000000000000000005f0423b1a6935dc5596e7a24d98532b67a0aefd800000000000000000000000000000000000000000000000000000000000000e0000000000000000000000000000000000000000000000000000000000000000e79326b555344435f39392a534554000000000000000000000000000000000000",
        "nonce": "0x157"
      }
    },
    {
      "hash": "0xe87816e1b95baf3f5e1ce36dc518df3ad559c7d543f3bca1df262ad5fa2437c3",
      "transactionType": "CALL",
      "contractName": "RewardsFactory",
      "contractAddress": "0xd85bdcdae4db1faeb8ef93331525fe68d7c8b3f0",
      "function": "createStakingRewards(uint256,uint256):(address,address)",
      "arguments": [
        "1",
        "633558af"
      ],
      "transaction": {
        "type": "0x00",
        "from": "0xfb0a3a93e9acd461747e7d613eb3722d53b96613",
        "to": "0xd85bdcdae4db1faeb8ef93331525fe68d7c8b3f0",
        "gas": "0x6c92",
        "value": "0x0",
        "data": "0x2acbfaa3000000000000000000000000000000000000000000000000000000000000000100000000000000000000000000000000000000000000000000000000633558af",
        "nonce": "0x158"
      }
    },
    {
      "hash": "0xc6976fe41c24d67cfa786bd17c4e4c8c2133172ec8182c0042f92aa584a07234",
      "transactionType": "CALL",
      "contractName": "VaultFactory",
      "contractAddress": "0xc7f2cf4845c6db0e1a1e91ed41bcd0fcc1b0e141",
      "function": "createNewMarket(uint256,address,int256,uint256,uint256,address,string):(address,address)",
      "arguments": [
        "32",
        "01be23585060835e02b77ef475b0cc51aa1e0709",
        "61",
        "6314632f",
        "633558af",
        "5f0423b1a6935dc5596e7a24d98532b67a0aefd8",
        "y2kUSDC_97*SET"
      ],
      "transaction": {
        "type": "0x00",
        "from": "0xfb0a3a93e9acd461747e7d613eb3722d53b96613",
        "to": "0xc7f2cf4845c6db0e1a1e91ed41bcd0fcc1b0e141",
        "gas": "0x74d6",
        "value": "0x0",
        "data": "0x15355d89000000000000000000000000000000000000000000000000000000000000003200000000000000000000000001be23585060835e02b77ef475b0cc51aa1e07090000000000000000000000000000000000000000000000000000000000000061000000000000000000000000000000000000000000000000000000006314632f00000000000000000000000000000000000000000000000000000000633558af0000000000000000000000005f0423b1a6935dc5596e7a24d98532b67a0aefd800000000000000000000000000000000000000000000000000000000000000e0000000000000000000000000000000000000000000000000000000000000000e79326b555344435f39372a534554000000000000000000000000000000000000",
        "nonce": "0x159"
      }
    },
    {
      "hash": "0x487854522a1ce50e30d797abe8e967d871f764ac1e8a444b27ebafff05a843c5",
      "transactionType": "CALL",
      "contractName": "RewardsFactory",
      "contractAddress": "0xd85bdcdae4db1faeb8ef93331525fe68d7c8b3f0",
      "function": "createStakingRewards(uint256,uint256):(address,address)",
      "arguments": [
        "2",
        "633558af"
      ],
      "transaction": {
        "type": "0x00",
        "from": "0xfb0a3a93e9acd461747e7d613eb3722d53b96613",
        "to": "0xd85bdcdae4db1faeb8ef93331525fe68d7c8b3f0",
        "gas": "0x6c92",
        "value": "0x0",
        "data": "0x2acbfaa3000000000000000000000000000000000000000000000000000000000000000200000000000000000000000000000000000000000000000000000000633558af",
        "nonce": "0x15a"
      }
    },
    {
      "hash": "0x1c89b8ae406859071f8054b780e1c9c620e71e28f39bf05ba5dabf7b480f805a",
      "transactionType": "CALL",
      "contractName": "VaultFactory",
      "contractAddress": "0xc7f2cf4845c6db0e1a1e91ed41bcd0fcc1b0e141",
      "function": "createNewMarket(uint256,address,int256,uint256,uint256,address,string):(address,address)",
      "arguments": [
        "32",
        "01be23585060835e02b77ef475b0cc51aa1e0709",
        "5f",
        "6314632f",
        "633558af",
        "5f0423b1a6935dc5596e7a24d98532b67a0aefd8",
        "y2kUSDC_95*SET"
      ],
      "transaction": {
        "type": "0x00",
        "from": "0xfb0a3a93e9acd461747e7d613eb3722d53b96613",
        "to": "0xc7f2cf4845c6db0e1a1e91ed41bcd0fcc1b0e141",
        "gas": "0x74d6",
        "value": "0x0",
        "data": "0x15355d89000000000000000000000000000000000000000000000000000000000000003200000000000000000000000001be23585060835e02b77ef475b0cc51aa1e0709000000000000000000000000000000000000000000000000000000000000005f000000000000000000000000000000000000000000000000000000006314632f00000000000000000000000000000000000000000000000000000000633558af0000000000000000000000005f0423b1a6935dc5596e7a24d98532b67a0aefd800000000000000000000000000000000000000000000000000000000000000e0000000000000000000000000000000000000000000000000000000000000000e79326b555344435f39352a534554000000000000000000000000000000000000",
        "nonce": "0x15b"
      }
    },
    {
      "hash": "0x85e8452f6d52efdf45896393b5fa81a3c39ca27e46db91809ca58226d6a4083f",
      "transactionType": "CALL",
      "contractName": "RewardsFactory",
      "contractAddress": "0xd85bdcdae4db1faeb8ef93331525fe68d7c8b3f0",
      "function": "createStakingRewards(uint256,uint256):(address,address)",
      "arguments": [
        "3",
        "633558af"
      ],
      "transaction": {
        "type": "0x00",
        "from": "0xfb0a3a93e9acd461747e7d613eb3722d53b96613",
        "to": "0xd85bdcdae4db1faeb8ef93331525fe68d7c8b3f0",
        "gas": "0x6c92",
        "value": "0x0",
        "data": "0x2acbfaa3000000000000000000000000000000000000000000000000000000000000000300000000000000000000000000000000000000000000000000000000633558af",
        "nonce": "0x15c"
      }
    },
    {
      "hash": "0xb51f041ae75344afdb6cf09d003d2ef092d45e614952c8664a5bd73e733dcf52",
      "transactionType": "CALL",
      "contractName": "VaultFactory",
      "contractAddress": "0xc7f2cf4845c6db0e1a1e91ed41bcd0fcc1b0e141",
      "function": "createNewMarket(uint256,address,int256,uint256,uint256,address,string):(address,address)",
      "arguments": [
        "32",
        "4dcf5ac4509888714dd43a5ccc46d7ab389d9c23",
        "63",
        "6314632f",
        "633558af",
        "3e3546c6b5689f7eaa1ba7bc9571322c3168d786",
        "y2kDAI_99*SET"
      ],
      "transaction": {
        "type": "0x00",
        "from": "0xfb0a3a93e9acd461747e7d613eb3722d53b96613",
        "to": "0xc7f2cf4845c6db0e1a1e91ed41bcd0fcc1b0e141",
        "gas": "0x74c6",
        "value": "0x0",
        "data": "0x15355d8900000000000000000000000000000000000000000000000000000000000000320000000000000000000000004dcf5ac4509888714dd43a5ccc46d7ab389d9c230000000000000000000000000000000000000000000000000000000000000063000000000000000000000000000000000000000000000000000000006314632f00000000000000000000000000000000000000000000000000000000633558af0000000000000000000000003e3546c6b5689f7eaa1ba7bc9571322c3168d78600000000000000000000000000000000000000000000000000000000000000e0000000000000000000000000000000000000000000000000000000000000000d79326b4441495f39392a53455400000000000000000000000000000000000000",
        "nonce": "0x15d"
      }
    },
    {
      "hash": "0xfd98ff6ab4c058acdd02330d7025c6ab3bbbb652fac95dfe12b37cb836df8d12",
      "transactionType": "CALL",
      "contractName": "RewardsFactory",
      "contractAddress": "0xd85bdcdae4db1faeb8ef93331525fe68d7c8b3f0",
      "function": "createStakingRewards(uint256,uint256):(address,address)",
      "arguments": [
        "4",
        "633558af"
      ],
      "transaction": {
        "type": "0x00",
        "from": "0xfb0a3a93e9acd461747e7d613eb3722d53b96613",
        "to": "0xd85bdcdae4db1faeb8ef93331525fe68d7c8b3f0",
        "gas": "0x6c92",
        "value": "0x0",
        "data": "0x2acbfaa3000000000000000000000000000000000000000000000000000000000000000400000000000000000000000000000000000000000000000000000000633558af",
        "nonce": "0x15e"
      }
    },
    {
      "hash": "0xddcbbe9f5788cae81bb82389ffc7bab10bd40be3a06580fac1b84be1ba9710cb",
      "transactionType": "CALL",
      "contractName": "VaultFactory",
      "contractAddress": "0xc7f2cf4845c6db0e1a1e91ed41bcd0fcc1b0e141",
      "function": "createNewMarket(uint256,address,int256,uint256,uint256,address,string):(address,address)",
      "arguments": [
        "32",
        "4dcf5ac4509888714dd43a5ccc46d7ab389d9c23",
        "61",
        "6314632f",
        "633558af",
        "3e3546c6b5689f7eaa1ba7bc9571322c3168d786",
        "y2kDAI_97*SET"
      ],
      "transaction": {
        "type": "0x00",
        "from": "0xfb0a3a93e9acd461747e7d613eb3722d53b96613",
        "to": "0xc7f2cf4845c6db0e1a1e91ed41bcd0fcc1b0e141",
        "gas": "0x74c6",
        "value": "0x0",
        "data": "0x15355d8900000000000000000000000000000000000000000000000000000000000000320000000000000000000000004dcf5ac4509888714dd43a5ccc46d7ab389d9c230000000000000000000000000000000000000000000000000000000000000061000000000000000000000000000000000000000000000000000000006314632f00000000000000000000000000000000000000000000000000000000633558af0000000000000000000000003e3546c6b5689f7eaa1ba7bc9571322c3168d78600000000000000000000000000000000000000000000000000000000000000e0000000000000000000000000000000000000000000000000000000000000000d79326b4441495f39372a53455400000000000000000000000000000000000000",
        "nonce": "0x15f"
      }
    },
    {
      "hash": "0x5896dd4d4af45c82e8995447f17e77226c29e821f4bc39936f6a670c352e1b68",
      "transactionType": "CALL",
      "contractName": "RewardsFactory",
      "contractAddress": "0xd85bdcdae4db1faeb8ef93331525fe68d7c8b3f0",
      "function": "createStakingRewards(uint256,uint256):(address,address)",
      "arguments": [
        "5",
        "633558af"
      ],
      "transaction": {
        "type": "0x00",
        "from": "0xfb0a3a93e9acd461747e7d613eb3722d53b96613",
        "to": "0xd85bdcdae4db1faeb8ef93331525fe68d7c8b3f0",
        "gas": "0x6c92",
        "value": "0x0",
        "data": "0x2acbfaa3000000000000000000000000000000000000000000000000000000000000000500000000000000000000000000000000000000000000000000000000633558af",
        "nonce": "0x160"
      }
    },
    {
      "hash": "0x6fba9ecb374ede6acee104ed97b25c166dc95ba8a52427d64dcfbd2e07541c43",
      "transactionType": "CALL",
      "contractName": "VaultFactory",
      "contractAddress": "0xc7f2cf4845c6db0e1a1e91ed41bcd0fcc1b0e141",
      "function": "createNewMarket(uint256,address,int256,uint256,uint256,address,string):(address,address)",
      "arguments": [
        "32",
        "4dcf5ac4509888714dd43a5ccc46d7ab389d9c23",
        "5f",
        "6314632f",
        "633558af",
        "3e3546c6b5689f7eaa1ba7bc9571322c3168d786",
        "y2kDAI_95*SET"
      ],
      "transaction": {
        "type": "0x00",
        "from": "0xfb0a3a93e9acd461747e7d613eb3722d53b96613",
        "to": "0xc7f2cf4845c6db0e1a1e91ed41bcd0fcc1b0e141",
        "gas": "0x74c6",
        "value": "0x0",
        "data": "0x15355d8900000000000000000000000000000000000000000000000000000000000000320000000000000000000000004dcf5ac4509888714dd43a5ccc46d7ab389d9c23000000000000000000000000000000000000000000000000000000000000005f000000000000000000000000000000000000000000000000000000006314632f00000000000000000000000000000000000000000000000000000000633558af0000000000000000000000003e3546c6b5689f7eaa1ba7bc9571322c3168d78600000000000000000000000000000000000000000000000000000000000000e0000000000000000000000000000000000000000000000000000000000000000d79326b4441495f39352a53455400000000000000000000000000000000000000",
        "nonce": "0x161"
      }
    },
    {
      "hash": "0x8036144a82ab759eebad20031b50ad68a6383141e011508c2b89cdf94b9a0ef4",
      "transactionType": "CALL",
      "contractName": "RewardsFactory",
      "contractAddress": "0xd85bdcdae4db1faeb8ef93331525fe68d7c8b3f0",
      "function": "createStakingRewards(uint256,uint256):(address,address)",
      "arguments": [
        "6",
        "633558af"
      ],
      "transaction": {
        "type": "0x00",
        "from": "0xfb0a3a93e9acd461747e7d613eb3722d53b96613",
        "to": "0xd85bdcdae4db1faeb8ef93331525fe68d7c8b3f0",
        "gas": "0x6c92",
        "value": "0x0",
        "data": "0x2acbfaa3000000000000000000000000000000000000000000000000000000000000000600000000000000000000000000000000000000000000000000000000633558af",
        "nonce": "0x162"
      }
    },
    {
      "hash": "0x109062120dc4a772095926841fe645f5185db8114a1c10cded749134967cee61",
      "transactionType": "CALL",
      "contractName": "VaultFactory",
      "contractAddress": "0xc7f2cf4845c6db0e1a1e91ed41bcd0fcc1b0e141",
      "function": "deployMoreAssets(uint256,uint256,uint256)",
      "arguments": [
        "1",
        "638b0a2f",
        "639ed0af"
      ],
      "transaction": {
        "type": "0x00",
        "from": "0xfb0a3a93e9acd461747e7d613eb3722d53b96613",
        "to": "0xc7f2cf4845c6db0e1a1e91ed41bcd0fcc1b0e141",
        "gas": "0x6d76",
        "value": "0x0",
        "data": "0x7bb4a17b000000000000000000000000000000000000000000000000000000000000000100000000000000000000000000000000000000000000000000000000638b0a2f00000000000000000000000000000000000000000000000000000000639ed0af",
        "nonce": "0x163"
      }
    },
    {
      "hash": "0xf20868317b5e78f78e5989273286e0af370eac9df09fb46ab7af3e2e5d9ae545",
      "transactionType": "CALL",
      "contractName": "RewardsFactory",
      "contractAddress": "0xd85bdcdae4db1faeb8ef93331525fe68d7c8b3f0",
      "function": "createStakingRewards(uint256,uint256):(address,address)",
      "arguments": [
        "1",
        "639ed0af"
      ],
      "transaction": {
        "type": "0x00",
        "from": "0xfb0a3a93e9acd461747e7d613eb3722d53b96613",
        "to": "0xd85bdcdae4db1faeb8ef93331525fe68d7c8b3f0",
        "gas": "0x6c92",
        "value": "0x0",
        "data": "0x2acbfaa3000000000000000000000000000000000000000000000000000000000000000100000000000000000000000000000000000000000000000000000000639ed0af",
        "nonce": "0x164"
      }
    },
    {
      "hash": "0xe6365b7148f50ce5167020c53ad978ed38b54bd9fcbd4c691d4f2c236883342d",
      "transactionType": "CALL",
      "contractName": "VaultFactory",
      "contractAddress": "0xc7f2cf4845c6db0e1a1e91ed41bcd0fcc1b0e141",
      "function": "deployMoreAssets(uint256,uint256,uint256)",
      "arguments": [
        "2",
        "638b0a2f",
        "639ed0af"
      ],
      "transaction": {
        "type": "0x00",
        "from": "0xfb0a3a93e9acd461747e7d613eb3722d53b96613",
        "to": "0xc7f2cf4845c6db0e1a1e91ed41bcd0fcc1b0e141",
        "gas": "0x6d76",
        "value": "0x0",
        "data": "0x7bb4a17b000000000000000000000000000000000000000000000000000000000000000200000000000000000000000000000000000000000000000000000000638b0a2f00000000000000000000000000000000000000000000000000000000639ed0af",
        "nonce": "0x165"
      }
    },
    {
      "hash": "0xd0a7408d36b0eaadcf71b644f2d624aee5640b1ceb929650ffc45ce069f54013",
      "transactionType": "CALL",
      "contractName": "RewardsFactory",
      "contractAddress": "0xd85bdcdae4db1faeb8ef93331525fe68d7c8b3f0",
      "function": "createStakingRewards(uint256,uint256):(address,address)",
      "arguments": [
        "2",
        "639ed0af"
      ],
      "transaction": {
        "type": "0x00",
        "from": "0xfb0a3a93e9acd461747e7d613eb3722d53b96613",
        "to": "0xd85bdcdae4db1faeb8ef93331525fe68d7c8b3f0",
        "gas": "0x6c92",
        "value": "0x0",
        "data": "0x2acbfaa3000000000000000000000000000000000000000000000000000000000000000200000000000000000000000000000000000000000000000000000000639ed0af",
        "nonce": "0x166"
      }
    },
    {
      "hash": "0x4b345f3b1caa9172c4ed71d2bfb5fc887aa5ac0bd54a6079fbd988c72a1d2512",
      "transactionType": "CALL",
      "contractName": "VaultFactory",
      "contractAddress": "0xc7f2cf4845c6db0e1a1e91ed41bcd0fcc1b0e141",
      "function": "deployMoreAssets(uint256,uint256,uint256)",
      "arguments": [
        "3",
        "638b0a2f",
        "639ed0af"
      ],
      "transaction": {
        "type": "0x00",
        "from": "0xfb0a3a93e9acd461747e7d613eb3722d53b96613",
        "to": "0xc7f2cf4845c6db0e1a1e91ed41bcd0fcc1b0e141",
        "gas": "0x6d76",
        "value": "0x0",
        "data": "0x7bb4a17b000000000000000000000000000000000000000000000000000000000000000300000000000000000000000000000000000000000000000000000000638b0a2f00000000000000000000000000000000000000000000000000000000639ed0af",
        "nonce": "0x167"
      }
    },
    {
      "hash": "0xbd1c51e9160e256896336ffc432fc8057b95554b671c31be7dd899bd47a2274c",
      "transactionType": "CALL",
      "contractName": "RewardsFactory",
      "contractAddress": "0xd85bdcdae4db1faeb8ef93331525fe68d7c8b3f0",
      "function": "createStakingRewards(uint256,uint256):(address,address)",
      "arguments": [
        "3",
        "639ed0af"
      ],
      "transaction": {
        "type": "0x00",
        "from": "0xfb0a3a93e9acd461747e7d613eb3722d53b96613",
        "to": "0xd85bdcdae4db1faeb8ef93331525fe68d7c8b3f0",
        "gas": "0x6c92",
        "value": "0x0",
        "data": "0x2acbfaa3000000000000000000000000000000000000000000000000000000000000000300000000000000000000000000000000000000000000000000000000639ed0af",
        "nonce": "0x168"
      }
    },
    {
      "hash": "0x71ac0cc862b8a09045daa5689d254eaedb396c3024ff32cc2d08cd4da9d45588",
      "transactionType": "CALL",
      "contractName": "VaultFactory",
      "contractAddress": "0xc7f2cf4845c6db0e1a1e91ed41bcd0fcc1b0e141",
      "function": "deployMoreAssets(uint256,uint256,uint256)",
      "arguments": [
        "4",
        "638b0a2f",
        "639ed0af"
      ],
      "transaction": {
        "type": "0x00",
        "from": "0xfb0a3a93e9acd461747e7d613eb3722d53b96613",
        "to": "0xc7f2cf4845c6db0e1a1e91ed41bcd0fcc1b0e141",
        "gas": "0x6d76",
        "value": "0x0",
        "data": "0x7bb4a17b000000000000000000000000000000000000000000000000000000000000000400000000000000000000000000000000000000000000000000000000638b0a2f00000000000000000000000000000000000000000000000000000000639ed0af",
        "nonce": "0x169"
      }
    },
    {
      "hash": "0x15f5d56821899cedc9cb7bb979c20aaeb19f07450b84e4f0fbd1d33c14c9ef6a",
      "transactionType": "CALL",
      "contractName": "RewardsFactory",
      "contractAddress": "0xd85bdcdae4db1faeb8ef93331525fe68d7c8b3f0",
      "function": "createStakingRewards(uint256,uint256):(address,address)",
      "arguments": [
        "4",
        "639ed0af"
      ],
      "transaction": {
        "type": "0x00",
        "from": "0xfb0a3a93e9acd461747e7d613eb3722d53b96613",
        "to": "0xd85bdcdae4db1faeb8ef93331525fe68d7c8b3f0",
        "gas": "0x6c92",
        "value": "0x0",
        "data": "0x2acbfaa3000000000000000000000000000000000000000000000000000000000000000400000000000000000000000000000000000000000000000000000000639ed0af",
        "nonce": "0x16a"
      }
    },
    {
      "hash": "0xae431c73f88f180bcb354ee5da6bf3c6311e76ce9314143369941ca345e6e7f1",
      "transactionType": "CALL",
      "contractName": "VaultFactory",
      "contractAddress": "0xc7f2cf4845c6db0e1a1e91ed41bcd0fcc1b0e141",
      "function": "deployMoreAssets(uint256,uint256,uint256)",
      "arguments": [
        "5",
        "638b0a2f",
        "639ed0af"
      ],
      "transaction": {
        "type": "0x00",
        "from": "0xfb0a3a93e9acd461747e7d613eb3722d53b96613",
        "to": "0xc7f2cf4845c6db0e1a1e91ed41bcd0fcc1b0e141",
        "gas": "0x6d76",
        "value": "0x0",
        "data": "0x7bb4a17b000000000000000000000000000000000000000000000000000000000000000500000000000000000000000000000000000000000000000000000000638b0a2f00000000000000000000000000000000000000000000000000000000639ed0af",
        "nonce": "0x16b"
      }
    },
    {
      "hash": "0xb3cbe75140f118a0cbe299cd661d7e47ddbed67d50aa061088c9478300209679",
      "transactionType": "CALL",
      "contractName": "RewardsFactory",
      "contractAddress": "0xd85bdcdae4db1faeb8ef93331525fe68d7c8b3f0",
      "function": "createStakingRewards(uint256,uint256):(address,address)",
      "arguments": [
        "5",
        "639ed0af"
      ],
      "transaction": {
        "type": "0x00",
        "from": "0xfb0a3a93e9acd461747e7d613eb3722d53b96613",
        "to": "0xd85bdcdae4db1faeb8ef93331525fe68d7c8b3f0",
        "gas": "0x6c92",
        "value": "0x0",
        "data": "0x2acbfaa3000000000000000000000000000000000000000000000000000000000000000500000000000000000000000000000000000000000000000000000000639ed0af",
        "nonce": "0x16c"
      }
    },
    {
      "hash": "0x682d4eaa524148d61c2b29e099107d42c827edd1f9618c841732b55d0412c8ac",
      "transactionType": "CALL",
      "contractName": "VaultFactory",
      "contractAddress": "0xc7f2cf4845c6db0e1a1e91ed41bcd0fcc1b0e141",
      "function": "deployMoreAssets(uint256,uint256,uint256)",
      "arguments": [
        "6",
        "638b0a2f",
        "639ed0af"
      ],
      "transaction": {
        "type": "0x00",
        "from": "0xfb0a3a93e9acd461747e7d613eb3722d53b96613",
        "to": "0xc7f2cf4845c6db0e1a1e91ed41bcd0fcc1b0e141",
        "gas": "0x6d76",
        "value": "0x0",
        "data": "0x7bb4a17b000000000000000000000000000000000000000000000000000000000000000600000000000000000000000000000000000000000000000000000000638b0a2f00000000000000000000000000000000000000000000000000000000639ed0af",
        "nonce": "0x16d"
      }
    },
    {
      "hash": "0x8766f68be140d00c93a2ad20520ff00c4d6f05cd6f890c88ff5a32b5d04fc563",
      "transactionType": "CALL",
      "contractName": "RewardsFactory",
      "contractAddress": "0xd85bdcdae4db1faeb8ef93331525fe68d7c8b3f0",
      "function": "createStakingRewards(uint256,uint256):(address,address)",
      "arguments": [
        "6",
        "639ed0af"
      ],
      "transaction": {
        "type": "0x00",
        "from": "0xfb0a3a93e9acd461747e7d613eb3722d53b96613",
        "to": "0xd85bdcdae4db1faeb8ef93331525fe68d7c8b3f0",
        "gas": "0x6c92",
        "value": "0x0",
        "data": "0x2acbfaa3000000000000000000000000000000000000000000000000000000000000000600000000000000000000000000000000000000000000000000000000639ed0af",
        "nonce": "0x16e"
      }
    }
  ],
  "receipts": [
    {
      "transactionHash": "0x56ee30c59b7da8d3f0f8a2d6325280a0aa1e8eb5d2e64183283970fca3412daa",
      "transactionIndex": "0x1",
      "blockHash": "0xe71ad938cc72e12931808f0da97d8d950d33527f3936dfe6bac0b520a32103f3",
      "blockNumber": "0xe49ed4",
      "from": "0xfb0a3a93e9acd461747e7d613eb3722d53b96613",
      "to": "0xc7f2cf4845c6db0e1a1e91ed41bcd0fcc1b0e141",
      "cumulativeGasUsed": "0x59e0",
      "gasUsed": "0x59e0",
      "contractAddress": null,
      "logs": [],
      "status": "0x1",
      "logsBloom": "0x00000000000000000000000000000000000000000000000000000000000000000000000000000000000000000000000000000000000000000000000000000000000000000000000000000000000000000000000000000000000000000000000000000000000000000000000000000000000000000000000000000000000000000000000000000000000000000000000000000000000000000000000000000000000000000000000000000000000000000000000000000000000000000000000000000000000000000000000000000000000000000000000000000000000000000000000000000000000000000000000000000000000000000000000000000000",
      "type": "0x0",
      "effectiveGasPrice": "0x5f5e100"
    },
    {
      "transactionHash": "0xe87816e1b95baf3f5e1ce36dc518df3ad559c7d543f3bca1df262ad5fa2437c3",
      "transactionIndex": "0x1",
      "blockHash": "0x69042ba948cee26ea3fb6ddd5fdd1ef00f2ca9f780fb108ae752b967e8a8cb89",
      "blockNumber": "0xe49ed8",
      "from": "0xfb0a3a93e9acd461747e7d613eb3722d53b96613",
      "to": "0xd85bdcdae4db1faeb8ef93331525fe68d7c8b3f0",
      "cumulativeGasUsed": "0x5384",
      "gasUsed": "0x5384",
      "contractAddress": null,
      "logs": [],
      "status": "0x1",
      "logsBloom": "0x00000000000000000000000000000000000000000000000000000000000000000000000000000000000000000000000000000000000000000000000000000000000000000000000000000000000000000000000000000000000000000000000000000000000000000000000000000000000000000000000000000000000000000000000000000000000000000000000000000000000000000000000000000000000000000000000000000000000000000000000000000000000000000000000000000000000000000000000000000000000000000000000000000000000000000000000000000000000000000000000000000000000000000000000000000000",
      "type": "0x0",
      "effectiveGasPrice": "0x5f5e100"
    },
    {
      "transactionHash": "0xc6976fe41c24d67cfa786bd17c4e4c8c2133172ec8182c0042f92aa584a07234",
      "transactionIndex": "0x1",
      "blockHash": "0xcf7c5aa11627565f5b85279ae248a2155aef0cccebfadf39b0ecaf3d8f121976",
      "blockNumber": "0xe49edd",
      "from": "0xfb0a3a93e9acd461747e7d613eb3722d53b96613",
      "to": "0xc7f2cf4845c6db0e1a1e91ed41bcd0fcc1b0e141",
      "cumulativeGasUsed": "0x59e0",
      "gasUsed": "0x59e0",
      "contractAddress": null,
      "logs": [],
      "status": "0x1",
      "logsBloom": "0x00000000000000000000000000000000000000000000000000000000000000000000000000000000000000000000000000000000000000000000000000000000000000000000000000000000000000000000000000000000000000000000000000000000000000000000000000000000000000000000000000000000000000000000000000000000000000000000000000000000000000000000000000000000000000000000000000000000000000000000000000000000000000000000000000000000000000000000000000000000000000000000000000000000000000000000000000000000000000000000000000000000000000000000000000000000",
      "type": "0x0",
      "effectiveGasPrice": "0x5f5e100"
    },
    {
      "transactionHash": "0x487854522a1ce50e30d797abe8e967d871f764ac1e8a444b27ebafff05a843c5",
      "transactionIndex": "0x1",
      "blockHash": "0x16974ec46f4c50da57a8175cbdfa257d1c82e2310cd05050df4166cc8695c1ed",
      "blockNumber": "0xe49ee6",
      "from": "0xfb0a3a93e9acd461747e7d613eb3722d53b96613",
      "to": "0xd85bdcdae4db1faeb8ef93331525fe68d7c8b3f0",
      "cumulativeGasUsed": "0x5384",
      "gasUsed": "0x5384",
      "contractAddress": null,
      "logs": [],
      "status": "0x1",
      "logsBloom": "0x00000000000000000000000000000000000000000000000000000000000000000000000000000000000000000000000000000000000000000000000000000000000000000000000000000000000000000000000000000000000000000000000000000000000000000000000000000000000000000000000000000000000000000000000000000000000000000000000000000000000000000000000000000000000000000000000000000000000000000000000000000000000000000000000000000000000000000000000000000000000000000000000000000000000000000000000000000000000000000000000000000000000000000000000000000000",
      "type": "0x0",
      "effectiveGasPrice": "0x5f5e100"
    },
    {
      "transactionHash": "0x1c89b8ae406859071f8054b780e1c9c620e71e28f39bf05ba5dabf7b480f805a",
      "transactionIndex": "0x1",
      "blockHash": "0x8f6131d03d8d460222dd717c5f03b99e8d2e095f691adb815aa903a878af2d0f",
      "blockNumber": "0xe49eeb",
      "from": "0xfb0a3a93e9acd461747e7d613eb3722d53b96613",
      "to": "0xc7f2cf4845c6db0e1a1e91ed41bcd0fcc1b0e141",
      "cumulativeGasUsed": "0x59e0",
      "gasUsed": "0x59e0",
      "contractAddress": null,
      "logs": [],
      "status": "0x1",
      "logsBloom": "0x00000000000000000000000000000000000000000000000000000000000000000000000000000000000000000000000000000000000000000000000000000000000000000000000000000000000000000000000000000000000000000000000000000000000000000000000000000000000000000000000000000000000000000000000000000000000000000000000000000000000000000000000000000000000000000000000000000000000000000000000000000000000000000000000000000000000000000000000000000000000000000000000000000000000000000000000000000000000000000000000000000000000000000000000000000000",
      "type": "0x0",
      "effectiveGasPrice": "0x5f5e100"
    },
    {
      "transactionHash": "0x85e8452f6d52efdf45896393b5fa81a3c39ca27e46db91809ca58226d6a4083f",
      "transactionIndex": "0x1",
      "blockHash": "0x693627878a9c8c381bf03b001dc04a63a307a9929b50273db585b6a32e6b0d74",
      "blockNumber": "0xe49ef0",
      "from": "0xfb0a3a93e9acd461747e7d613eb3722d53b96613",
      "to": "0xd85bdcdae4db1faeb8ef93331525fe68d7c8b3f0",
      "cumulativeGasUsed": "0x5384",
      "gasUsed": "0x5384",
      "contractAddress": null,
      "logs": [],
      "status": "0x1",
      "logsBloom": "0x00000000000000000000000000000000000000000000000000000000000000000000000000000000000000000000000000000000000000000000000000000000000000000000000000000000000000000000000000000000000000000000000000000000000000000000000000000000000000000000000000000000000000000000000000000000000000000000000000000000000000000000000000000000000000000000000000000000000000000000000000000000000000000000000000000000000000000000000000000000000000000000000000000000000000000000000000000000000000000000000000000000000000000000000000000000",
      "type": "0x0",
      "effectiveGasPrice": "0x5f5e100"
    },
    {
      "transactionHash": "0xb51f041ae75344afdb6cf09d003d2ef092d45e614952c8664a5bd73e733dcf52",
      "transactionIndex": "0x1",
      "blockHash": "0x61ef4e9f0a6ddf22ea67f89e5190a2083cd0cc0779c58527eb85c7362b6ef5d7",
      "blockNumber": "0xe49ef6",
      "from": "0xfb0a3a93e9acd461747e7d613eb3722d53b96613",
      "to": "0xc7f2cf4845c6db0e1a1e91ed41bcd0fcc1b0e141",
      "cumulativeGasUsed": "0x59d4",
      "gasUsed": "0x59d4",
      "contractAddress": null,
      "logs": [],
      "status": "0x1",
      "logsBloom": "0x00000000000000000000000000000000000000000000000000000000000000000000000000000000000000000000000000000000000000000000000000000000000000000000000000000000000000000000000000000000000000000000000000000000000000000000000000000000000000000000000000000000000000000000000000000000000000000000000000000000000000000000000000000000000000000000000000000000000000000000000000000000000000000000000000000000000000000000000000000000000000000000000000000000000000000000000000000000000000000000000000000000000000000000000000000000",
      "type": "0x0",
      "effectiveGasPrice": "0x5f5e100"
    },
    {
      "transactionHash": "0xfd98ff6ab4c058acdd02330d7025c6ab3bbbb652fac95dfe12b37cb836df8d12",
      "transactionIndex": "0x1",
      "blockHash": "0x4e1c3ed5b81d427e84f12615899e5730ba356fd3b086370e6818c72ef495ec4c",
      "blockNumber": "0xe49efa",
      "from": "0xfb0a3a93e9acd461747e7d613eb3722d53b96613",
      "to": "0xd85bdcdae4db1faeb8ef93331525fe68d7c8b3f0",
      "cumulativeGasUsed": "0x5384",
      "gasUsed": "0x5384",
      "contractAddress": null,
      "logs": [],
      "status": "0x1",
      "logsBloom": "0x00000000000000000000000000000000000000000000000000000000000000000000000000000000000000000000000000000000000000000000000000000000000000000000000000000000000000000000000000000000000000000000000000000000000000000000000000000000000000000000000000000000000000000000000000000000000000000000000000000000000000000000000000000000000000000000000000000000000000000000000000000000000000000000000000000000000000000000000000000000000000000000000000000000000000000000000000000000000000000000000000000000000000000000000000000000",
      "type": "0x0",
      "effectiveGasPrice": "0x5f5e100"
    },
    {
      "transactionHash": "0xddcbbe9f5788cae81bb82389ffc7bab10bd40be3a06580fac1b84be1ba9710cb",
      "transactionIndex": "0x1",
      "blockHash": "0x644ea176c683108e0343a3119ce41444ed03879ef134dc8ecfafeaf87adb0a95",
      "blockNumber": "0xe49f01",
      "from": "0xfb0a3a93e9acd461747e7d613eb3722d53b96613",
      "to": "0xc7f2cf4845c6db0e1a1e91ed41bcd0fcc1b0e141",
      "cumulativeGasUsed": "0x59d4",
      "gasUsed": "0x59d4",
      "contractAddress": null,
      "logs": [],
      "status": "0x1",
      "logsBloom": "0x00000000000000000000000000000000000000000000000000000000000000000000000000000000000000000000000000000000000000000000000000000000000000000000000000000000000000000000000000000000000000000000000000000000000000000000000000000000000000000000000000000000000000000000000000000000000000000000000000000000000000000000000000000000000000000000000000000000000000000000000000000000000000000000000000000000000000000000000000000000000000000000000000000000000000000000000000000000000000000000000000000000000000000000000000000000",
      "type": "0x0",
      "effectiveGasPrice": "0x5f5e100"
    },
    {
      "transactionHash": "0x5896dd4d4af45c82e8995447f17e77226c29e821f4bc39936f6a670c352e1b68",
      "transactionIndex": "0x1",
      "blockHash": "0xc8e7ddff7c14054fa3d3873c1bcd7668c1f54fa24b1cb4246f52da3864deaf1d",
      "blockNumber": "0xe49f08",
      "from": "0xfb0a3a93e9acd461747e7d613eb3722d53b96613",
      "to": "0xd85bdcdae4db1faeb8ef93331525fe68d7c8b3f0",
      "cumulativeGasUsed": "0x5384",
      "gasUsed": "0x5384",
      "contractAddress": null,
      "logs": [],
      "status": "0x1",
      "logsBloom": "0x00000000000000000000000000000000000000000000000000000000000000000000000000000000000000000000000000000000000000000000000000000000000000000000000000000000000000000000000000000000000000000000000000000000000000000000000000000000000000000000000000000000000000000000000000000000000000000000000000000000000000000000000000000000000000000000000000000000000000000000000000000000000000000000000000000000000000000000000000000000000000000000000000000000000000000000000000000000000000000000000000000000000000000000000000000000",
      "type": "0x0",
      "effectiveGasPrice": "0x5f5e100"
    },
    {
      "transactionHash": "0x6fba9ecb374ede6acee104ed97b25c166dc95ba8a52427d64dcfbd2e07541c43",
      "transactionIndex": "0x1",
      "blockHash": "0x4359ea0d18f24a557f7e6c24a377c4b32278d032aff952cd4053877b1afc90e7",
      "blockNumber": "0xe49f0e",
      "from": "0xfb0a3a93e9acd461747e7d613eb3722d53b96613",
      "to": "0xc7f2cf4845c6db0e1a1e91ed41bcd0fcc1b0e141",
      "cumulativeGasUsed": "0x59d4",
      "gasUsed": "0x59d4",
      "contractAddress": null,
      "logs": [],
      "status": "0x1",
      "logsBloom": "0x00000000000000000000000000000000000000000000000000000000000000000000000000000000000000000000000000000000000000000000000000000000000000000000000000000000000000000000000000000000000000000000000000000000000000000000000000000000000000000000000000000000000000000000000000000000000000000000000000000000000000000000000000000000000000000000000000000000000000000000000000000000000000000000000000000000000000000000000000000000000000000000000000000000000000000000000000000000000000000000000000000000000000000000000000000000",
      "type": "0x0",
      "effectiveGasPrice": "0x5f5e100"
    },
    {
      "transactionHash": "0x8036144a82ab759eebad20031b50ad68a6383141e011508c2b89cdf94b9a0ef4",
      "transactionIndex": "0x1",
      "blockHash": "0xb8c54036ed2a669144c998b48f1fec6040a286ddc19c07f74a6c106d8953ac75",
      "blockNumber": "0xe49f10",
      "from": "0xfb0a3a93e9acd461747e7d613eb3722d53b96613",
      "to": "0xd85bdcdae4db1faeb8ef93331525fe68d7c8b3f0",
      "cumulativeGasUsed": "0x5384",
      "gasUsed": "0x5384",
      "contractAddress": null,
      "logs": [],
      "status": "0x1",
      "logsBloom": "0x00000000000000000000000000000000000000000000000000000000000000000000000000000000000000000000000000000000000000000000000000000000000000000000000000000000000000000000000000000000000000000000000000000000000000000000000000000000000000000000000000000000000000000000000000000000000000000000000000000000000000000000000000000000000000000000000000000000000000000000000000000000000000000000000000000000000000000000000000000000000000000000000000000000000000000000000000000000000000000000000000000000000000000000000000000000",
      "type": "0x0",
      "effectiveGasPrice": "0x5f5e100"
    },
    {
      "transactionHash": "0x109062120dc4a772095926841fe645f5185db8114a1c10cded749134967cee61",
      "transactionIndex": "0x1",
      "blockHash": "0x9fa1b26a31c373213db30a3865db94f2fdc2ccac1792d9d438a5c9cceb5305d2",
      "blockNumber": "0xe49f1d",
      "from": "0xfb0a3a93e9acd461747e7d613eb3722d53b96613",
      "to": "0xc7f2cf4845c6db0e1a1e91ed41bcd0fcc1b0e141",
      "cumulativeGasUsed": "0x5434",
      "gasUsed": "0x5434",
      "contractAddress": null,
      "logs": [],
      "status": "0x1",
      "logsBloom": "0x00000000000000000000000000000000000000000000000000000000000000000000000000000000000000000000000000000000000000000000000000000000000000000000000000000000000000000000000000000000000000000000000000000000000000000000000000000000000000000000000000000000000000000000000000000000000000000000000000000000000000000000000000000000000000000000000000000000000000000000000000000000000000000000000000000000000000000000000000000000000000000000000000000000000000000000000000000000000000000000000000000000000000000000000000000000",
      "type": "0x0",
      "effectiveGasPrice": "0x5f5e100"
    },
    {
      "transactionHash": "0xf20868317b5e78f78e5989273286e0af370eac9df09fb46ab7af3e2e5d9ae545",
      "transactionIndex": "0x1",
      "blockHash": "0x081a0a6d3842b2dee950128c6e474bbb479852696f10dec7e620eeca7b0bef8d",
      "blockNumber": "0xe49f25",
      "from": "0xfb0a3a93e9acd461747e7d613eb3722d53b96613",
      "to": "0xd85bdcdae4db1faeb8ef93331525fe68d7c8b3f0",
      "cumulativeGasUsed": "0x5384",
      "gasUsed": "0x5384",
      "contractAddress": null,
      "logs": [],
      "status": "0x1",
      "logsBloom": "0x00000000000000000000000000000000000000000000000000000000000000000000000000000000000000000000000000000000000000000000000000000000000000000000000000000000000000000000000000000000000000000000000000000000000000000000000000000000000000000000000000000000000000000000000000000000000000000000000000000000000000000000000000000000000000000000000000000000000000000000000000000000000000000000000000000000000000000000000000000000000000000000000000000000000000000000000000000000000000000000000000000000000000000000000000000000",
      "type": "0x0",
      "effectiveGasPrice": "0x5f5e100"
    },
    {
      "transactionHash": "0xe6365b7148f50ce5167020c53ad978ed38b54bd9fcbd4c691d4f2c236883342d",
      "transactionIndex": "0x1",
      "blockHash": "0xde6cead01063e6255ae9f5fa9b084124abefa495c35d96851f364dedfa5c889c",
      "blockNumber": "0xe49f29",
      "from": "0xfb0a3a93e9acd461747e7d613eb3722d53b96613",
      "to": "0xc7f2cf4845c6db0e1a1e91ed41bcd0fcc1b0e141",
      "cumulativeGasUsed": "0x5434",
      "gasUsed": "0x5434",
      "contractAddress": null,
      "logs": [],
      "status": "0x1",
      "logsBloom": "0x00000000000000000000000000000000000000000000000000000000000000000000000000000000000000000000000000000000000000000000000000000000000000000000000000000000000000000000000000000000000000000000000000000000000000000000000000000000000000000000000000000000000000000000000000000000000000000000000000000000000000000000000000000000000000000000000000000000000000000000000000000000000000000000000000000000000000000000000000000000000000000000000000000000000000000000000000000000000000000000000000000000000000000000000000000000",
      "type": "0x0",
      "effectiveGasPrice": "0x5f5e100"
    },
    {
      "transactionHash": "0xd0a7408d36b0eaadcf71b644f2d624aee5640b1ceb929650ffc45ce069f54013",
      "transactionIndex": "0x1",
      "blockHash": "0xdec3ef8aadaace468213d7be2df171cb1e6003e230e07ce2e9faa3036875dc2b",
      "blockNumber": "0xe49f30",
      "from": "0xfb0a3a93e9acd461747e7d613eb3722d53b96613",
      "to": "0xd85bdcdae4db1faeb8ef93331525fe68d7c8b3f0",
      "cumulativeGasUsed": "0x5384",
      "gasUsed": "0x5384",
      "contractAddress": null,
      "logs": [],
      "status": "0x1",
      "logsBloom": "0x00000000000000000000000000000000000000000000000000000000000000000000000000000000000000000000000000000000000000000000000000000000000000000000000000000000000000000000000000000000000000000000000000000000000000000000000000000000000000000000000000000000000000000000000000000000000000000000000000000000000000000000000000000000000000000000000000000000000000000000000000000000000000000000000000000000000000000000000000000000000000000000000000000000000000000000000000000000000000000000000000000000000000000000000000000000",
      "type": "0x0",
      "effectiveGasPrice": "0x5f5e100"
    },
    {
      "transactionHash": "0x4b345f3b1caa9172c4ed71d2bfb5fc887aa5ac0bd54a6079fbd988c72a1d2512",
      "transactionIndex": "0x1",
      "blockHash": "0x280e70d162d168051d635317b67cd86f02e2c3319801ad823ebaab39f82eb1b5",
      "blockNumber": "0xe49f36",
      "from": "0xfb0a3a93e9acd461747e7d613eb3722d53b96613",
      "to": "0xc7f2cf4845c6db0e1a1e91ed41bcd0fcc1b0e141",
      "cumulativeGasUsed": "0x5434",
      "gasUsed": "0x5434",
      "contractAddress": null,
      "logs": [],
      "status": "0x1",
      "logsBloom": "0x00000000000000000000000000000000000000000000000000000000000000000000000000000000000000000000000000000000000000000000000000000000000000000000000000000000000000000000000000000000000000000000000000000000000000000000000000000000000000000000000000000000000000000000000000000000000000000000000000000000000000000000000000000000000000000000000000000000000000000000000000000000000000000000000000000000000000000000000000000000000000000000000000000000000000000000000000000000000000000000000000000000000000000000000000000000",
      "type": "0x0",
      "effectiveGasPrice": "0x5f5e100"
    },
    {
      "transactionHash": "0xbd1c51e9160e256896336ffc432fc8057b95554b671c31be7dd899bd47a2274c",
      "transactionIndex": "0x1",
      "blockHash": "0x282946f0906b888f2c7ea64415c9cdad4c05f729c1a778e2bbddde4dbaf620ee",
      "blockNumber": "0xe49f41",
      "from": "0xfb0a3a93e9acd461747e7d613eb3722d53b96613",
      "to": "0xd85bdcdae4db1faeb8ef93331525fe68d7c8b3f0",
      "cumulativeGasUsed": "0x5384",
      "gasUsed": "0x5384",
      "contractAddress": null,
      "logs": [],
      "status": "0x1",
      "logsBloom": "0x00000000000000000000000000000000000000000000000000000000000000000000000000000000000000000000000000000000000000000000000000000000000000000000000000000000000000000000000000000000000000000000000000000000000000000000000000000000000000000000000000000000000000000000000000000000000000000000000000000000000000000000000000000000000000000000000000000000000000000000000000000000000000000000000000000000000000000000000000000000000000000000000000000000000000000000000000000000000000000000000000000000000000000000000000000000",
      "type": "0x0",
      "effectiveGasPrice": "0x5f5e100"
    },
    {
      "transactionHash": "0x71ac0cc862b8a09045daa5689d254eaedb396c3024ff32cc2d08cd4da9d45588",
      "transactionIndex": "0x1",
      "blockHash": "0xc77d61bbb96277681953ce3778bdf83b42ccf533879290ab8c4dcd90b57bf64e",
      "blockNumber": "0xe49f44",
      "from": "0xfb0a3a93e9acd461747e7d613eb3722d53b96613",
      "to": "0xc7f2cf4845c6db0e1a1e91ed41bcd0fcc1b0e141",
      "cumulativeGasUsed": "0x5434",
      "gasUsed": "0x5434",
      "contractAddress": null,
      "logs": [],
      "status": "0x1",
      "logsBloom": "0x00000000000000000000000000000000000000000000000000000000000000000000000000000000000000000000000000000000000000000000000000000000000000000000000000000000000000000000000000000000000000000000000000000000000000000000000000000000000000000000000000000000000000000000000000000000000000000000000000000000000000000000000000000000000000000000000000000000000000000000000000000000000000000000000000000000000000000000000000000000000000000000000000000000000000000000000000000000000000000000000000000000000000000000000000000000",
      "type": "0x0",
      "effectiveGasPrice": "0x5f5e100"
    },
    {
      "transactionHash": "0x15f5d56821899cedc9cb7bb979c20aaeb19f07450b84e4f0fbd1d33c14c9ef6a",
      "transactionIndex": "0x1",
      "blockHash": "0xdff2bd39b63fcdf0a0a03c4bd41aae230df10fb4f13b981282efc2d24b535b0e",
      "blockNumber": "0xe49f4a",
      "from": "0xfb0a3a93e9acd461747e7d613eb3722d53b96613",
      "to": "0xd85bdcdae4db1faeb8ef93331525fe68d7c8b3f0",
      "cumulativeGasUsed": "0x5384",
      "gasUsed": "0x5384",
      "contractAddress": null,
      "logs": [],
      "status": "0x1",
      "logsBloom": "0x00000000000000000000000000000000000000000000000000000000000000000000000000000000000000000000000000000000000000000000000000000000000000000000000000000000000000000000000000000000000000000000000000000000000000000000000000000000000000000000000000000000000000000000000000000000000000000000000000000000000000000000000000000000000000000000000000000000000000000000000000000000000000000000000000000000000000000000000000000000000000000000000000000000000000000000000000000000000000000000000000000000000000000000000000000000",
      "type": "0x0",
      "effectiveGasPrice": "0x5f5e100"
    },
    {
      "transactionHash": "0xae431c73f88f180bcb354ee5da6bf3c6311e76ce9314143369941ca345e6e7f1",
      "transactionIndex": "0x1",
      "blockHash": "0x233370befb5dbc07745a11b83e06a5b9527b1d72b1050c5c25a75d7322c532f7",
      "blockNumber": "0xe49f51",
      "from": "0xfb0a3a93e9acd461747e7d613eb3722d53b96613",
      "to": "0xc7f2cf4845c6db0e1a1e91ed41bcd0fcc1b0e141",
      "cumulativeGasUsed": "0x5434",
      "gasUsed": "0x5434",
      "contractAddress": null,
      "logs": [],
      "status": "0x1",
      "logsBloom": "0x00000000000000000000000000000000000000000000000000000000000000000000000000000000000000000000000000000000000000000000000000000000000000000000000000000000000000000000000000000000000000000000000000000000000000000000000000000000000000000000000000000000000000000000000000000000000000000000000000000000000000000000000000000000000000000000000000000000000000000000000000000000000000000000000000000000000000000000000000000000000000000000000000000000000000000000000000000000000000000000000000000000000000000000000000000000",
      "type": "0x0",
      "effectiveGasPrice": "0x5f5e100"
    },
    {
      "transactionHash": "0xb3cbe75140f118a0cbe299cd661d7e47ddbed67d50aa061088c9478300209679",
      "transactionIndex": "0x1",
      "blockHash": "0xf9a0205f1080b1ed11181d30f8d5610c52ca4a9d2300bb5940f259ef37c458dc",
      "blockNumber": "0xe49f58",
      "from": "0xfb0a3a93e9acd461747e7d613eb3722d53b96613",
      "to": "0xd85bdcdae4db1faeb8ef93331525fe68d7c8b3f0",
      "cumulativeGasUsed": "0x5384",
      "gasUsed": "0x5384",
      "contractAddress": null,
      "logs": [],
      "status": "0x1",
      "logsBloom": "0x00000000000000000000000000000000000000000000000000000000000000000000000000000000000000000000000000000000000000000000000000000000000000000000000000000000000000000000000000000000000000000000000000000000000000000000000000000000000000000000000000000000000000000000000000000000000000000000000000000000000000000000000000000000000000000000000000000000000000000000000000000000000000000000000000000000000000000000000000000000000000000000000000000000000000000000000000000000000000000000000000000000000000000000000000000000",
      "type": "0x0",
      "effectiveGasPrice": "0x5f5e100"
    },
    {
      "transactionHash": "0x682d4eaa524148d61c2b29e099107d42c827edd1f9618c841732b55d0412c8ac",
      "transactionIndex": "0x1",
      "blockHash": "0xd8d23d39eda10c93cb6475c3f274c3ba16d4f6bc393315e08720c45b2158db71",
      "blockNumber": "0xe49f5b",
      "from": "0xfb0a3a93e9acd461747e7d613eb3722d53b96613",
      "to": "0xc7f2cf4845c6db0e1a1e91ed41bcd0fcc1b0e141",
      "cumulativeGasUsed": "0x5434",
      "gasUsed": "0x5434",
      "contractAddress": null,
      "logs": [],
      "status": "0x1",
      "logsBloom": "0x00000000000000000000000000000000000000000000000000000000000000000000000000000000000000000000000000000000000000000000000000000000000000000000000000000000000000000000000000000000000000000000000000000000000000000000000000000000000000000000000000000000000000000000000000000000000000000000000000000000000000000000000000000000000000000000000000000000000000000000000000000000000000000000000000000000000000000000000000000000000000000000000000000000000000000000000000000000000000000000000000000000000000000000000000000000",
      "type": "0x0",
      "effectiveGasPrice": "0x5f5e100"
    },
    {
      "transactionHash": "0x8766f68be140d00c93a2ad20520ff00c4d6f05cd6f890c88ff5a32b5d04fc563",
      "transactionIndex": "0x1",
      "blockHash": "0x64749e87da29fe822b69e45bc39d95b75d4294ff7526ee71767a8453eb58f913",
      "blockNumber": "0xe49f63",
      "from": "0xfb0a3a93e9acd461747e7d613eb3722d53b96613",
      "to": "0xd85bdcdae4db1faeb8ef93331525fe68d7c8b3f0",
      "cumulativeGasUsed": "0x5384",
      "gasUsed": "0x5384",
      "contractAddress": null,
      "logs": [],
      "status": "0x1",
      "logsBloom": "0x00000000000000000000000000000000000000000000000000000000000000000000000000000000000000000000000000000000000000000000000000000000000000000000000000000000000000000000000000000000000000000000000000000000000000000000000000000000000000000000000000000000000000000000000000000000000000000000000000000000000000000000000000000000000000000000000000000000000000000000000000000000000000000000000000000000000000000000000000000000000000000000000000000000000000000000000000000000000000000000000000000000000000000000000000000000",
      "type": "0x0",
      "effectiveGasPrice": "0x5f5e100"
    }
  ],
  "libraries": [],
  "pending": [],
  "path": "/home/miguelbits/Desktop/Y2K/EARTHQUAKE/broadcast/DeployRinkeby.s.sol/421611/run-latest.json",
  "returns": {},
  "timestamp": 1661848711
}