{
  "transactions": [
    {
      "hash": null,
      "transactionType": "CALL",
      "contractName": "VaultFactory",
      "contractAddress": "0xc7f2cf4845c6db0e1a1e91ed41bcd0fcc1b0e141",
      "function": "createNewMarket(uint256,address,int256,uint256,uint256,address,string):(address,address)",
      "arguments": [
        "32",
        "01be23585060835e02b77ef475b0cc51aa1e0709",
        "63",
        "630b5f99",
        "63304999",
        "5f0423b1a6935dc5596e7a24d98532b67a0aefd8",
        "y2kUSDC_99*SET"
      ],
      "transaction": {
        "type": "0x00",
        "from": "0xfb0a3a93e9acd461747e7d613eb3722d53b96613",
        "to": "0xc7f2cf4845c6db0e1a1e91ed41bcd0fcc1b0e141",
        "gas": "0x74d6",
        "value": "0x0",
        "data": "0x15355d89000000000000000000000000000000000000000000000000000000000000003200000000000000000000000001be23585060835e02b77ef475b0cc51aa1e0709000000000000000000000000000000000000000000000000000000000000006300000000000000000000000000000000000000000000000000000000630b5f9900000000000000000000000000000000000000000000000000000000633049990000000000000000000000005f0423b1a6935dc5596e7a24d98532b67a0aefd800000000000000000000000000000000000000000000000000000000000000e0000000000000000000000000000000000000000000000000000000000000000e79326b555344435f39392a534554000000000000000000000000000000000000",
        "nonce": "0x127"
      }
    },
    {
      "hash": null,
      "transactionType": "CALL",
      "contractName": "RewardsFactory",
      "contractAddress": "0xd85bdcdae4db1faeb8ef93331525fe68d7c8b3f0",
      "function": "createStakingRewards(uint256,uint256):(address,address)",
      "arguments": [
        "1",
        "63304999"
      ],
      "transaction": {
        "type": "0x00",
        "from": "0xfb0a3a93e9acd461747e7d613eb3722d53b96613",
        "to": "0xd85bdcdae4db1faeb8ef93331525fe68d7c8b3f0",
        "gas": "0x6c92",
        "value": "0x0",
        "data": "0x2acbfaa300000000000000000000000000000000000000000000000000000000000000010000000000000000000000000000000000000000000000000000000063304999",
        "nonce": "0x128"
      }
    },
    {
      "hash": null,
      "transactionType": "CALL",
      "contractName": "VaultFactory",
      "contractAddress": "0xc7f2cf4845c6db0e1a1e91ed41bcd0fcc1b0e141",
      "function": "createNewMarket(uint256,address,int256,uint256,uint256,address,string):(address,address)",
      "arguments": [
        "32",
        "01be23585060835e02b77ef475b0cc51aa1e0709",
        "61",
        "630b5f99",
        "63304999",
        "5f0423b1a6935dc5596e7a24d98532b67a0aefd8",
        "y2kUSDC_97*SET"
      ],
      "transaction": {
        "type": "0x00",
        "from": "0xfb0a3a93e9acd461747e7d613eb3722d53b96613",
        "to": "0xc7f2cf4845c6db0e1a1e91ed41bcd0fcc1b0e141",
        "gas": "0x74d6",
        "value": "0x0",
        "data": "0x15355d89000000000000000000000000000000000000000000000000000000000000003200000000000000000000000001be23585060835e02b77ef475b0cc51aa1e0709000000000000000000000000000000000000000000000000000000000000006100000000000000000000000000000000000000000000000000000000630b5f9900000000000000000000000000000000000000000000000000000000633049990000000000000000000000005f0423b1a6935dc5596e7a24d98532b67a0aefd800000000000000000000000000000000000000000000000000000000000000e0000000000000000000000000000000000000000000000000000000000000000e79326b555344435f39372a534554000000000000000000000000000000000000",
        "nonce": "0x129"
      }
    },
    {
      "hash": null,
      "transactionType": "CALL",
      "contractName": "RewardsFactory",
      "contractAddress": "0xd85bdcdae4db1faeb8ef93331525fe68d7c8b3f0",
      "function": "createStakingRewards(uint256,uint256):(address,address)",
      "arguments": [
        "2",
        "63304999"
      ],
      "transaction": {
        "type": "0x00",
        "from": "0xfb0a3a93e9acd461747e7d613eb3722d53b96613",
        "to": "0xd85bdcdae4db1faeb8ef93331525fe68d7c8b3f0",
        "gas": "0x6c92",
        "value": "0x0",
        "data": "0x2acbfaa300000000000000000000000000000000000000000000000000000000000000020000000000000000000000000000000000000000000000000000000063304999",
        "nonce": "0x12a"
      }
    },
    {
      "hash": null,
      "transactionType": "CALL",
      "contractName": "VaultFactory",
      "contractAddress": "0xc7f2cf4845c6db0e1a1e91ed41bcd0fcc1b0e141",
      "function": "createNewMarket(uint256,address,int256,uint256,uint256,address,string):(address,address)",
      "arguments": [
        "32",
        "01be23585060835e02b77ef475b0cc51aa1e0709",
        "5f",
        "630b5f99",
        "63304999",
        "5f0423b1a6935dc5596e7a24d98532b67a0aefd8",
        "y2kUSDC_95*SET"
      ],
      "transaction": {
        "type": "0x00",
        "from": "0xfb0a3a93e9acd461747e7d613eb3722d53b96613",
        "to": "0xc7f2cf4845c6db0e1a1e91ed41bcd0fcc1b0e141",
        "gas": "0x74d6",
        "value": "0x0",
        "data": "0x15355d89000000000000000000000000000000000000000000000000000000000000003200000000000000000000000001be23585060835e02b77ef475b0cc51aa1e0709000000000000000000000000000000000000000000000000000000000000005f00000000000000000000000000000000000000000000000000000000630b5f9900000000000000000000000000000000000000000000000000000000633049990000000000000000000000005f0423b1a6935dc5596e7a24d98532b67a0aefd800000000000000000000000000000000000000000000000000000000000000e0000000000000000000000000000000000000000000000000000000000000000e79326b555344435f39352a534554000000000000000000000000000000000000",
        "nonce": "0x12b"
      }
    },
    {
      "hash": null,
      "transactionType": "CALL",
      "contractName": "RewardsFactory",
      "contractAddress": "0xd85bdcdae4db1faeb8ef93331525fe68d7c8b3f0",
      "function": "createStakingRewards(uint256,uint256):(address,address)",
      "arguments": [
        "3",
        "63304999"
      ],
      "transaction": {
        "type": "0x00",
        "from": "0xfb0a3a93e9acd461747e7d613eb3722d53b96613",
        "to": "0xd85bdcdae4db1faeb8ef93331525fe68d7c8b3f0",
        "gas": "0x6c92",
        "value": "0x0",
        "data": "0x2acbfaa300000000000000000000000000000000000000000000000000000000000000030000000000000000000000000000000000000000000000000000000063304999",
        "nonce": "0x12c"
      }
    },
    {
      "hash": null,
      "transactionType": "CALL",
      "contractName": "VaultFactory",
      "contractAddress": "0xc7f2cf4845c6db0e1a1e91ed41bcd0fcc1b0e141",
      "function": "createNewMarket(uint256,address,int256,uint256,uint256,address,string):(address,address)",
      "arguments": [
        "32",
        "4dcf5ac4509888714dd43a5ccc46d7ab389d9c23",
        "63",
        "630b5f99",
        "63304999",
        "3e3546c6b5689f7eaa1ba7bc9571322c3168d786",
        "y2kDAI_99*SET"
      ],
      "transaction": {
        "type": "0x00",
        "from": "0xfb0a3a93e9acd461747e7d613eb3722d53b96613",
        "to": "0xc7f2cf4845c6db0e1a1e91ed41bcd0fcc1b0e141",
        "gas": "0x74c6",
        "value": "0x0",
        "data": "0x15355d8900000000000000000000000000000000000000000000000000000000000000320000000000000000000000004dcf5ac4509888714dd43a5ccc46d7ab389d9c23000000000000000000000000000000000000000000000000000000000000006300000000000000000000000000000000000000000000000000000000630b5f9900000000000000000000000000000000000000000000000000000000633049990000000000000000000000003e3546c6b5689f7eaa1ba7bc9571322c3168d78600000000000000000000000000000000000000000000000000000000000000e0000000000000000000000000000000000000000000000000000000000000000d79326b4441495f39392a53455400000000000000000000000000000000000000",
        "nonce": "0x12d"
      }
    },
    {
      "hash": null,
      "transactionType": "CALL",
      "contractName": "RewardsFactory",
      "contractAddress": "0xd85bdcdae4db1faeb8ef93331525fe68d7c8b3f0",
      "function": "createStakingRewards(uint256,uint256):(address,address)",
      "arguments": [
        "4",
        "63304999"
      ],
      "transaction": {
        "type": "0x00",
        "from": "0xfb0a3a93e9acd461747e7d613eb3722d53b96613",
        "to": "0xd85bdcdae4db1faeb8ef93331525fe68d7c8b3f0",
        "gas": "0x6c92",
        "value": "0x0",
        "data": "0x2acbfaa300000000000000000000000000000000000000000000000000000000000000040000000000000000000000000000000000000000000000000000000063304999",
        "nonce": "0x12e"
      }
    },
    {
      "hash": null,
      "transactionType": "CALL",
      "contractName": "VaultFactory",
      "contractAddress": "0xc7f2cf4845c6db0e1a1e91ed41bcd0fcc1b0e141",
      "function": "createNewMarket(uint256,address,int256,uint256,uint256,address,string):(address,address)",
      "arguments": [
        "32",
        "4dcf5ac4509888714dd43a5ccc46d7ab389d9c23",
        "61",
        "630b5f99",
        "63304999",
        "3e3546c6b5689f7eaa1ba7bc9571322c3168d786",
        "y2kDAI_97*SET"
      ],
      "transaction": {
        "type": "0x00",
        "from": "0xfb0a3a93e9acd461747e7d613eb3722d53b96613",
        "to": "0xc7f2cf4845c6db0e1a1e91ed41bcd0fcc1b0e141",
        "gas": "0x74c6",
        "value": "0x0",
        "data": "0x15355d8900000000000000000000000000000000000000000000000000000000000000320000000000000000000000004dcf5ac4509888714dd43a5ccc46d7ab389d9c23000000000000000000000000000000000000000000000000000000000000006100000000000000000000000000000000000000000000000000000000630b5f9900000000000000000000000000000000000000000000000000000000633049990000000000000000000000003e3546c6b5689f7eaa1ba7bc9571322c3168d78600000000000000000000000000000000000000000000000000000000000000e0000000000000000000000000000000000000000000000000000000000000000d79326b4441495f39372a53455400000000000000000000000000000000000000",
        "nonce": "0x12f"
      }
    },
    {
      "hash": null,
      "transactionType": "CALL",
      "contractName": "RewardsFactory",
      "contractAddress": "0xd85bdcdae4db1faeb8ef93331525fe68d7c8b3f0",
      "function": "createStakingRewards(uint256,uint256):(address,address)",
      "arguments": [
        "5",
        "63304999"
      ],
      "transaction": {
        "type": "0x00",
        "from": "0xfb0a3a93e9acd461747e7d613eb3722d53b96613",
        "to": "0xd85bdcdae4db1faeb8ef93331525fe68d7c8b3f0",
        "gas": "0x6c92",
        "value": "0x0",
        "data": "0x2acbfaa300000000000000000000000000000000000000000000000000000000000000050000000000000000000000000000000000000000000000000000000063304999",
        "nonce": "0x130"
      }
    },
    {
      "hash": null,
      "transactionType": "CALL",
      "contractName": "VaultFactory",
      "contractAddress": "0xc7f2cf4845c6db0e1a1e91ed41bcd0fcc1b0e141",
      "function": "createNewMarket(uint256,address,int256,uint256,uint256,address,string):(address,address)",
      "arguments": [
        "32",
        "4dcf5ac4509888714dd43a5ccc46d7ab389d9c23",
        "5f",
        "630b5f99",
        "63304999",
        "3e3546c6b5689f7eaa1ba7bc9571322c3168d786",
        "y2kDAI_95*SET"
      ],
      "transaction": {
        "type": "0x00",
        "from": "0xfb0a3a93e9acd461747e7d613eb3722d53b96613",
        "to": "0xc7f2cf4845c6db0e1a1e91ed41bcd0fcc1b0e141",
        "gas": "0x74c6",
        "value": "0x0",
        "data": "0x15355d8900000000000000000000000000000000000000000000000000000000000000320000000000000000000000004dcf5ac4509888714dd43a5ccc46d7ab389d9c23000000000000000000000000000000000000000000000000000000000000005f00000000000000000000000000000000000000000000000000000000630b5f9900000000000000000000000000000000000000000000000000000000633049990000000000000000000000003e3546c6b5689f7eaa1ba7bc9571322c3168d78600000000000000000000000000000000000000000000000000000000000000e0000000000000000000000000000000000000000000000000000000000000000d79326b4441495f39352a53455400000000000000000000000000000000000000",
        "nonce": "0x131"
      }
    },
    {
      "hash": null,
      "transactionType": "CALL",
      "contractName": "RewardsFactory",
      "contractAddress": "0xd85bdcdae4db1faeb8ef93331525fe68d7c8b3f0",
      "function": "createStakingRewards(uint256,uint256):(address,address)",
      "arguments": [
        "6",
        "63304999"
      ],
      "transaction": {
        "type": "0x00",
        "from": "0xfb0a3a93e9acd461747e7d613eb3722d53b96613",
        "to": "0xd85bdcdae4db1faeb8ef93331525fe68d7c8b3f0",
        "gas": "0x6c92",
        "value": "0x0",
        "data": "0x2acbfaa300000000000000000000000000000000000000000000000000000000000000060000000000000000000000000000000000000000000000000000000063304999",
        "nonce": "0x132"
      }
    },
    {
      "hash": null,
      "transactionType": "CALL",
      "contractName": "VaultFactory",
      "contractAddress": "0xc7f2cf4845c6db0e1a1e91ed41bcd0fcc1b0e141",
      "function": "deployMoreAssets(uint256,uint256,uint256)",
      "arguments": [
        "1",
        "6332ec99",
        "6357d699"
      ],
      "transaction": {
        "type": "0x00",
        "from": "0xfb0a3a93e9acd461747e7d613eb3722d53b96613",
        "to": "0xc7f2cf4845c6db0e1a1e91ed41bcd0fcc1b0e141",
        "gas": "0x6d76",
        "value": "0x0",
        "data": "0x7bb4a17b0000000000000000000000000000000000000000000000000000000000000001000000000000000000000000000000000000000000000000000000006332ec99000000000000000000000000000000000000000000000000000000006357d699",
        "nonce": "0x133"
      }
    },
    {
      "hash": null,
      "transactionType": "CALL",
      "contractName": "RewardsFactory",
      "contractAddress": "0xd85bdcdae4db1faeb8ef93331525fe68d7c8b3f0",
      "function": "createStakingRewards(uint256,uint256):(address,address)",
      "arguments": [
        "1",
        "6357d699"
      ],
      "transaction": {
        "type": "0x00",
        "from": "0xfb0a3a93e9acd461747e7d613eb3722d53b96613",
        "to": "0xd85bdcdae4db1faeb8ef93331525fe68d7c8b3f0",
        "gas": "0x6c92",
        "value": "0x0",
        "data": "0x2acbfaa30000000000000000000000000000000000000000000000000000000000000001000000000000000000000000000000000000000000000000000000006357d699",
        "nonce": "0x134"
      }
    },
    {
      "hash": null,
      "transactionType": "CALL",
      "contractName": "VaultFactory",
      "contractAddress": "0xc7f2cf4845c6db0e1a1e91ed41bcd0fcc1b0e141",
      "function": "deployMoreAssets(uint256,uint256,uint256)",
      "arguments": [
        "2",
        "6332ec99",
        "6357d699"
      ],
      "transaction": {
        "type": "0x00",
        "from": "0xfb0a3a93e9acd461747e7d613eb3722d53b96613",
        "to": "0xc7f2cf4845c6db0e1a1e91ed41bcd0fcc1b0e141",
        "gas": "0x6d76",
        "value": "0x0",
        "data": "0x7bb4a17b0000000000000000000000000000000000000000000000000000000000000002000000000000000000000000000000000000000000000000000000006332ec99000000000000000000000000000000000000000000000000000000006357d699",
        "nonce": "0x135"
      }
    },
    {
      "hash": null,
      "transactionType": "CALL",
      "contractName": "RewardsFactory",
      "contractAddress": "0xd85bdcdae4db1faeb8ef93331525fe68d7c8b3f0",
      "function": "createStakingRewards(uint256,uint256):(address,address)",
      "arguments": [
        "2",
        "6357d699"
      ],
      "transaction": {
        "type": "0x00",
        "from": "0xfb0a3a93e9acd461747e7d613eb3722d53b96613",
        "to": "0xd85bdcdae4db1faeb8ef93331525fe68d7c8b3f0",
        "gas": "0x6c92",
        "value": "0x0",
        "data": "0x2acbfaa30000000000000000000000000000000000000000000000000000000000000002000000000000000000000000000000000000000000000000000000006357d699",
        "nonce": "0x136"
      }
    },
    {
      "hash": null,
      "transactionType": "CALL",
      "contractName": "VaultFactory",
      "contractAddress": "0xc7f2cf4845c6db0e1a1e91ed41bcd0fcc1b0e141",
      "function": "deployMoreAssets(uint256,uint256,uint256)",
      "arguments": [
        "3",
        "6332ec99",
        "6357d699"
      ],
      "transaction": {
        "type": "0x00",
        "from": "0xfb0a3a93e9acd461747e7d613eb3722d53b96613",
        "to": "0xc7f2cf4845c6db0e1a1e91ed41bcd0fcc1b0e141",
        "gas": "0x6d76",
        "value": "0x0",
        "data": "0x7bb4a17b0000000000000000000000000000000000000000000000000000000000000003000000000000000000000000000000000000000000000000000000006332ec99000000000000000000000000000000000000000000000000000000006357d699",
        "nonce": "0x137"
      }
    },
    {
      "hash": null,
      "transactionType": "CALL",
      "contractName": "RewardsFactory",
      "contractAddress": "0xd85bdcdae4db1faeb8ef93331525fe68d7c8b3f0",
      "function": "createStakingRewards(uint256,uint256):(address,address)",
      "arguments": [
        "3",
        "6357d699"
      ],
      "transaction": {
        "type": "0x00",
        "from": "0xfb0a3a93e9acd461747e7d613eb3722d53b96613",
        "to": "0xd85bdcdae4db1faeb8ef93331525fe68d7c8b3f0",
        "gas": "0x6c92",
        "value": "0x0",
        "data": "0x2acbfaa30000000000000000000000000000000000000000000000000000000000000003000000000000000000000000000000000000000000000000000000006357d699",
        "nonce": "0x138"
      }
    },
    {
      "hash": null,
      "transactionType": "CALL",
      "contractName": "VaultFactory",
      "contractAddress": "0xc7f2cf4845c6db0e1a1e91ed41bcd0fcc1b0e141",
      "function": "deployMoreAssets(uint256,uint256,uint256)",
      "arguments": [
        "4",
        "6332ec99",
        "6357d699"
      ],
      "transaction": {
        "type": "0x00",
        "from": "0xfb0a3a93e9acd461747e7d613eb3722d53b96613",
        "to": "0xc7f2cf4845c6db0e1a1e91ed41bcd0fcc1b0e141",
        "gas": "0x6d76",
        "value": "0x0",
        "data": "0x7bb4a17b0000000000000000000000000000000000000000000000000000000000000004000000000000000000000000000000000000000000000000000000006332ec99000000000000000000000000000000000000000000000000000000006357d699",
        "nonce": "0x139"
      }
    },
    {
      "hash": null,
      "transactionType": "CALL",
      "contractName": "RewardsFactory",
      "contractAddress": "0xd85bdcdae4db1faeb8ef93331525fe68d7c8b3f0",
      "function": "createStakingRewards(uint256,uint256):(address,address)",
      "arguments": [
        "4",
        "6357d699"
      ],
      "transaction": {
        "type": "0x00",
        "from": "0xfb0a3a93e9acd461747e7d613eb3722d53b96613",
        "to": "0xd85bdcdae4db1faeb8ef93331525fe68d7c8b3f0",
        "gas": "0x6c92",
        "value": "0x0",
        "data": "0x2acbfaa30000000000000000000000000000000000000000000000000000000000000004000000000000000000000000000000000000000000000000000000006357d699",
        "nonce": "0x13a"
      }
    },
    {
      "hash": null,
      "transactionType": "CALL",
      "contractName": "VaultFactory",
      "contractAddress": "0xc7f2cf4845c6db0e1a1e91ed41bcd0fcc1b0e141",
      "function": "deployMoreAssets(uint256,uint256,uint256)",
      "arguments": [
        "5",
        "6332ec99",
        "6357d699"
      ],
      "transaction": {
        "type": "0x00",
        "from": "0xfb0a3a93e9acd461747e7d613eb3722d53b96613",
        "to": "0xc7f2cf4845c6db0e1a1e91ed41bcd0fcc1b0e141",
        "gas": "0x6d76",
        "value": "0x0",
        "data": "0x7bb4a17b0000000000000000000000000000000000000000000000000000000000000005000000000000000000000000000000000000000000000000000000006332ec99000000000000000000000000000000000000000000000000000000006357d699",
        "nonce": "0x13b"
      }
    },
    {
      "hash": null,
      "transactionType": "CALL",
      "contractName": "RewardsFactory",
      "contractAddress": "0xd85bdcdae4db1faeb8ef93331525fe68d7c8b3f0",
      "function": "createStakingRewards(uint256,uint256):(address,address)",
      "arguments": [
        "5",
        "6357d699"
      ],
      "transaction": {
        "type": "0x00",
        "from": "0xfb0a3a93e9acd461747e7d613eb3722d53b96613",
        "to": "0xd85bdcdae4db1faeb8ef93331525fe68d7c8b3f0",
        "gas": "0x6c92",
        "value": "0x0",
        "data": "0x2acbfaa30000000000000000000000000000000000000000000000000000000000000005000000000000000000000000000000000000000000000000000000006357d699",
        "nonce": "0x13c"
      }
    },
    {
      "hash": null,
      "transactionType": "CALL",
      "contractName": "VaultFactory",
      "contractAddress": "0xc7f2cf4845c6db0e1a1e91ed41bcd0fcc1b0e141",
      "function": "deployMoreAssets(uint256,uint256,uint256)",
      "arguments": [
        "6",
        "6332ec99",
        "6357d699"
      ],
      "transaction": {
        "type": "0x00",
        "from": "0xfb0a3a93e9acd461747e7d613eb3722d53b96613",
        "to": "0xc7f2cf4845c6db0e1a1e91ed41bcd0fcc1b0e141",
        "gas": "0x6d76",
        "value": "0x0",
        "data": "0x7bb4a17b0000000000000000000000000000000000000000000000000000000000000006000000000000000000000000000000000000000000000000000000006332ec99000000000000000000000000000000000000000000000000000000006357d699",
        "nonce": "0x13d"
      }
    },
    {
      "hash": null,
      "transactionType": "CALL",
      "contractName": "RewardsFactory",
      "contractAddress": "0xd85bdcdae4db1faeb8ef93331525fe68d7c8b3f0",
      "function": "createStakingRewards(uint256,uint256):(address,address)",
      "arguments": [
        "6",
        "6357d699"
      ],
      "transaction": {
        "type": "0x00",
        "from": "0xfb0a3a93e9acd461747e7d613eb3722d53b96613",
        "to": "0xd85bdcdae4db1faeb8ef93331525fe68d7c8b3f0",
        "gas": "0x6c92",
        "value": "0x0",
        "data": "0x2acbfaa30000000000000000000000000000000000000000000000000000000000000006000000000000000000000000000000000000000000000000000000006357d699",
        "nonce": "0x13e"
      }
    }
  ],
  "receipts": [],
  "libraries": [],
  "pending": [],
  "path": "/home/miguelbits/Desktop/Y2K/EARTHQUAKE/broadcast/DeployRinkeby.s.sol/421611/run-latest.json",
  "returns": {},
  "timestamp": 1661517024
}