{
  "transactions": [
    {
      "hash": "0xe9b9facc8550113a4fce75f744e3330bb6bddc2552f87f98f6d1bf08eed96e7f",
      "transactionType": "CALL",
      "contractName": "VaultFactory",
      "contractAddress": "0xc7f2cf4845c6db0e1a1e91ed41bcd0fcc1b0e141",
      "function": "createNewMarket(uint256,address,int256,uint256,uint256,address,string):(address,address)",
      "arguments": [
        "32",
        "01be23585060835e02b77ef475b0cc51aa1e0709",
        "63",
        "631473cc",
        "6335694c",
        "5f0423b1a6935dc5596e7a24d98532b67a0aefd8",
        "y2kUSDC_99*"
      ],
      "transaction": {
        "type": "0x00",
        "from": "0xfb0a3a93e9acd461747e7d613eb3722d53b96613",
        "to": "0xc7f2cf4845c6db0e1a1e91ed41bcd0fcc1b0e141",
        "gas": "0x74a7",
        "value": "0x0",
        "data": "0x15355d89000000000000000000000000000000000000000000000000000000000000003200000000000000000000000001be23585060835e02b77ef475b0cc51aa1e0709000000000000000000000000000000000000000000000000000000000000006300000000000000000000000000000000000000000000000000000000631473cc000000000000000000000000000000000000000000000000000000006335694c0000000000000000000000005f0423b1a6935dc5596e7a24d98532b67a0aefd800000000000000000000000000000000000000000000000000000000000000e0000000000000000000000000000000000000000000000000000000000000000b79326b555344435f39392a000000000000000000000000000000000000000000",
        "nonce": "0x19f"
      }
    },
    {
      "hash": "0xf23d32e643376891fc7a3b5d1ff3cb74fa38aa55276f84dfe45269a7661751df",
      "transactionType": "CALL",
      "contractName": "RewardsFactory",
      "contractAddress": "0xd85bdcdae4db1faeb8ef93331525fe68d7c8b3f0",
      "function": "createStakingRewards(uint256,uint256):(address,address)",
      "arguments": [
        "1",
        "6335694c"
      ],
      "transaction": {
        "type": "0x00",
        "from": "0xfb0a3a93e9acd461747e7d613eb3722d53b96613",
        "to": "0xd85bdcdae4db1faeb8ef93331525fe68d7c8b3f0",
        "gas": "0x6c92",
        "value": "0x0",
        "data": "0x2acbfaa30000000000000000000000000000000000000000000000000000000000000001000000000000000000000000000000000000000000000000000000006335694c",
        "nonce": "0x1a0"
      }
    },
    {
      "hash": "0x4581f826ae87cbf7c6bc10549f293c43ffe8e40a763f4bc2fd602fca7c44b820",
      "transactionType": "CALL",
      "contractName": "GovToken",
      "contractAddress": "0x238213078dbd09f2d15f4c14c02300fa1b2a81bb",
      "function": "moneyPrinterGoesBrr(address)",
      "arguments": [
        "5efd028dd0751f9ed1b3c8b058b02e47f3fbd80b"
      ],
      "transaction": {
        "type": "0x00",
        "from": "0xfb0a3a93e9acd461747e7d613eb3722d53b96613",
        "to": "0x238213078dbd09f2d15f4c14c02300fa1b2a81bb",
        "gas": "0x6cd5",
        "value": "0x0",
        "data": "0x46e9ef520000000000000000000000005efd028dd0751f9ed1b3c8b058b02e47f3fbd80b",
        "nonce": "0x1a1"
      }
    },
    {
      "hash": "0x1a2e3c761e5d674f6f399d150afb162d08d0ddcee2b4cdef6ecab42b7e61ce59",
      "transactionType": "CALL",
      "contractName": "GovToken",
      "contractAddress": "0x238213078dbd09f2d15f4c14c02300fa1b2a81bb",
      "function": "moneyPrinterGoesBrr(address)",
      "arguments": [
        "22c484c3a2981a5fed21f0be28bf88a53838ab92"
      ],
      "transaction": {
        "type": "0x00",
        "from": "0xfb0a3a93e9acd461747e7d613eb3722d53b96613",
        "to": "0x238213078dbd09f2d15f4c14c02300fa1b2a81bb",
        "gas": "0x6cd5",
        "value": "0x0",
        "data": "0x46e9ef5200000000000000000000000022c484c3a2981a5fed21f0be28bf88a53838ab92",
        "nonce": "0x1a2"
      }
    },
    {
      "hash": "0x597781fc514822551649439aa94540d60234c69e4219c7f256a6f4c15c6e8efb",
      "transactionType": "CALL",
      "contractName": "VaultFactory",
      "contractAddress": "0xc7f2cf4845c6db0e1a1e91ed41bcd0fcc1b0e141",
      "function": "createNewMarket(uint256,address,int256,uint256,uint256,address,string):(address,address)",
      "arguments": [
        "32",
        "01be23585060835e02b77ef475b0cc51aa1e0709",
        "61",
        "631473cc",
        "6335694c",
        "5f0423b1a6935dc5596e7a24d98532b67a0aefd8",
        "y2kUSDC_97*"
      ],
      "transaction": {
        "type": "0x00",
        "from": "0xfb0a3a93e9acd461747e7d613eb3722d53b96613",
        "to": "0xc7f2cf4845c6db0e1a1e91ed41bcd0fcc1b0e141",
        "gas": "0x74a7",
        "value": "0x0",
        "data": "0x15355d89000000000000000000000000000000000000000000000000000000000000003200000000000000000000000001be23585060835e02b77ef475b0cc51aa1e0709000000000000000000000000000000000000000000000000000000000000006100000000000000000000000000000000000000000000000000000000631473cc000000000000000000000000000000000000000000000000000000006335694c0000000000000000000000005f0423b1a6935dc5596e7a24d98532b67a0aefd800000000000000000000000000000000000000000000000000000000000000e0000000000000000000000000000000000000000000000000000000000000000b79326b555344435f39372a000000000000000000000000000000000000000000",
        "nonce": "0x1a3"
      }
    },
    {
      "hash": "0x5a03716f57c00e24ff5002d452db4e9dc3cb100c10c371575da7d2d04419eb3f",
      "transactionType": "CALL",
      "contractName": "RewardsFactory",
      "contractAddress": "0xd85bdcdae4db1faeb8ef93331525fe68d7c8b3f0",
      "function": "createStakingRewards(uint256,uint256):(address,address)",
      "arguments": [
        "2",
        "6335694c"
      ],
      "transaction": {
        "type": "0x00",
        "from": "0xfb0a3a93e9acd461747e7d613eb3722d53b96613",
        "to": "0xd85bdcdae4db1faeb8ef93331525fe68d7c8b3f0",
        "gas": "0x6c92",
        "value": "0x0",
        "data": "0x2acbfaa30000000000000000000000000000000000000000000000000000000000000002000000000000000000000000000000000000000000000000000000006335694c",
        "nonce": "0x1a4"
      }
    },
    {
      "hash": "0x741bb9ba8a2ace9e2a6f3670ba9c1b6b2934133725d46c5f80785df5f467096d",
      "transactionType": "CALL",
      "contractName": "GovToken",
      "contractAddress": "0x238213078dbd09f2d15f4c14c02300fa1b2a81bb",
      "function": "moneyPrinterGoesBrr(address)",
      "arguments": [
        "e36d69115712364c613547eefde0f85d56359c85"
      ],
      "transaction": {
        "type": "0x00",
        "from": "0xfb0a3a93e9acd461747e7d613eb3722d53b96613",
        "to": "0x238213078dbd09f2d15f4c14c02300fa1b2a81bb",
        "gas": "0x6cd5",
        "value": "0x0",
        "data": "0x46e9ef52000000000000000000000000e36d69115712364c613547eefde0f85d56359c85",
        "nonce": "0x1a5"
      }
    },
    {
      "hash": "0x0ccedaf71476c086dfc4e6671ff83fe0cf7839c1b41985436c0d13d3930829b0",
      "transactionType": "CALL",
      "contractName": "GovToken",
      "contractAddress": "0x238213078dbd09f2d15f4c14c02300fa1b2a81bb",
      "function": "moneyPrinterGoesBrr(address)",
      "arguments": [
        "bae85457b74dbf325aa6646b0fa997afbd450a75"
      ],
      "transaction": {
        "type": "0x00",
        "from": "0xfb0a3a93e9acd461747e7d613eb3722d53b96613",
        "to": "0x238213078dbd09f2d15f4c14c02300fa1b2a81bb",
        "gas": "0x6cd5",
        "value": "0x0",
        "data": "0x46e9ef52000000000000000000000000bae85457b74dbf325aa6646b0fa997afbd450a75",
        "nonce": "0x1a6"
      }
    },
    {
      "hash": "0x19c7d3174161ebd79ba82e78a0758328b82c4f0772e5c7de9baf2a925abf004f",
      "transactionType": "CALL",
      "contractName": "VaultFactory",
      "contractAddress": "0xc7f2cf4845c6db0e1a1e91ed41bcd0fcc1b0e141",
      "function": "createNewMarket(uint256,address,int256,uint256,uint256,address,string):(address,address)",
      "arguments": [
        "32",
        "01be23585060835e02b77ef475b0cc51aa1e0709",
        "5f",
        "631473cc",
        "6335694c",
        "5f0423b1a6935dc5596e7a24d98532b67a0aefd8",
        "y2kUSDC_95*"
      ],
      "transaction": {
        "type": "0x00",
        "from": "0xfb0a3a93e9acd461747e7d613eb3722d53b96613",
        "to": "0xc7f2cf4845c6db0e1a1e91ed41bcd0fcc1b0e141",
        "gas": "0x74a7",
        "value": "0x0",
        "data": "0x15355d89000000000000000000000000000000000000000000000000000000000000003200000000000000000000000001be23585060835e02b77ef475b0cc51aa1e0709000000000000000000000000000000000000000000000000000000000000005f00000000000000000000000000000000000000000000000000000000631473cc000000000000000000000000000000000000000000000000000000006335694c0000000000000000000000005f0423b1a6935dc5596e7a24d98532b67a0aefd800000000000000000000000000000000000000000000000000000000000000e0000000000000000000000000000000000000000000000000000000000000000b79326b555344435f39352a000000000000000000000000000000000000000000",
        "nonce": "0x1a7"
      }
    },
    {
      "hash": "0x10a796d7883777db6e16db241962458ab433f1993e95f8a256414c14efe2d370",
      "transactionType": "CALL",
      "contractName": "RewardsFactory",
      "contractAddress": "0xd85bdcdae4db1faeb8ef93331525fe68d7c8b3f0",
      "function": "createStakingRewards(uint256,uint256):(address,address)",
      "arguments": [
        "3",
        "6335694c"
      ],
      "transaction": {
        "type": "0x00",
        "from": "0xfb0a3a93e9acd461747e7d613eb3722d53b96613",
        "to": "0xd85bdcdae4db1faeb8ef93331525fe68d7c8b3f0",
        "gas": "0x6c92",
        "value": "0x0",
        "data": "0x2acbfaa30000000000000000000000000000000000000000000000000000000000000003000000000000000000000000000000000000000000000000000000006335694c",
        "nonce": "0x1a8"
      }
    },
    {
      "hash": "0x106374dcf75438c88e6e4a24f2b47e2183ec5fe8c90ae8d34a6d2c6cb8c7ef32",
      "transactionType": "CALL",
      "contractName": "GovToken",
      "contractAddress": "0x238213078dbd09f2d15f4c14c02300fa1b2a81bb",
      "function": "moneyPrinterGoesBrr(address)",
      "arguments": [
        "970ab42ce938d3ef880df5db06c2aba9c0933f9b"
      ],
      "transaction": {
        "type": "0x00",
        "from": "0xfb0a3a93e9acd461747e7d613eb3722d53b96613",
        "to": "0x238213078dbd09f2d15f4c14c02300fa1b2a81bb",
        "gas": "0x6cd5",
        "value": "0x0",
        "data": "0x46e9ef52000000000000000000000000970ab42ce938d3ef880df5db06c2aba9c0933f9b",
        "nonce": "0x1a9"
      }
    },
    {
      "hash": "0x76b36c77b553eff5304830007751d54180712cc7f8db956eae1326e173f0bee3",
      "transactionType": "CALL",
      "contractName": "GovToken",
      "contractAddress": "0x238213078dbd09f2d15f4c14c02300fa1b2a81bb",
      "function": "moneyPrinterGoesBrr(address)",
      "arguments": [
        "58096e18af48a584b92a73f8ebf3ee92e3b64b49"
      ],
      "transaction": {
        "type": "0x00",
        "from": "0xfb0a3a93e9acd461747e7d613eb3722d53b96613",
        "to": "0x238213078dbd09f2d15f4c14c02300fa1b2a81bb",
        "gas": "0x6cd5",
        "value": "0x0",
        "data": "0x46e9ef5200000000000000000000000058096e18af48a584b92a73f8ebf3ee92e3b64b49",
        "nonce": "0x1aa"
      }
    },
    {
      "hash": "0xac17310d59f5db8fdeea1b7d575fdc34d3ba934a294342eb27e44c2c89a9db79",
      "transactionType": "CALL",
      "contractName": "VaultFactory",
      "contractAddress": "0xc7f2cf4845c6db0e1a1e91ed41bcd0fcc1b0e141",
      "function": "createNewMarket(uint256,address,int256,uint256,uint256,address,string):(address,address)",
      "arguments": [
        "32",
        "4dcf5ac4509888714dd43a5ccc46d7ab389d9c23",
        "63",
        "631473cc",
        "6335694c",
        "3e3546c6b5689f7eaa1ba7bc9571322c3168d786",
        "y2kDAI_99*"
      ],
      "transaction": {
        "type": "0x00",
        "from": "0xfb0a3a93e9acd461747e7d613eb3722d53b96613",
        "to": "0xc7f2cf4845c6db0e1a1e91ed41bcd0fcc1b0e141",
        "gas": "0x7498",
        "value": "0x0",
        "data": "0x15355d8900000000000000000000000000000000000000000000000000000000000000320000000000000000000000004dcf5ac4509888714dd43a5ccc46d7ab389d9c23000000000000000000000000000000000000000000000000000000000000006300000000000000000000000000000000000000000000000000000000631473cc000000000000000000000000000000000000000000000000000000006335694c0000000000000000000000003e3546c6b5689f7eaa1ba7bc9571322c3168d78600000000000000000000000000000000000000000000000000000000000000e0000000000000000000000000000000000000000000000000000000000000000a79326b4441495f39392a00000000000000000000000000000000000000000000",
        "nonce": "0x1ab"
      }
    },
    {
      "hash": "0xb1196c5fed4dfa9908a8d0c473f400edccc806028cb48d3dbe9da655b6d1ec54",
      "transactionType": "CALL",
      "contractName": "RewardsFactory",
      "contractAddress": "0xd85bdcdae4db1faeb8ef93331525fe68d7c8b3f0",
      "function": "createStakingRewards(uint256,uint256):(address,address)",
      "arguments": [
        "4",
        "6335694c"
      ],
      "transaction": {
        "type": "0x00",
        "from": "0xfb0a3a93e9acd461747e7d613eb3722d53b96613",
        "to": "0xd85bdcdae4db1faeb8ef93331525fe68d7c8b3f0",
        "gas": "0x6c92",
        "value": "0x0",
        "data": "0x2acbfaa30000000000000000000000000000000000000000000000000000000000000004000000000000000000000000000000000000000000000000000000006335694c",
        "nonce": "0x1ac"
      }
    },
    {
      "hash": "0x5b0ceb6dc2cc807258667ad9712a0e5b144e2d35990608fb709b531e714b5118",
      "transactionType": "CALL",
      "contractName": "GovToken",
      "contractAddress": "0x238213078dbd09f2d15f4c14c02300fa1b2a81bb",
      "function": "moneyPrinterGoesBrr(address)",
      "arguments": [
        "b5f00eb1d8fb8529b189a8c13e7909aa41cb963c"
      ],
      "transaction": {
        "type": "0x00",
        "from": "0xfb0a3a93e9acd461747e7d613eb3722d53b96613",
        "to": "0x238213078dbd09f2d15f4c14c02300fa1b2a81bb",
        "gas": "0x6cd5",
        "value": "0x0",
        "data": "0x46e9ef52000000000000000000000000b5f00eb1d8fb8529b189a8c13e7909aa41cb963c",
        "nonce": "0x1ad"
      }
    },
    {
      "hash": "0x9e67fd1facedcf4cc9963301e1de88bce7f27dc34dd65347c1604981198409d5",
      "transactionType": "CALL",
      "contractName": "GovToken",
      "contractAddress": "0x238213078dbd09f2d15f4c14c02300fa1b2a81bb",
      "function": "moneyPrinterGoesBrr(address)",
      "arguments": [
        "84e3eae127eccd856a3b07169b684a445f9b7fa5"
      ],
      "transaction": {
        "type": "0x00",
        "from": "0xfb0a3a93e9acd461747e7d613eb3722d53b96613",
        "to": "0x238213078dbd09f2d15f4c14c02300fa1b2a81bb",
        "gas": "0x6cd5",
        "value": "0x0",
        "data": "0x46e9ef5200000000000000000000000084e3eae127eccd856a3b07169b684a445f9b7fa5",
        "nonce": "0x1ae"
      }
    },
    {
      "hash": "0x6ad8353561863547573941afb1d38538f40b2112efe2ba406d8e9ca35a36ed8e",
      "transactionType": "CALL",
      "contractName": "VaultFactory",
      "contractAddress": "0xc7f2cf4845c6db0e1a1e91ed41bcd0fcc1b0e141",
      "function": "createNewMarket(uint256,address,int256,uint256,uint256,address,string):(address,address)",
      "arguments": [
        "32",
        "4dcf5ac4509888714dd43a5ccc46d7ab389d9c23",
        "61",
        "631473cc",
        "6335694c",
        "3e3546c6b5689f7eaa1ba7bc9571322c3168d786",
        "y2kDAI_97*"
      ],
      "transaction": {
        "type": "0x00",
        "from": "0xfb0a3a93e9acd461747e7d613eb3722d53b96613",
        "to": "0xc7f2cf4845c6db0e1a1e91ed41bcd0fcc1b0e141",
        "gas": "0x7498",
        "value": "0x0",
        "data": "0x15355d8900000000000000000000000000000000000000000000000000000000000000320000000000000000000000004dcf5ac4509888714dd43a5ccc46d7ab389d9c23000000000000000000000000000000000000000000000000000000000000006100000000000000000000000000000000000000000000000000000000631473cc000000000000000000000000000000000000000000000000000000006335694c0000000000000000000000003e3546c6b5689f7eaa1ba7bc9571322c3168d78600000000000000000000000000000000000000000000000000000000000000e0000000000000000000000000000000000000000000000000000000000000000a79326b4441495f39372a00000000000000000000000000000000000000000000",
        "nonce": "0x1af"
      }
    },
    {
      "hash": "0xcb2d1b399b7d72a86cb70f1efd8a9224cfe5a108bfa56eba9b9215d5180dd461",
      "transactionType": "CALL",
      "contractName": "RewardsFactory",
      "contractAddress": "0xd85bdcdae4db1faeb8ef93331525fe68d7c8b3f0",
      "function": "createStakingRewards(uint256,uint256):(address,address)",
      "arguments": [
        "5",
        "6335694c"
      ],
      "transaction": {
        "type": "0x00",
        "from": "0xfb0a3a93e9acd461747e7d613eb3722d53b96613",
        "to": "0xd85bdcdae4db1faeb8ef93331525fe68d7c8b3f0",
        "gas": "0x6c92",
        "value": "0x0",
        "data": "0x2acbfaa30000000000000000000000000000000000000000000000000000000000000005000000000000000000000000000000000000000000000000000000006335694c",
        "nonce": "0x1b0"
      }
    },
    {
      "hash": "0x2eefa25317a9fd0e468498acb9a4c569852fa56903b2930a4343480d5d00a007",
      "transactionType": "CALL",
      "contractName": "GovToken",
      "contractAddress": "0x238213078dbd09f2d15f4c14c02300fa1b2a81bb",
      "function": "moneyPrinterGoesBrr(address)",
      "arguments": [
        "cd61dbc9c64dfff3208c3c1be8802c4f7c213b2f"
      ],
      "transaction": {
        "type": "0x00",
        "from": "0xfb0a3a93e9acd461747e7d613eb3722d53b96613",
        "to": "0x238213078dbd09f2d15f4c14c02300fa1b2a81bb",
        "gas": "0x6cd5",
        "value": "0x0",
        "data": "0x46e9ef52000000000000000000000000cd61dbc9c64dfff3208c3c1be8802c4f7c213b2f",
        "nonce": "0x1b1"
      }
    },
    {
      "hash": "0x78b664b7fc096d1eb0f8b5e0e42922e40b14f3826fd998d5c36db79f292c454e",
      "transactionType": "CALL",
      "contractName": "GovToken",
      "contractAddress": "0x238213078dbd09f2d15f4c14c02300fa1b2a81bb",
      "function": "moneyPrinterGoesBrr(address)",
      "arguments": [
        "b232329bc4c1b6d0756cae89accfbcdd723cc75b"
      ],
      "transaction": {
        "type": "0x00",
        "from": "0xfb0a3a93e9acd461747e7d613eb3722d53b96613",
        "to": "0x238213078dbd09f2d15f4c14c02300fa1b2a81bb",
        "gas": "0x6cd5",
        "value": "0x0",
        "data": "0x46e9ef52000000000000000000000000b232329bc4c1b6d0756cae89accfbcdd723cc75b",
        "nonce": "0x1b2"
      }
    },
    {
      "hash": "0xe6a7c21b4ee19362dcd18f05954a05d1ced4b9604194bda21cbc0290d18d25b1",
      "transactionType": "CALL",
      "contractName": "VaultFactory",
      "contractAddress": "0xc7f2cf4845c6db0e1a1e91ed41bcd0fcc1b0e141",
      "function": "createNewMarket(uint256,address,int256,uint256,uint256,address,string):(address,address)",
      "arguments": [
        "32",
        "4dcf5ac4509888714dd43a5ccc46d7ab389d9c23",
        "5f",
        "631473cc",
        "6335694c",
        "3e3546c6b5689f7eaa1ba7bc9571322c3168d786",
        "y2kDAI_95*"
      ],
      "transaction": {
        "type": "0x00",
        "from": "0xfb0a3a93e9acd461747e7d613eb3722d53b96613",
        "to": "0xc7f2cf4845c6db0e1a1e91ed41bcd0fcc1b0e141",
        "gas": "0x7498",
        "value": "0x0",
        "data": "0x15355d8900000000000000000000000000000000000000000000000000000000000000320000000000000000000000004dcf5ac4509888714dd43a5ccc46d7ab389d9c23000000000000000000000000000000000000000000000000000000000000005f00000000000000000000000000000000000000000000000000000000631473cc000000000000000000000000000000000000000000000000000000006335694c0000000000000000000000003e3546c6b5689f7eaa1ba7bc9571322c3168d78600000000000000000000000000000000000000000000000000000000000000e0000000000000000000000000000000000000000000000000000000000000000a79326b4441495f39352a00000000000000000000000000000000000000000000",
        "nonce": "0x1b3"
      }
    },
    {
      "hash": "0x6df621f3fb2bdd1ac7e9e25dd56dfcd33db40155183497ed3d7a8b5fb7a3967a",
      "transactionType": "CALL",
      "contractName": "RewardsFactory",
      "contractAddress": "0xd85bdcdae4db1faeb8ef93331525fe68d7c8b3f0",
      "function": "createStakingRewards(uint256,uint256):(address,address)",
      "arguments": [
        "6",
        "6335694c"
      ],
      "transaction": {
        "type": "0x00",
        "from": "0xfb0a3a93e9acd461747e7d613eb3722d53b96613",
        "to": "0xd85bdcdae4db1faeb8ef93331525fe68d7c8b3f0",
        "gas": "0x6c92",
        "value": "0x0",
        "data": "0x2acbfaa30000000000000000000000000000000000000000000000000000000000000006000000000000000000000000000000000000000000000000000000006335694c",
        "nonce": "0x1b4"
      }
    },
    {
      "hash": "0x80a6b2220d0731a43866a3954590da94605de671c83b1330b1a31bda32545473",
      "transactionType": "CALL",
      "contractName": "GovToken",
      "contractAddress": "0x238213078dbd09f2d15f4c14c02300fa1b2a81bb",
      "function": "moneyPrinterGoesBrr(address)",
      "arguments": [
        "f3c4f7b93b7144947a2cf1d7d6b7758dec11df27"
      ],
      "transaction": {
        "type": "0x00",
        "from": "0xfb0a3a93e9acd461747e7d613eb3722d53b96613",
        "to": "0x238213078dbd09f2d15f4c14c02300fa1b2a81bb",
        "gas": "0x6cd5",
        "value": "0x0",
        "data": "0x46e9ef52000000000000000000000000f3c4f7b93b7144947a2cf1d7d6b7758dec11df27",
        "nonce": "0x1b5"
      }
    },
    {
      "hash": "0xf76d26a2f4b91c8e22a2590a03788a3f97488b71b8be4031aa69d20e99fb3050",
      "transactionType": "CALL",
      "contractName": "GovToken",
      "contractAddress": "0x238213078dbd09f2d15f4c14c02300fa1b2a81bb",
      "function": "moneyPrinterGoesBrr(address)",
      "arguments": [
        "957e7620bb3e23fa0217c23f80c8e500e4add7e9"
      ],
      "transaction": {
        "type": "0x00",
        "from": "0xfb0a3a93e9acd461747e7d613eb3722d53b96613",
        "to": "0x238213078dbd09f2d15f4c14c02300fa1b2a81bb",
        "gas": "0x6cc6",
        "value": "0x0",
        "data": "0x46e9ef52000000000000000000000000957e7620bb3e23fa0217c23f80c8e500e4add7e9",
        "nonce": "0x1b6"
      }
    },
    {
      "hash": "0xffbc0c6e756eef101aa8634896dfe68fee55b2a67365e32dbb503fd6eddb81db",
      "transactionType": "CALL",
      "contractName": "VaultFactory",
      "contractAddress": "0xc7f2cf4845c6db0e1a1e91ed41bcd0fcc1b0e141",
      "function": "deployMoreAssets(uint256,uint256,uint256)",
      "arguments": [
        "1",
        "6335694c",
        "635cf64c"
      ],
      "transaction": {
        "type": "0x00",
        "from": "0xfb0a3a93e9acd461747e7d613eb3722d53b96613",
        "to": "0xc7f2cf4845c6db0e1a1e91ed41bcd0fcc1b0e141",
        "gas": "0x6d76",
        "value": "0x0",
        "data": "0x7bb4a17b0000000000000000000000000000000000000000000000000000000000000001000000000000000000000000000000000000000000000000000000006335694c00000000000000000000000000000000000000000000000000000000635cf64c",
        "nonce": "0x1b7"
      }
    },
    {
      "hash": "0xb4092ee330b54fb8ac949b8cc40d7432db7ef637c993fb47e2d225a9c491da41",
      "transactionType": "CALL",
      "contractName": "RewardsFactory",
      "contractAddress": "0xd85bdcdae4db1faeb8ef93331525fe68d7c8b3f0",
      "function": "createStakingRewards(uint256,uint256):(address,address)",
      "arguments": [
        "1",
        "635cf64c"
      ],
      "transaction": {
        "type": "0x00",
        "from": "0xfb0a3a93e9acd461747e7d613eb3722d53b96613",
        "to": "0xd85bdcdae4db1faeb8ef93331525fe68d7c8b3f0",
        "gas": "0x6c92",
        "value": "0x0",
        "data": "0x2acbfaa3000000000000000000000000000000000000000000000000000000000000000100000000000000000000000000000000000000000000000000000000635cf64c",
        "nonce": "0x1b8"
      }
    },
    {
      "hash": "0x61d8b4b56b463280348c019658e84ef2618bf0e63a36c7fcc04769e5903c6fbb",
      "transactionType": "CALL",
      "contractName": "GovToken",
      "contractAddress": "0x238213078dbd09f2d15f4c14c02300fa1b2a81bb",
      "function": "moneyPrinterGoesBrr(address)",
      "arguments": [
        "e8d96f31412552c2ff98bf9eba664db73327c158"
      ],
      "transaction": {
        "type": "0x00",
        "from": "0xfb0a3a93e9acd461747e7d613eb3722d53b96613",
        "to": "0x238213078dbd09f2d15f4c14c02300fa1b2a81bb",
        "gas": "0x6cd5",
        "value": "0x0",
        "data": "0x46e9ef52000000000000000000000000e8d96f31412552c2ff98bf9eba664db73327c158",
        "nonce": "0x1b9"
      }
    },
    {
      "hash": "0x11e10b7cc650feb03ff2ed2c5482db2188c4b868c0cb3c9e3589e600ec772c05",
      "transactionType": "CALL",
      "contractName": "GovToken",
      "contractAddress": "0x238213078dbd09f2d15f4c14c02300fa1b2a81bb",
      "function": "moneyPrinterGoesBrr(address)",
      "arguments": [
        "ca96b4ccaf8ea091df523e3b7c81e5d65e4a40cf"
      ],
      "transaction": {
        "type": "0x00",
        "from": "0xfb0a3a93e9acd461747e7d613eb3722d53b96613",
        "to": "0x238213078dbd09f2d15f4c14c02300fa1b2a81bb",
        "gas": "0x6cd5",
        "value": "0x0",
        "data": "0x46e9ef52000000000000000000000000ca96b4ccaf8ea091df523e3b7c81e5d65e4a40cf",
        "nonce": "0x1ba"
      }
    },
    {
      "hash": "0x52df6f5bae0e9e42f6ae198177b3a5da81e7e9bea38a3684fb17bcd19241daea",
      "transactionType": "CALL",
      "contractName": "VaultFactory",
      "contractAddress": "0xc7f2cf4845c6db0e1a1e91ed41bcd0fcc1b0e141",
      "function": "deployMoreAssets(uint256,uint256,uint256)",
      "arguments": [
        "2",
        "6335694c",
        "635cf64c"
      ],
      "transaction": {
        "type": "0x00",
        "from": "0xfb0a3a93e9acd461747e7d613eb3722d53b96613",
        "to": "0xc7f2cf4845c6db0e1a1e91ed41bcd0fcc1b0e141",
        "gas": "0x6d76",
        "value": "0x0",
        "data": "0x7bb4a17b0000000000000000000000000000000000000000000000000000000000000002000000000000000000000000000000000000000000000000000000006335694c00000000000000000000000000000000000000000000000000000000635cf64c",
        "nonce": "0x1bb"
      }
    },
    {
      "hash": "0xd3f73abe894096a2bc351a8ad03bcb0e11aa50f0b9317aeddcf613feea7222ba",
      "transactionType": "CALL",
      "contractName": "RewardsFactory",
      "contractAddress": "0xd85bdcdae4db1faeb8ef93331525fe68d7c8b3f0",
      "function": "createStakingRewards(uint256,uint256):(address,address)",
      "arguments": [
        "2",
        "635cf64c"
      ],
      "transaction": {
        "type": "0x00",
        "from": "0xfb0a3a93e9acd461747e7d613eb3722d53b96613",
        "to": "0xd85bdcdae4db1faeb8ef93331525fe68d7c8b3f0",
        "gas": "0x6c92",
        "value": "0x0",
        "data": "0x2acbfaa3000000000000000000000000000000000000000000000000000000000000000200000000000000000000000000000000000000000000000000000000635cf64c",
        "nonce": "0x1bc"
      }
    },
    {
      "hash": "0x5f6ec3f7b9069b3200e26d9f96f452d1b9255b127e38fbb03e2c5947ab551336",
      "transactionType": "CALL",
      "contractName": "GovToken",
      "contractAddress": "0x238213078dbd09f2d15f4c14c02300fa1b2a81bb",
      "function": "moneyPrinterGoesBrr(address)",
      "arguments": [
        "ac437033f9061ecd556e3f7b62eceac67a653b78"
      ],
      "transaction": {
        "type": "0x00",
        "from": "0xfb0a3a93e9acd461747e7d613eb3722d53b96613",
        "to": "0x238213078dbd09f2d15f4c14c02300fa1b2a81bb",
        "gas": "0x6cd5",
        "value": "0x0",
        "data": "0x46e9ef52000000000000000000000000ac437033f9061ecd556e3f7b62eceac67a653b78",
        "nonce": "0x1bd"
      }
    },
    {
      "hash": "0xb4b52e798b3c82f055f0e5aeb39d1c85d06730050f6e4108e2caf5001ae21ea9",
      "transactionType": "CALL",
      "contractName": "GovToken",
      "contractAddress": "0x238213078dbd09f2d15f4c14c02300fa1b2a81bb",
      "function": "moneyPrinterGoesBrr(address)",
      "arguments": [
        "3e274c754e5f436ac92c3668179176f400506fe7"
      ],
      "transaction": {
        "type": "0x00",
        "from": "0xfb0a3a93e9acd461747e7d613eb3722d53b96613",
        "to": "0x238213078dbd09f2d15f4c14c02300fa1b2a81bb",
        "gas": "0x6cc6",
        "value": "0x0",
        "data": "0x46e9ef520000000000000000000000003e274c754e5f436ac92c3668179176f400506fe7",
        "nonce": "0x1be"
      }
    },
    {
      "hash": "0x71d6a5382582f0fb1ed21e401b9c932b223ab85c0cc957f1cdb5a6950a7fce1c",
      "transactionType": "CALL",
      "contractName": "VaultFactory",
      "contractAddress": "0xc7f2cf4845c6db0e1a1e91ed41bcd0fcc1b0e141",
      "function": "deployMoreAssets(uint256,uint256,uint256)",
      "arguments": [
        "3",
        "6335694c",
        "635cf64c"
      ],
      "transaction": {
        "type": "0x00",
        "from": "0xfb0a3a93e9acd461747e7d613eb3722d53b96613",
        "to": "0xc7f2cf4845c6db0e1a1e91ed41bcd0fcc1b0e141",
        "gas": "0x6d76",
        "value": "0x0",
        "data": "0x7bb4a17b0000000000000000000000000000000000000000000000000000000000000003000000000000000000000000000000000000000000000000000000006335694c00000000000000000000000000000000000000000000000000000000635cf64c",
        "nonce": "0x1bf"
      }
    },
    {
      "hash": "0x221b7718804c922d82e53e0a00d3db25a600909f9896236375acab7d2d7c648c",
      "transactionType": "CALL",
      "contractName": "RewardsFactory",
      "contractAddress": "0xd85bdcdae4db1faeb8ef93331525fe68d7c8b3f0",
      "function": "createStakingRewards(uint256,uint256):(address,address)",
      "arguments": [
        "3",
        "635cf64c"
      ],
      "transaction": {
        "type": "0x00",
        "from": "0xfb0a3a93e9acd461747e7d613eb3722d53b96613",
        "to": "0xd85bdcdae4db1faeb8ef93331525fe68d7c8b3f0",
        "gas": "0x6c92",
        "value": "0x0",
        "data": "0x2acbfaa3000000000000000000000000000000000000000000000000000000000000000300000000000000000000000000000000000000000000000000000000635cf64c",
        "nonce": "0x1c0"
      }
    },
    {
      "hash": "0x6b5230c503707abfb43c18b54f4fa35175d4bd7a2e1e7c7b806d647866a925f3",
      "transactionType": "CALL",
      "contractName": "GovToken",
      "contractAddress": "0x238213078dbd09f2d15f4c14c02300fa1b2a81bb",
      "function": "moneyPrinterGoesBrr(address)",
      "arguments": [
        "fbf40c1451ee2fe2a3ec1b6042818f317a8016d7"
      ],
      "transaction": {
        "type": "0x00",
        "from": "0xfb0a3a93e9acd461747e7d613eb3722d53b96613",
        "to": "0x238213078dbd09f2d15f4c14c02300fa1b2a81bb",
        "gas": "0x6cd5",
        "value": "0x0",
        "data": "0x46e9ef52000000000000000000000000fbf40c1451ee2fe2a3ec1b6042818f317a8016d7",
        "nonce": "0x1c1"
      }
    },
    {
      "hash": "0x586aba687a2826ea8c0c9c1bb67525ba7fa7a6d9ab62c2c58097c768881d6426",
      "transactionType": "CALL",
      "contractName": "GovToken",
      "contractAddress": "0x238213078dbd09f2d15f4c14c02300fa1b2a81bb",
      "function": "moneyPrinterGoesBrr(address)",
      "arguments": [
        "405e432fb37da1ee9859090a7cc6dcae6ad536e6"
      ],
      "transaction": {
        "type": "0x00",
        "from": "0xfb0a3a93e9acd461747e7d613eb3722d53b96613",
        "to": "0x238213078dbd09f2d15f4c14c02300fa1b2a81bb",
        "gas": "0x6cd5",
        "value": "0x0",
        "data": "0x46e9ef52000000000000000000000000405e432fb37da1ee9859090a7cc6dcae6ad536e6",
        "nonce": "0x1c2"
      }
    },
    {
      "hash": "0x0396952c873b03726beb07471b82f03bd4edf378aa3441af10f7ef7395ce2e88",
      "transactionType": "CALL",
      "contractName": "VaultFactory",
      "contractAddress": "0xc7f2cf4845c6db0e1a1e91ed41bcd0fcc1b0e141",
      "function": "deployMoreAssets(uint256,uint256,uint256)",
      "arguments": [
        "4",
        "6335694c",
        "635cf64c"
      ],
      "transaction": {
        "type": "0x00",
        "from": "0xfb0a3a93e9acd461747e7d613eb3722d53b96613",
        "to": "0xc7f2cf4845c6db0e1a1e91ed41bcd0fcc1b0e141",
        "gas": "0x6d76",
        "value": "0x0",
        "data": "0x7bb4a17b0000000000000000000000000000000000000000000000000000000000000004000000000000000000000000000000000000000000000000000000006335694c00000000000000000000000000000000000000000000000000000000635cf64c",
        "nonce": "0x1c3"
      }
    },
    {
      "hash": "0x629c1399acef6c3f7d8c59e4cd857ea57d366399aeafc3b9f470c36810e8bd5c",
      "transactionType": "CALL",
      "contractName": "RewardsFactory",
      "contractAddress": "0xd85bdcdae4db1faeb8ef93331525fe68d7c8b3f0",
      "function": "createStakingRewards(uint256,uint256):(address,address)",
      "arguments": [
        "4",
        "635cf64c"
      ],
      "transaction": {
        "type": "0x00",
        "from": "0xfb0a3a93e9acd461747e7d613eb3722d53b96613",
        "to": "0xd85bdcdae4db1faeb8ef93331525fe68d7c8b3f0",
        "gas": "0x6c92",
        "value": "0x0",
        "data": "0x2acbfaa3000000000000000000000000000000000000000000000000000000000000000400000000000000000000000000000000000000000000000000000000635cf64c",
        "nonce": "0x1c4"
      }
    },
    {
      "hash": "0x632db8b7cd34bd2677adbddf6208f3eeac842947db8234aedef97d159091b514",
      "transactionType": "CALL",
      "contractName": "GovToken",
      "contractAddress": "0x238213078dbd09f2d15f4c14c02300fa1b2a81bb",
      "function": "moneyPrinterGoesBrr(address)",
      "arguments": [
        "b599e9fa08b0cd29a2eafbae84b20e19b5b1c12b"
      ],
      "transaction": {
        "type": "0x00",
        "from": "0xfb0a3a93e9acd461747e7d613eb3722d53b96613",
        "to": "0x238213078dbd09f2d15f4c14c02300fa1b2a81bb",
        "gas": "0x6cd5",
        "value": "0x0",
        "data": "0x46e9ef52000000000000000000000000b599e9fa08b0cd29a2eafbae84b20e19b5b1c12b",
        "nonce": "0x1c5"
      }
    },
    {
      "hash": "0xaa06265a94190f9c182a4697713f3d67e97c9488a9a01dd5a578ea5b909a0621",
      "transactionType": "CALL",
      "contractName": "GovToken",
      "contractAddress": "0x238213078dbd09f2d15f4c14c02300fa1b2a81bb",
      "function": "moneyPrinterGoesBrr(address)",
      "arguments": [
        "15193e4952eca50abeb8b96832499ec6110819ae"
      ],
      "transaction": {
        "type": "0x00",
        "from": "0xfb0a3a93e9acd461747e7d613eb3722d53b96613",
        "to": "0x238213078dbd09f2d15f4c14c02300fa1b2a81bb",
        "gas": "0x6cd5",
        "value": "0x0",
        "data": "0x46e9ef5200000000000000000000000015193e4952eca50abeb8b96832499ec6110819ae",
        "nonce": "0x1c6"
      }
    },
    {
      "hash": "0xe7a82a2a9e07400228650e3c844849d4b175b0d7ed8b848a5816507b3b39155d",
      "transactionType": "CALL",
      "contractName": "VaultFactory",
      "contractAddress": "0xc7f2cf4845c6db0e1a1e91ed41bcd0fcc1b0e141",
      "function": "deployMoreAssets(uint256,uint256,uint256)",
      "arguments": [
        "5",
        "6335694c",
        "635cf64c"
      ],
      "transaction": {
        "type": "0x00",
        "from": "0xfb0a3a93e9acd461747e7d613eb3722d53b96613",
        "to": "0xc7f2cf4845c6db0e1a1e91ed41bcd0fcc1b0e141",
        "gas": "0x6d76",
        "value": "0x0",
        "data": "0x7bb4a17b0000000000000000000000000000000000000000000000000000000000000005000000000000000000000000000000000000000000000000000000006335694c00000000000000000000000000000000000000000000000000000000635cf64c",
        "nonce": "0x1c7"
      }
    },
    {
      "hash": "0x9165650a733cc7f47b5f276eee5fe7337c7f0065f9dc0f89940e3fabf25af0c6",
      "transactionType": "CALL",
      "contractName": "RewardsFactory",
      "contractAddress": "0xd85bdcdae4db1faeb8ef93331525fe68d7c8b3f0",
      "function": "createStakingRewards(uint256,uint256):(address,address)",
      "arguments": [
        "5",
        "635cf64c"
      ],
      "transaction": {
        "type": "0x00",
        "from": "0xfb0a3a93e9acd461747e7d613eb3722d53b96613",
        "to": "0xd85bdcdae4db1faeb8ef93331525fe68d7c8b3f0",
        "gas": "0x6c92",
        "value": "0x0",
        "data": "0x2acbfaa3000000000000000000000000000000000000000000000000000000000000000500000000000000000000000000000000000000000000000000000000635cf64c",
        "nonce": "0x1c8"
      }
    },
    {
      "hash": "0xbc05ecf999ff7114d11ade6d696022e3caa8b332c03041c3a56c1c237fc61bcb",
      "transactionType": "CALL",
      "contractName": "GovToken",
      "contractAddress": "0x238213078dbd09f2d15f4c14c02300fa1b2a81bb",
      "function": "moneyPrinterGoesBrr(address)",
      "arguments": [
        "33b21f06c39d431b515f497d8796426f4a3e315c"
      ],
      "transaction": {
        "type": "0x00",
        "from": "0xfb0a3a93e9acd461747e7d613eb3722d53b96613",
        "to": "0x238213078dbd09f2d15f4c14c02300fa1b2a81bb",
        "gas": "0x6cd5",
        "value": "0x0",
        "data": "0x46e9ef5200000000000000000000000033b21f06c39d431b515f497d8796426f4a3e315c",
        "nonce": "0x1c9"
      }
    },
    {
      "hash": "0x55407da408d86cdaca6738181dbb3b1421dd491a33d3e7929fa1375c3e39c9d5",
      "transactionType": "CALL",
      "contractName": "GovToken",
      "contractAddress": "0x238213078dbd09f2d15f4c14c02300fa1b2a81bb",
      "function": "moneyPrinterGoesBrr(address)",
      "arguments": [
        "688b58b09f11c38f58884d82d25dcd28bf5cd99a"
      ],
      "transaction": {
        "type": "0x00",
        "from": "0xfb0a3a93e9acd461747e7d613eb3722d53b96613",
        "to": "0x238213078dbd09f2d15f4c14c02300fa1b2a81bb",
        "gas": "0x6cd5",
        "value": "0x0",
        "data": "0x46e9ef52000000000000000000000000688b58b09f11c38f58884d82d25dcd28bf5cd99a",
        "nonce": "0x1ca"
      }
    },
    {
      "hash": "0x32b345e14fb554c8571fb4a0cfbd3e7deff913d9295f7629f88d68a8240b49aa",
      "transactionType": "CALL",
      "contractName": "VaultFactory",
      "contractAddress": "0xc7f2cf4845c6db0e1a1e91ed41bcd0fcc1b0e141",
      "function": "deployMoreAssets(uint256,uint256,uint256)",
      "arguments": [
        "6",
        "6335694c",
        "635cf64c"
      ],
      "transaction": {
        "type": "0x00",
        "from": "0xfb0a3a93e9acd461747e7d613eb3722d53b96613",
        "to": "0xc7f2cf4845c6db0e1a1e91ed41bcd0fcc1b0e141",
        "gas": "0x6d76",
        "value": "0x0",
        "data": "0x7bb4a17b0000000000000000000000000000000000000000000000000000000000000006000000000000000000000000000000000000000000000000000000006335694c00000000000000000000000000000000000000000000000000000000635cf64c",
        "nonce": "0x1cb"
      }
    },
    {
      "hash": "0x937f130490ec628ee2b39692db52cb372a7937d1ce5782a876a0efa76c4ee28b",
      "transactionType": "CALL",
      "contractName": "RewardsFactory",
      "contractAddress": "0xd85bdcdae4db1faeb8ef93331525fe68d7c8b3f0",
      "function": "createStakingRewards(uint256,uint256):(address,address)",
      "arguments": [
        "6",
        "635cf64c"
      ],
      "transaction": {
        "type": "0x00",
        "from": "0xfb0a3a93e9acd461747e7d613eb3722d53b96613",
        "to": "0xd85bdcdae4db1faeb8ef93331525fe68d7c8b3f0",
        "gas": "0x6c92",
        "value": "0x0",
        "data": "0x2acbfaa3000000000000000000000000000000000000000000000000000000000000000600000000000000000000000000000000000000000000000000000000635cf64c",
        "nonce": "0x1cc"
      }
    },
    {
      "hash": "0xf331814c8e4d3594a3d5c84ba64b73956add2d1529bdfb0acfa1861cce00a02a",
      "transactionType": "CALL",
      "contractName": "GovToken",
      "contractAddress": "0x238213078dbd09f2d15f4c14c02300fa1b2a81bb",
      "function": "moneyPrinterGoesBrr(address)",
      "arguments": [
        "4ca515f8389742474e49db2460b1cd92309001bc"
      ],
      "transaction": {
        "type": "0x00",
        "from": "0xfb0a3a93e9acd461747e7d613eb3722d53b96613",
        "to": "0x238213078dbd09f2d15f4c14c02300fa1b2a81bb",
        "gas": "0x6cd5",
        "value": "0x0",
        "data": "0x46e9ef520000000000000000000000004ca515f8389742474e49db2460b1cd92309001bc",
        "nonce": "0x1cd"
      }
    },
    {
      "hash": "0x5b1a3e117de9d17aae2b266ce4460c6c68768089c6a9bcf53c3e576f8c6656dc",
      "transactionType": "CALL",
      "contractName": "GovToken",
      "contractAddress": "0x238213078dbd09f2d15f4c14c02300fa1b2a81bb",
      "function": "moneyPrinterGoesBrr(address)",
      "arguments": [
        "b7bfa8de4bd492ddbaff36e027e333dbc9af14b6"
      ],
      "transaction": {
        "type": "0x00",
        "from": "0xfb0a3a93e9acd461747e7d613eb3722d53b96613",
        "to": "0x238213078dbd09f2d15f4c14c02300fa1b2a81bb",
        "gas": "0x6cd5",
        "value": "0x0",
        "data": "0x46e9ef52000000000000000000000000b7bfa8de4bd492ddbaff36e027e333dbc9af14b6",
        "nonce": "0x1ce"
      }
    }
  ],
  "receipts": [
    {
      "transactionHash": "0xe9b9facc8550113a4fce75f744e3330bb6bddc2552f87f98f6d1bf08eed96e7f",
      "transactionIndex": "0x1",
      "blockHash": "0x56c78b587941c0946b6d1ee139d3c21f28a37687a6a2f449654025c5ad776f9b",
      "blockNumber": "0xe4a986",
      "from": "0xfb0a3a93e9acd461747e7d613eb3722d53b96613",
      "to": "0xc7f2cf4845c6db0e1a1e91ed41bcd0fcc1b0e141",
      "cumulativeGasUsed": "0x59bc",
      "gasUsed": "0x59bc",
      "contractAddress": null,
      "logs": [],
      "status": "0x1",
      "logsBloom": "0x00000000000000000000000000000000000000000000000000000000000000000000000000000000000000000000000000000000000000000000000000000000000000000000000000000000000000000000000000000000000000000000000000000000000000000000000000000000000000000000000000000000000000000000000000000000000000000000000000000000000000000000000000000000000000000000000000000000000000000000000000000000000000000000000000000000000000000000000000000000000000000000000000000000000000000000000000000000000000000000000000000000000000000000000000000000",
      "type": "0x0",
      "effectiveGasPrice": "0x5f5e100"
    },
    {
      "transactionHash": "0xf23d32e643376891fc7a3b5d1ff3cb74fa38aa55276f84dfe45269a7661751df",
      "transactionIndex": "0x1",
      "blockHash": "0xcdd71b474a349c59816f518ca7e25596d920563783eba7784f72eb94247323cb",
      "blockNumber": "0xe4a98c",
      "from": "0xfb0a3a93e9acd461747e7d613eb3722d53b96613",
      "to": "0xd85bdcdae4db1faeb8ef93331525fe68d7c8b3f0",
      "cumulativeGasUsed": "0x5384",
      "gasUsed": "0x5384",
      "contractAddress": null,
      "logs": [],
      "status": "0x1",
      "logsBloom": "0x00000000000000000000000000000000000000000000000000000000000000000000000000000000000000000000000000000000000000000000000000000000000000000000000000000000000000000000000000000000000000000000000000000000000000000000000000000000000000000000000000000000000000000000000000000000000000000000000000000000000000000000000000000000000000000000000000000000000000000000000000000000000000000000000000000000000000000000000000000000000000000000000000000000000000000000000000000000000000000000000000000000000000000000000000000000",
      "type": "0x0",
      "effectiveGasPrice": "0x5f5e100"
    },
    {
      "transactionHash": "0x4581f826ae87cbf7c6bc10549f293c43ffe8e40a763f4bc2fd602fca7c44b820",
      "transactionIndex": "0x1",
      "blockHash": "0xe2a120ad3eb92ecb183925ec5750042ff480b5c96690ab8bfce309213beb0f1b",
      "blockNumber": "0xe4a992",
      "from": "0xfb0a3a93e9acd461747e7d613eb3722d53b96613",
      "to": "0x238213078dbd09f2d15f4c14c02300fa1b2a81bb",
      "cumulativeGasUsed": "0x53b8",
      "gasUsed": "0x53b8",
      "contractAddress": null,
      "logs": [],
      "status": "0x1",
      "logsBloom": "0x00000000000000000000000000000000000000000000000000000000000000000000000000000000000000000000000000000000000000000000000000000000000000000000000000000000000000000000000000000000000000000000000000000000000000000000000000000000000000000000000000000000000000000000000000000000000000000000000000000000000000000000000000000000000000000000000000000000000000000000000000000000000000000000000000000000000000000000000000000000000000000000000000000000000000000000000000000000000000000000000000000000000000000000000000000000",
      "type": "0x0",
      "effectiveGasPrice": "0x5f5e100"
    },
    {
      "transactionHash": "0x1a2e3c761e5d674f6f399d150afb162d08d0ddcee2b4cdef6ecab42b7e61ce59",
      "transactionIndex": "0x1",
      "blockHash": "0x53f1fd40a5c1d73e31ab1c6bc84fe6eb2eed77ca678da78dc0e18baa76d16ab9",
      "blockNumber": "0xe4a997",
      "from": "0xfb0a3a93e9acd461747e7d613eb3722d53b96613",
      "to": "0x238213078dbd09f2d15f4c14c02300fa1b2a81bb",
      "cumulativeGasUsed": "0x53b8",
      "gasUsed": "0x53b8",
      "contractAddress": null,
      "logs": [],
      "status": "0x1",
      "logsBloom": "0x00000000000000000000000000000000000000000000000000000000000000000000000000000000000000000000000000000000000000000000000000000000000000000000000000000000000000000000000000000000000000000000000000000000000000000000000000000000000000000000000000000000000000000000000000000000000000000000000000000000000000000000000000000000000000000000000000000000000000000000000000000000000000000000000000000000000000000000000000000000000000000000000000000000000000000000000000000000000000000000000000000000000000000000000000000000",
      "type": "0x0",
      "effectiveGasPrice": "0x5f5e100"
    },
    {
      "transactionHash": "0x597781fc514822551649439aa94540d60234c69e4219c7f256a6f4c15c6e8efb",
      "transactionIndex": "0x1",
      "blockHash": "0x4e6ae5e058877b6cb917775a4bcf37f07c4c1b2fd168478abc60c00db7c77326",
      "blockNumber": "0xe4a99d",
      "from": "0xfb0a3a93e9acd461747e7d613eb3722d53b96613",
      "to": "0xc7f2cf4845c6db0e1a1e91ed41bcd0fcc1b0e141",
      "cumulativeGasUsed": "0x59bc",
      "gasUsed": "0x59bc",
      "contractAddress": null,
      "logs": [],
      "status": "0x1",
      "logsBloom": "0x00000000000000000000000000000000000000000000000000000000000000000000000000000000000000000000000000000000000000000000000000000000000000000000000000000000000000000000000000000000000000000000000000000000000000000000000000000000000000000000000000000000000000000000000000000000000000000000000000000000000000000000000000000000000000000000000000000000000000000000000000000000000000000000000000000000000000000000000000000000000000000000000000000000000000000000000000000000000000000000000000000000000000000000000000000000",
      "type": "0x0",
      "effectiveGasPrice": "0x5f5e100"
    },
    {
      "transactionHash": "0x5a03716f57c00e24ff5002d452db4e9dc3cb100c10c371575da7d2d04419eb3f",
      "transactionIndex": "0x1",
      "blockHash": "0x8014641150c1700120802e83f32f98e3002e5aedd11e24b23e1d481992d3c917",
      "blockNumber": "0xe4a9a2",
      "from": "0xfb0a3a93e9acd461747e7d613eb3722d53b96613",
      "to": "0xd85bdcdae4db1faeb8ef93331525fe68d7c8b3f0",
      "cumulativeGasUsed": "0x5384",
      "gasUsed": "0x5384",
      "contractAddress": null,
      "logs": [],
      "status": "0x1",
      "logsBloom": "0x00000000000000000000000000000000000000000000000000000000000000000000000000000000000000000000000000000000000000000000000000000000000000000000000000000000000000000000000000000000000000000000000000000000000000000000000000000000000000000000000000000000000000000000000000000000000000000000000000000000000000000000000000000000000000000000000000000000000000000000000000000000000000000000000000000000000000000000000000000000000000000000000000000000000000000000000000000000000000000000000000000000000000000000000000000000",
      "type": "0x0",
      "effectiveGasPrice": "0x5f5e100"
    },
    {
      "transactionHash": "0x741bb9ba8a2ace9e2a6f3670ba9c1b6b2934133725d46c5f80785df5f467096d",
      "transactionIndex": "0x1",
      "blockHash": "0x532ae260001ce712fe6a2c6fdb00f95631d9a5b2193b73486c54ac7fbdd27679",
      "blockNumber": "0xe4a9a6",
      "from": "0xfb0a3a93e9acd461747e7d613eb3722d53b96613",
      "to": "0x238213078dbd09f2d15f4c14c02300fa1b2a81bb",
      "cumulativeGasUsed": "0x53b8",
      "gasUsed": "0x53b8",
      "contractAddress": null,
      "logs": [],
      "status": "0x1",
      "logsBloom": "0x00000000000000000000000000000000000000000000000000000000000000000000000000000000000000000000000000000000000000000000000000000000000000000000000000000000000000000000000000000000000000000000000000000000000000000000000000000000000000000000000000000000000000000000000000000000000000000000000000000000000000000000000000000000000000000000000000000000000000000000000000000000000000000000000000000000000000000000000000000000000000000000000000000000000000000000000000000000000000000000000000000000000000000000000000000000",
      "type": "0x0",
      "effectiveGasPrice": "0x5f5e100"
    },
    {
      "transactionHash": "0x0ccedaf71476c086dfc4e6671ff83fe0cf7839c1b41985436c0d13d3930829b0",
      "transactionIndex": "0x1",
      "blockHash": "0x97d523dfefcb1de66aca43ab45e827502711a5506a0ec2ccf0664bf9c5dd6c77",
      "blockNumber": "0xe4a9ac",
      "from": "0xfb0a3a93e9acd461747e7d613eb3722d53b96613",
      "to": "0x238213078dbd09f2d15f4c14c02300fa1b2a81bb",
      "cumulativeGasUsed": "0x53b8",
      "gasUsed": "0x53b8",
      "contractAddress": null,
      "logs": [],
      "status": "0x1",
      "logsBloom": "0x00000000000000000000000000000000000000000000000000000000000000000000000000000000000000000000000000000000000000000000000000000000000000000000000000000000000000000000000000000000000000000000000000000000000000000000000000000000000000000000000000000000000000000000000000000000000000000000000000000000000000000000000000000000000000000000000000000000000000000000000000000000000000000000000000000000000000000000000000000000000000000000000000000000000000000000000000000000000000000000000000000000000000000000000000000000",
      "type": "0x0",
      "effectiveGasPrice": "0x5f5e100"
    },
    {
      "transactionHash": "0x19c7d3174161ebd79ba82e78a0758328b82c4f0772e5c7de9baf2a925abf004f",
      "transactionIndex": "0x1",
      "blockHash": "0x0101e273b601703f22789c2320c427f8269ed1eeea4bb3b44cf593eaadc2dc12",
      "blockNumber": "0xe4a9b0",
      "from": "0xfb0a3a93e9acd461747e7d613eb3722d53b96613",
      "to": "0xc7f2cf4845c6db0e1a1e91ed41bcd0fcc1b0e141",
      "cumulativeGasUsed": "0x59bc",
      "gasUsed": "0x59bc",
      "contractAddress": null,
      "logs": [],
      "status": "0x1",
      "logsBloom": "0x00000000000000000000000000000000000000000000000000000000000000000000000000000000000000000000000000000000000000000000000000000000000000000000000000000000000000000000000000000000000000000000000000000000000000000000000000000000000000000000000000000000000000000000000000000000000000000000000000000000000000000000000000000000000000000000000000000000000000000000000000000000000000000000000000000000000000000000000000000000000000000000000000000000000000000000000000000000000000000000000000000000000000000000000000000000",
      "type": "0x0",
      "effectiveGasPrice": "0x5f5e100"
    },
    {
      "transactionHash": "0x10a796d7883777db6e16db241962458ab433f1993e95f8a256414c14efe2d370",
      "transactionIndex": "0x1",
      "blockHash": "0x923009ec3dbea131104def63dad6338b2bcb2651aef30ebe75337aac9e0294a8",
      "blockNumber": "0xe4a9b8",
      "from": "0xfb0a3a93e9acd461747e7d613eb3722d53b96613",
      "to": "0xd85bdcdae4db1faeb8ef93331525fe68d7c8b3f0",
      "cumulativeGasUsed": "0x5384",
      "gasUsed": "0x5384",
      "contractAddress": null,
      "logs": [],
      "status": "0x1",
      "logsBloom": "0x00000000000000000000000000000000000000000000000000000000000000000000000000000000000000000000000000000000000000000000000000000000000000000000000000000000000000000000000000000000000000000000000000000000000000000000000000000000000000000000000000000000000000000000000000000000000000000000000000000000000000000000000000000000000000000000000000000000000000000000000000000000000000000000000000000000000000000000000000000000000000000000000000000000000000000000000000000000000000000000000000000000000000000000000000000000",
      "type": "0x0",
      "effectiveGasPrice": "0x5f5e100"
    },
    {
      "transactionHash": "0x106374dcf75438c88e6e4a24f2b47e2183ec5fe8c90ae8d34a6d2c6cb8c7ef32",
      "transactionIndex": "0x1",
      "blockHash": "0x465198ba88240e45fe11df9ed60c7a04d5c1581ca1e1f292e720b3b5dbb1273f",
      "blockNumber": "0xe4a9c1",
      "from": "0xfb0a3a93e9acd461747e7d613eb3722d53b96613",
      "to": "0x238213078dbd09f2d15f4c14c02300fa1b2a81bb",
      "cumulativeGasUsed": "0x53b8",
      "gasUsed": "0x53b8",
      "contractAddress": null,
      "logs": [],
      "status": "0x1",
      "logsBloom": "0x00000000000000000000000000000000000000000000000000000000000000000000000000000000000000000000000000000000000000000000000000000000000000000000000000000000000000000000000000000000000000000000000000000000000000000000000000000000000000000000000000000000000000000000000000000000000000000000000000000000000000000000000000000000000000000000000000000000000000000000000000000000000000000000000000000000000000000000000000000000000000000000000000000000000000000000000000000000000000000000000000000000000000000000000000000000",
      "type": "0x0",
      "effectiveGasPrice": "0x5f5e100"
    },
    {
      "transactionHash": "0x76b36c77b553eff5304830007751d54180712cc7f8db956eae1326e173f0bee3",
      "transactionIndex": "0x1",
      "blockHash": "0x3987ceb3f9d2190c3a274d45efdc5f2804e5269869daf5d2cd3873ffa2ca8980",
      "blockNumber": "0xe4a9c4",
      "from": "0xfb0a3a93e9acd461747e7d613eb3722d53b96613",
      "to": "0x238213078dbd09f2d15f4c14c02300fa1b2a81bb",
      "cumulativeGasUsed": "0x53b8",
      "gasUsed": "0x53b8",
      "contractAddress": null,
      "logs": [],
      "status": "0x1",
      "logsBloom": "0x00000000000000000000000000000000000000000000000000000000000000000000000000000000000000000000000000000000000000000000000000000000000000000000000000000000000000000000000000000000000000000000000000000000000000000000000000000000000000000000000000000000000000000000000000000000000000000000000000000000000000000000000000000000000000000000000000000000000000000000000000000000000000000000000000000000000000000000000000000000000000000000000000000000000000000000000000000000000000000000000000000000000000000000000000000000",
      "type": "0x0",
      "effectiveGasPrice": "0x5f5e100"
    },
    {
      "transactionHash": "0xac17310d59f5db8fdeea1b7d575fdc34d3ba934a294342eb27e44c2c89a9db79",
      "transactionIndex": "0x1",
      "blockHash": "0xa09589fba55037bfb0b684f7849faebd2b1f500f9782bd7e803e6ce3a47c8d43",
      "blockNumber": "0xe4a9ca",
      "from": "0xfb0a3a93e9acd461747e7d613eb3722d53b96613",
      "to": "0xc7f2cf4845c6db0e1a1e91ed41bcd0fcc1b0e141",
      "cumulativeGasUsed": "0x59b0",
      "gasUsed": "0x59b0",
      "contractAddress": null,
      "logs": [],
      "status": "0x1",
      "logsBloom": "0x00000000000000000000000000000000000000000000000000000000000000000000000000000000000000000000000000000000000000000000000000000000000000000000000000000000000000000000000000000000000000000000000000000000000000000000000000000000000000000000000000000000000000000000000000000000000000000000000000000000000000000000000000000000000000000000000000000000000000000000000000000000000000000000000000000000000000000000000000000000000000000000000000000000000000000000000000000000000000000000000000000000000000000000000000000000",
      "type": "0x0",
      "effectiveGasPrice": "0x5f5e100"
    },
    {
      "transactionHash": "0xb1196c5fed4dfa9908a8d0c473f400edccc806028cb48d3dbe9da655b6d1ec54",
      "transactionIndex": "0x1",
      "blockHash": "0x6ff3711aecbee804e9ef11bbc7333e9c9dc9313debf8cf362bdc465f93b521f5",
      "blockNumber": "0xe4a9d1",
      "from": "0xfb0a3a93e9acd461747e7d613eb3722d53b96613",
      "to": "0xd85bdcdae4db1faeb8ef93331525fe68d7c8b3f0",
      "cumulativeGasUsed": "0x5384",
      "gasUsed": "0x5384",
      "contractAddress": null,
      "logs": [],
      "status": "0x1",
      "logsBloom": "0x00000000000000000000000000000000000000000000000000000000000000000000000000000000000000000000000000000000000000000000000000000000000000000000000000000000000000000000000000000000000000000000000000000000000000000000000000000000000000000000000000000000000000000000000000000000000000000000000000000000000000000000000000000000000000000000000000000000000000000000000000000000000000000000000000000000000000000000000000000000000000000000000000000000000000000000000000000000000000000000000000000000000000000000000000000000",
      "type": "0x0",
      "effectiveGasPrice": "0x5f5e100"
    },
    {
      "transactionHash": "0x5b0ceb6dc2cc807258667ad9712a0e5b144e2d35990608fb709b531e714b5118",
      "transactionIndex": "0x1",
      "blockHash": "0xa9b53ff0938a59fe7fbaaf0d31937b6cce567798c28046caaad947e0d97cca5a",
      "blockNumber": "0xe4a9dc",
      "from": "0xfb0a3a93e9acd461747e7d613eb3722d53b96613",
      "to": "0x238213078dbd09f2d15f4c14c02300fa1b2a81bb",
      "cumulativeGasUsed": "0x53b8",
      "gasUsed": "0x53b8",
      "contractAddress": null,
      "logs": [],
      "status": "0x1",
      "logsBloom": "0x00000000000000000000000000000000000000000000000000000000000000000000000000000000000000000000000000000000000000000000000000000000000000000000000000000000000000000000000000000000000000000000000000000000000000000000000000000000000000000000000000000000000000000000000000000000000000000000000000000000000000000000000000000000000000000000000000000000000000000000000000000000000000000000000000000000000000000000000000000000000000000000000000000000000000000000000000000000000000000000000000000000000000000000000000000000",
      "type": "0x0",
      "effectiveGasPrice": "0x5f5e100"
    },
    {
      "transactionHash": "0x9e67fd1facedcf4cc9963301e1de88bce7f27dc34dd65347c1604981198409d5",
      "transactionIndex": "0x1",
      "blockHash": "0xf5f4d84e8218725b36fb0bf852e2cd3320dfcca7310a08bad60d4a391c4d51e3",
      "blockNumber": "0xe4a9e1",
      "from": "0xfb0a3a93e9acd461747e7d613eb3722d53b96613",
      "to": "0x238213078dbd09f2d15f4c14c02300fa1b2a81bb",
      "cumulativeGasUsed": "0x53b8",
      "gasUsed": "0x53b8",
      "contractAddress": null,
      "logs": [],
      "status": "0x1",
      "logsBloom": "0x00000000000000000000000000000000000000000000000000000000000000000000000000000000000000000000000000000000000000000000000000000000000000000000000000000000000000000000000000000000000000000000000000000000000000000000000000000000000000000000000000000000000000000000000000000000000000000000000000000000000000000000000000000000000000000000000000000000000000000000000000000000000000000000000000000000000000000000000000000000000000000000000000000000000000000000000000000000000000000000000000000000000000000000000000000000",
      "type": "0x0",
      "effectiveGasPrice": "0x5f5e100"
    },
    {
      "transactionHash": "0x6ad8353561863547573941afb1d38538f40b2112efe2ba406d8e9ca35a36ed8e",
      "transactionIndex": "0x1",
      "blockHash": "0x127b827730c8bb3c92bf0999a5ff48a4d55f21182d25a9eae29dfb030a376855",
      "blockNumber": "0xe4a9e9",
      "from": "0xfb0a3a93e9acd461747e7d613eb3722d53b96613",
      "to": "0xc7f2cf4845c6db0e1a1e91ed41bcd0fcc1b0e141",
      "cumulativeGasUsed": "0x59b0",
      "gasUsed": "0x59b0",
      "contractAddress": null,
      "logs": [],
      "status": "0x1",
      "logsBloom": "0x00000000000000000000000000000000000000000000000000000000000000000000000000000000000000000000000000000000000000000000000000000000000000000000000000000000000000000000000000000000000000000000000000000000000000000000000000000000000000000000000000000000000000000000000000000000000000000000000000000000000000000000000000000000000000000000000000000000000000000000000000000000000000000000000000000000000000000000000000000000000000000000000000000000000000000000000000000000000000000000000000000000000000000000000000000000",
      "type": "0x0",
      "effectiveGasPrice": "0x5f5e100"
    },
    {
      "transactionHash": "0xcb2d1b399b7d72a86cb70f1efd8a9224cfe5a108bfa56eba9b9215d5180dd461",
      "transactionIndex": "0x1",
      "blockHash": "0x331347eb0f73b7c1db44a21050eac8affed0eacd00f064621833220f5ebccbb3",
      "blockNumber": "0xe4a9f0",
      "from": "0xfb0a3a93e9acd461747e7d613eb3722d53b96613",
      "to": "0xd85bdcdae4db1faeb8ef93331525fe68d7c8b3f0",
      "cumulativeGasUsed": "0x5384",
      "gasUsed": "0x5384",
      "contractAddress": null,
      "logs": [],
      "status": "0x1",
      "logsBloom": "0x00000000000000000000000000000000000000000000000000000000000000000000000000000000000000000000000000000000000000000000000000000000000000000000000000000000000000000000000000000000000000000000000000000000000000000000000000000000000000000000000000000000000000000000000000000000000000000000000000000000000000000000000000000000000000000000000000000000000000000000000000000000000000000000000000000000000000000000000000000000000000000000000000000000000000000000000000000000000000000000000000000000000000000000000000000000",
      "type": "0x0",
      "effectiveGasPrice": "0x5f5e100"
    },
    {
      "transactionHash": "0x2eefa25317a9fd0e468498acb9a4c569852fa56903b2930a4343480d5d00a007",
      "transactionIndex": "0x1",
      "blockHash": "0xa4eaf0647409aca09dee377372ddde911e23c8f8bd40c3fcc7204c1cebdac328",
      "blockNumber": "0xe4a9f6",
      "from": "0xfb0a3a93e9acd461747e7d613eb3722d53b96613",
      "to": "0x238213078dbd09f2d15f4c14c02300fa1b2a81bb",
      "cumulativeGasUsed": "0x53b8",
      "gasUsed": "0x53b8",
      "contractAddress": null,
      "logs": [],
      "status": "0x1",
      "logsBloom": "0x00000000000000000000000000000000000000000000000000000000000000000000000000000000000000000000000000000000000000000000000000000000000000000000000000000000000000000000000000000000000000000000000000000000000000000000000000000000000000000000000000000000000000000000000000000000000000000000000000000000000000000000000000000000000000000000000000000000000000000000000000000000000000000000000000000000000000000000000000000000000000000000000000000000000000000000000000000000000000000000000000000000000000000000000000000000",
      "type": "0x0",
      "effectiveGasPrice": "0x5f5e100"
    },
    {
      "transactionHash": "0x78b664b7fc096d1eb0f8b5e0e42922e40b14f3826fd998d5c36db79f292c454e",
      "transactionIndex": "0x1",
      "blockHash": "0x35556bec7e9e3daaa8717561827a684fd879f1d2e69455bbcc85fe476566505d",
      "blockNumber": "0xe4a9fa",
      "from": "0xfb0a3a93e9acd461747e7d613eb3722d53b96613",
      "to": "0x238213078dbd09f2d15f4c14c02300fa1b2a81bb",
      "cumulativeGasUsed": "0x53b8",
      "gasUsed": "0x53b8",
      "contractAddress": null,
      "logs": [],
      "status": "0x1",
      "logsBloom": "0x00000000000000000000000000000000000000000000000000000000000000000000000000000000000000000000000000000000000000000000000000000000000000000000000000000000000000000000000000000000000000000000000000000000000000000000000000000000000000000000000000000000000000000000000000000000000000000000000000000000000000000000000000000000000000000000000000000000000000000000000000000000000000000000000000000000000000000000000000000000000000000000000000000000000000000000000000000000000000000000000000000000000000000000000000000000",
      "type": "0x0",
      "effectiveGasPrice": "0x5f5e100"
    },
    {
      "transactionHash": "0xe6a7c21b4ee19362dcd18f05954a05d1ced4b9604194bda21cbc0290d18d25b1",
      "transactionIndex": "0x1",
      "blockHash": "0xb7ec808ffb4e3c380ad49b08c0b66aeae24b359dfa84ea612e630a08f93a586b",
      "blockNumber": "0xe4aa00",
      "from": "0xfb0a3a93e9acd461747e7d613eb3722d53b96613",
      "to": "0xc7f2cf4845c6db0e1a1e91ed41bcd0fcc1b0e141",
      "cumulativeGasUsed": "0x59b0",
      "gasUsed": "0x59b0",
      "contractAddress": null,
      "logs": [],
      "status": "0x1",
      "logsBloom": "0x00000000000000000000000000000000000000000000000000000000000000000000000000000000000000000000000000000000000000000000000000000000000000000000000000000000000000000000000000000000000000000000000000000000000000000000000000000000000000000000000000000000000000000000000000000000000000000000000000000000000000000000000000000000000000000000000000000000000000000000000000000000000000000000000000000000000000000000000000000000000000000000000000000000000000000000000000000000000000000000000000000000000000000000000000000000",
      "type": "0x0",
      "effectiveGasPrice": "0x5f5e100"
    },
    {
      "transactionHash": "0x6df621f3fb2bdd1ac7e9e25dd56dfcd33db40155183497ed3d7a8b5fb7a3967a",
      "transactionIndex": "0x1",
      "blockHash": "0x28329a62c870b684d80886e922cad2b99a19981640b0f7d0782aa385496053e5",
      "blockNumber": "0xe4aa03",
      "from": "0xfb0a3a93e9acd461747e7d613eb3722d53b96613",
      "to": "0xd85bdcdae4db1faeb8ef93331525fe68d7c8b3f0",
      "cumulativeGasUsed": "0x5384",
      "gasUsed": "0x5384",
      "contractAddress": null,
      "logs": [],
      "status": "0x1",
      "logsBloom": "0x00000000000000000000000000000000000000000000000000000000000000000000000000000000000000000000000000000000000000000000000000000000000000000000000000000000000000000000000000000000000000000000000000000000000000000000000000000000000000000000000000000000000000000000000000000000000000000000000000000000000000000000000000000000000000000000000000000000000000000000000000000000000000000000000000000000000000000000000000000000000000000000000000000000000000000000000000000000000000000000000000000000000000000000000000000000",
      "type": "0x0",
      "effectiveGasPrice": "0x5f5e100"
    },
    {
      "transactionHash": "0x80a6b2220d0731a43866a3954590da94605de671c83b1330b1a31bda32545473",
      "transactionIndex": "0x1",
      "blockHash": "0xc1ecf22a62d380c4e6076ab49bbdcc208317bbe9c1f55f53e76f93ac02182b55",
      "blockNumber": "0xe4aa09",
      "from": "0xfb0a3a93e9acd461747e7d613eb3722d53b96613",
      "to": "0x238213078dbd09f2d15f4c14c02300fa1b2a81bb",
      "cumulativeGasUsed": "0x53b8",
      "gasUsed": "0x53b8",
      "contractAddress": null,
      "logs": [],
      "status": "0x1",
      "logsBloom": "0x00000000000000000000000000000000000000000000000000000000000000000000000000000000000000000000000000000000000000000000000000000000000000000000000000000000000000000000000000000000000000000000000000000000000000000000000000000000000000000000000000000000000000000000000000000000000000000000000000000000000000000000000000000000000000000000000000000000000000000000000000000000000000000000000000000000000000000000000000000000000000000000000000000000000000000000000000000000000000000000000000000000000000000000000000000000",
      "type": "0x0",
      "effectiveGasPrice": "0x5f5e100"
    },
    {
      "transactionHash": "0xf76d26a2f4b91c8e22a2590a03788a3f97488b71b8be4031aa69d20e99fb3050",
      "transactionIndex": "0x1",
      "blockHash": "0xe6d0089124293a4bd71b64ce4de950332572e6284e7535200a8e9d245f6092b2",
      "blockNumber": "0xe4aa0f",
      "from": "0xfb0a3a93e9acd461747e7d613eb3722d53b96613",
      "to": "0x238213078dbd09f2d15f4c14c02300fa1b2a81bb",
      "cumulativeGasUsed": "0x53ac",
      "gasUsed": "0x53ac",
      "contractAddress": null,
      "logs": [],
      "status": "0x1",
      "logsBloom": "0x00000000000000000000000000000000000000000000000000000000000000000000000000000000000000000000000000000000000000000000000000000000000000000000000000000000000000000000000000000000000000000000000000000000000000000000000000000000000000000000000000000000000000000000000000000000000000000000000000000000000000000000000000000000000000000000000000000000000000000000000000000000000000000000000000000000000000000000000000000000000000000000000000000000000000000000000000000000000000000000000000000000000000000000000000000000",
      "type": "0x0",
      "effectiveGasPrice": "0x5f5e100"
    },
    {
      "transactionHash": "0xffbc0c6e756eef101aa8634896dfe68fee55b2a67365e32dbb503fd6eddb81db",
      "transactionIndex": "0x1",
      "blockHash": "0xd039fc0f512ffebac488fa5521e7eefd06bba35289ed9a6609959e31b1b5c6a4",
      "blockNumber": "0xe4aa15",
      "from": "0xfb0a3a93e9acd461747e7d613eb3722d53b96613",
      "to": "0xc7f2cf4845c6db0e1a1e91ed41bcd0fcc1b0e141",
      "cumulativeGasUsed": "0x5434",
      "gasUsed": "0x5434",
      "contractAddress": null,
      "logs": [],
      "status": "0x1",
      "logsBloom": "0x00000000000000000000000000000000000000000000000000000000000000000000000000000000000000000000000000000000000000000000000000000000000000000000000000000000000000000000000000000000000000000000000000000000000000000000000000000000000000000000000000000000000000000000000000000000000000000000000000000000000000000000000000000000000000000000000000000000000000000000000000000000000000000000000000000000000000000000000000000000000000000000000000000000000000000000000000000000000000000000000000000000000000000000000000000000",
      "type": "0x0",
      "effectiveGasPrice": "0x5f5e100"
    },
    {
      "transactionHash": "0xb4092ee330b54fb8ac949b8cc40d7432db7ef637c993fb47e2d225a9c491da41",
      "transactionIndex": "0x1",
      "blockHash": "0xbe4c2427bd17999a8c041d2addf1a33ab63a9df8253617c2752d8fe552dff400",
      "blockNumber": "0xe4aa1b",
      "from": "0xfb0a3a93e9acd461747e7d613eb3722d53b96613",
      "to": "0xd85bdcdae4db1faeb8ef93331525fe68d7c8b3f0",
      "cumulativeGasUsed": "0x5384",
      "gasUsed": "0x5384",
      "contractAddress": null,
      "logs": [],
      "status": "0x1",
      "logsBloom": "0x00000000000000000000000000000000000000000000000000000000000000000000000000000000000000000000000000000000000000000000000000000000000000000000000000000000000000000000000000000000000000000000000000000000000000000000000000000000000000000000000000000000000000000000000000000000000000000000000000000000000000000000000000000000000000000000000000000000000000000000000000000000000000000000000000000000000000000000000000000000000000000000000000000000000000000000000000000000000000000000000000000000000000000000000000000000",
      "type": "0x0",
      "effectiveGasPrice": "0x5f5e100"
    },
    {
      "transactionHash": "0x61d8b4b56b463280348c019658e84ef2618bf0e63a36c7fcc04769e5903c6fbb",
      "transactionIndex": "0x1",
      "blockHash": "0xbc7fc65bc50d5218b469fc115de7949deac1843b94e8327a041d81859f61a8d1",
      "blockNumber": "0xe4aa1f",
      "from": "0xfb0a3a93e9acd461747e7d613eb3722d53b96613",
      "to": "0x238213078dbd09f2d15f4c14c02300fa1b2a81bb",
      "cumulativeGasUsed": "0x53b8",
      "gasUsed": "0x53b8",
      "contractAddress": null,
      "logs": [],
      "status": "0x1",
      "logsBloom": "0x00000000000000000000000000000000000000000000000000000000000000000000000000000000000000000000000000000000000000000000000000000000000000000000000000000000000000000000000000000000000000000000000000000000000000000000000000000000000000000000000000000000000000000000000000000000000000000000000000000000000000000000000000000000000000000000000000000000000000000000000000000000000000000000000000000000000000000000000000000000000000000000000000000000000000000000000000000000000000000000000000000000000000000000000000000000",
      "type": "0x0",
      "effectiveGasPrice": "0x5f5e100"
    },
    {
      "transactionHash": "0x11e10b7cc650feb03ff2ed2c5482db2188c4b868c0cb3c9e3589e600ec772c05",
      "transactionIndex": "0x1",
      "blockHash": "0x24fcb298f7bd79613f800dc657955f1b37bcac51be9a8179b8f326a13614a85b",
      "blockNumber": "0xe4aa26",
      "from": "0xfb0a3a93e9acd461747e7d613eb3722d53b96613",
      "to": "0x238213078dbd09f2d15f4c14c02300fa1b2a81bb",
      "cumulativeGasUsed": "0x53b8",
      "gasUsed": "0x53b8",
      "contractAddress": null,
      "logs": [],
      "status": "0x1",
      "logsBloom": "0x00000000000000000000000000000000000000000000000000000000000000000000000000000000000000000000000000000000000000000000000000000000000000000000000000000000000000000000000000000000000000000000000000000000000000000000000000000000000000000000000000000000000000000000000000000000000000000000000000000000000000000000000000000000000000000000000000000000000000000000000000000000000000000000000000000000000000000000000000000000000000000000000000000000000000000000000000000000000000000000000000000000000000000000000000000000",
      "type": "0x0",
      "effectiveGasPrice": "0x5f5e100"
    },
    {
      "transactionHash": "0x52df6f5bae0e9e42f6ae198177b3a5da81e7e9bea38a3684fb17bcd19241daea",
      "transactionIndex": "0x1",
      "blockHash": "0x0d0e581d1eb3edecd899d4cf48e8cef22a1ad7c152caa5d5a9f7cdeea3085117",
      "blockNumber": "0xe4aa30",
      "from": "0xfb0a3a93e9acd461747e7d613eb3722d53b96613",
      "to": "0xc7f2cf4845c6db0e1a1e91ed41bcd0fcc1b0e141",
      "cumulativeGasUsed": "0x5434",
      "gasUsed": "0x5434",
      "contractAddress": null,
      "logs": [],
      "status": "0x1",
      "logsBloom": "0x00000000000000000000000000000000000000000000000000000000000000000000000000000000000000000000000000000000000000000000000000000000000000000000000000000000000000000000000000000000000000000000000000000000000000000000000000000000000000000000000000000000000000000000000000000000000000000000000000000000000000000000000000000000000000000000000000000000000000000000000000000000000000000000000000000000000000000000000000000000000000000000000000000000000000000000000000000000000000000000000000000000000000000000000000000000",
      "type": "0x0",
      "effectiveGasPrice": "0x5f5e100"
    },
    {
      "transactionHash": "0xd3f73abe894096a2bc351a8ad03bcb0e11aa50f0b9317aeddcf613feea7222ba",
      "transactionIndex": "0x1",
      "blockHash": "0xedc51632f151339a4ac1ace931cbd2b8180ff69a2326e69bcd044cee0692c087",
      "blockNumber": "0xe4aa37",
      "from": "0xfb0a3a93e9acd461747e7d613eb3722d53b96613",
      "to": "0xd85bdcdae4db1faeb8ef93331525fe68d7c8b3f0",
      "cumulativeGasUsed": "0x5384",
      "gasUsed": "0x5384",
      "contractAddress": null,
      "logs": [],
      "status": "0x1",
      "logsBloom": "0x00000000000000000000000000000000000000000000000000000000000000000000000000000000000000000000000000000000000000000000000000000000000000000000000000000000000000000000000000000000000000000000000000000000000000000000000000000000000000000000000000000000000000000000000000000000000000000000000000000000000000000000000000000000000000000000000000000000000000000000000000000000000000000000000000000000000000000000000000000000000000000000000000000000000000000000000000000000000000000000000000000000000000000000000000000000",
      "type": "0x0",
      "effectiveGasPrice": "0x5f5e100"
    },
    {
      "transactionHash": "0x5f6ec3f7b9069b3200e26d9f96f452d1b9255b127e38fbb03e2c5947ab551336",
      "transactionIndex": "0x1",
      "blockHash": "0x742b8fb78188291b1055c46225a398472ca64f450a5c5c8f1ed577727cb98ec4",
      "blockNumber": "0xe4aa3f",
      "from": "0xfb0a3a93e9acd461747e7d613eb3722d53b96613",
      "to": "0x238213078dbd09f2d15f4c14c02300fa1b2a81bb",
      "cumulativeGasUsed": "0x53b8",
      "gasUsed": "0x53b8",
      "contractAddress": null,
      "logs": [],
      "status": "0x1",
      "logsBloom": "0x00000000000000000000000000000000000000000000000000000000000000000000000000000000000000000000000000000000000000000000000000000000000000000000000000000000000000000000000000000000000000000000000000000000000000000000000000000000000000000000000000000000000000000000000000000000000000000000000000000000000000000000000000000000000000000000000000000000000000000000000000000000000000000000000000000000000000000000000000000000000000000000000000000000000000000000000000000000000000000000000000000000000000000000000000000000",
      "type": "0x0",
      "effectiveGasPrice": "0x5f5e100"
    },
    {
      "transactionHash": "0xb4b52e798b3c82f055f0e5aeb39d1c85d06730050f6e4108e2caf5001ae21ea9",
      "transactionIndex": "0x1",
      "blockHash": "0xfb5322ece2fcf50317806642c08e3dc16bc2ce3ec7e3d565e3eed32615be61e3",
      "blockNumber": "0xe4aa42",
      "from": "0xfb0a3a93e9acd461747e7d613eb3722d53b96613",
      "to": "0x238213078dbd09f2d15f4c14c02300fa1b2a81bb",
      "cumulativeGasUsed": "0x53ac",
      "gasUsed": "0x53ac",
      "contractAddress": null,
      "logs": [],
      "status": "0x1",
      "logsBloom": "0x00000000000000000000000000000000000000000000000000000000000000000000000000000000000000000000000000000000000000000000000000000000000000000000000000000000000000000000000000000000000000000000000000000000000000000000000000000000000000000000000000000000000000000000000000000000000000000000000000000000000000000000000000000000000000000000000000000000000000000000000000000000000000000000000000000000000000000000000000000000000000000000000000000000000000000000000000000000000000000000000000000000000000000000000000000000",
      "type": "0x0",
      "effectiveGasPrice": "0x5f5e100"
    },
    {
      "transactionHash": "0x71d6a5382582f0fb1ed21e401b9c932b223ab85c0cc957f1cdb5a6950a7fce1c",
      "transactionIndex": "0x1",
      "blockHash": "0xfb394c5a20d424189bb1fd6a1a3dc3fd3ab8eca89e2ad57e459076ee4bb54492",
      "blockNumber": "0xe4aa49",
      "from": "0xfb0a3a93e9acd461747e7d613eb3722d53b96613",
      "to": "0xc7f2cf4845c6db0e1a1e91ed41bcd0fcc1b0e141",
      "cumulativeGasUsed": "0x5434",
      "gasUsed": "0x5434",
      "contractAddress": null,
      "logs": [],
      "status": "0x1",
      "logsBloom": "0x00000000000000000000000000000000000000000000000000000000000000000000000000000000000000000000000000000000000000000000000000000000000000000000000000000000000000000000000000000000000000000000000000000000000000000000000000000000000000000000000000000000000000000000000000000000000000000000000000000000000000000000000000000000000000000000000000000000000000000000000000000000000000000000000000000000000000000000000000000000000000000000000000000000000000000000000000000000000000000000000000000000000000000000000000000000",
      "type": "0x0",
      "effectiveGasPrice": "0x5f5e100"
    },
    {
      "transactionHash": "0x221b7718804c922d82e53e0a00d3db25a600909f9896236375acab7d2d7c648c",
      "transactionIndex": "0x1",
      "blockHash": "0x16e99544ed5a1833c1daf51d59940d32915058017b895f239b6ce722aa7fa959",
      "blockNumber": "0xe4aa51",
      "from": "0xfb0a3a93e9acd461747e7d613eb3722d53b96613",
      "to": "0xd85bdcdae4db1faeb8ef93331525fe68d7c8b3f0",
      "cumulativeGasUsed": "0x5384",
      "gasUsed": "0x5384",
      "contractAddress": null,
      "logs": [],
      "status": "0x1",
      "logsBloom": "0x00000000000000000000000000000000000000000000000000000000000000000000000000000000000000000000000000000000000000000000000000000000000000000000000000000000000000000000000000000000000000000000000000000000000000000000000000000000000000000000000000000000000000000000000000000000000000000000000000000000000000000000000000000000000000000000000000000000000000000000000000000000000000000000000000000000000000000000000000000000000000000000000000000000000000000000000000000000000000000000000000000000000000000000000000000000",
      "type": "0x0",
      "effectiveGasPrice": "0x5f5e100"
    },
    {
      "transactionHash": "0x6b5230c503707abfb43c18b54f4fa35175d4bd7a2e1e7c7b806d647866a925f3",
      "transactionIndex": "0x1",
      "blockHash": "0x9029a8d57a27073c031ae8f7a53e6778ef37e0101d899a5c02875cc4eb4b3bb4",
      "blockNumber": "0xe4aa57",
      "from": "0xfb0a3a93e9acd461747e7d613eb3722d53b96613",
      "to": "0x238213078dbd09f2d15f4c14c02300fa1b2a81bb",
      "cumulativeGasUsed": "0x53b8",
      "gasUsed": "0x53b8",
      "contractAddress": null,
      "logs": [],
      "status": "0x1",
      "logsBloom": "0x00000000000000000000000000000000000000000000000000000000000000000000000000000000000000000000000000000000000000000000000000000000000000000000000000000000000000000000000000000000000000000000000000000000000000000000000000000000000000000000000000000000000000000000000000000000000000000000000000000000000000000000000000000000000000000000000000000000000000000000000000000000000000000000000000000000000000000000000000000000000000000000000000000000000000000000000000000000000000000000000000000000000000000000000000000000",
      "type": "0x0",
      "effectiveGasPrice": "0x5f5e100"
    },
    {
      "transactionHash": "0x586aba687a2826ea8c0c9c1bb67525ba7fa7a6d9ab62c2c58097c768881d6426",
      "transactionIndex": "0x1",
      "blockHash": "0x58d3a8b264008d11d37a003902977711401bbe4266524cb28ad1bebcc2086b52",
      "blockNumber": "0xe4aa5c",
      "from": "0xfb0a3a93e9acd461747e7d613eb3722d53b96613",
      "to": "0x238213078dbd09f2d15f4c14c02300fa1b2a81bb",
      "cumulativeGasUsed": "0x53b8",
      "gasUsed": "0x53b8",
      "contractAddress": null,
      "logs": [],
      "status": "0x1",
      "logsBloom": "0x00000000000000000000000000000000000000000000000000000000000000000000000000000000000000000000000000000000000000000000000000000000000000000000000000000000000000000000000000000000000000000000000000000000000000000000000000000000000000000000000000000000000000000000000000000000000000000000000000000000000000000000000000000000000000000000000000000000000000000000000000000000000000000000000000000000000000000000000000000000000000000000000000000000000000000000000000000000000000000000000000000000000000000000000000000000",
      "type": "0x0",
      "effectiveGasPrice": "0x5f5e100"
    },
    {
      "transactionHash": "0x0396952c873b03726beb07471b82f03bd4edf378aa3441af10f7ef7395ce2e88",
      "transactionIndex": "0x1",
      "blockHash": "0x6dc9d6092864e625108f076c28adf62f01cd8c40db4e4e32ec340a527e952e1a",
      "blockNumber": "0xe4aa61",
      "from": "0xfb0a3a93e9acd461747e7d613eb3722d53b96613",
      "to": "0xc7f2cf4845c6db0e1a1e91ed41bcd0fcc1b0e141",
      "cumulativeGasUsed": "0x5434",
      "gasUsed": "0x5434",
      "contractAddress": null,
      "logs": [],
      "status": "0x1",
      "logsBloom": "0x00000000000000000000000000000000000000000000000000000000000000000000000000000000000000000000000000000000000000000000000000000000000000000000000000000000000000000000000000000000000000000000000000000000000000000000000000000000000000000000000000000000000000000000000000000000000000000000000000000000000000000000000000000000000000000000000000000000000000000000000000000000000000000000000000000000000000000000000000000000000000000000000000000000000000000000000000000000000000000000000000000000000000000000000000000000",
      "type": "0x0",
      "effectiveGasPrice": "0x5f5e100"
    },
    {
      "transactionHash": "0x629c1399acef6c3f7d8c59e4cd857ea57d366399aeafc3b9f470c36810e8bd5c",
      "transactionIndex": "0x1",
      "blockHash": "0xd3fc5393db1fd7b191cbd33e177a72bc96b0ea806b2734843ef29630b434a907",
      "blockNumber": "0xe4aa65",
      "from": "0xfb0a3a93e9acd461747e7d613eb3722d53b96613",
      "to": "0xd85bdcdae4db1faeb8ef93331525fe68d7c8b3f0",
      "cumulativeGasUsed": "0x5384",
      "gasUsed": "0x5384",
      "contractAddress": null,
      "logs": [],
      "status": "0x1",
      "logsBloom": "0x00000000000000000000000000000000000000000000000000000000000000000000000000000000000000000000000000000000000000000000000000000000000000000000000000000000000000000000000000000000000000000000000000000000000000000000000000000000000000000000000000000000000000000000000000000000000000000000000000000000000000000000000000000000000000000000000000000000000000000000000000000000000000000000000000000000000000000000000000000000000000000000000000000000000000000000000000000000000000000000000000000000000000000000000000000000",
      "type": "0x0",
      "effectiveGasPrice": "0x5f5e100"
    },
    {
      "transactionHash": "0x632db8b7cd34bd2677adbddf6208f3eeac842947db8234aedef97d159091b514",
      "transactionIndex": "0x1",
      "blockHash": "0x54601cc90639779ecc79bacfd7f7782680b38d37808bb86d1d4d552f57f6fb0d",
      "blockNumber": "0xe4aa6d",
      "from": "0xfb0a3a93e9acd461747e7d613eb3722d53b96613",
      "to": "0x238213078dbd09f2d15f4c14c02300fa1b2a81bb",
      "cumulativeGasUsed": "0x53b8",
      "gasUsed": "0x53b8",
      "contractAddress": null,
      "logs": [],
      "status": "0x1",
      "logsBloom": "0x00000000000000000000000000000000000000000000000000000000000000000000000000000000000000000000000000000000000000000000000000000000000000000000000000000000000000000000000000000000000000000000000000000000000000000000000000000000000000000000000000000000000000000000000000000000000000000000000000000000000000000000000000000000000000000000000000000000000000000000000000000000000000000000000000000000000000000000000000000000000000000000000000000000000000000000000000000000000000000000000000000000000000000000000000000000",
      "type": "0x0",
      "effectiveGasPrice": "0x5f5e100"
    },
    {
      "transactionHash": "0xaa06265a94190f9c182a4697713f3d67e97c9488a9a01dd5a578ea5b909a0621",
      "transactionIndex": "0x1",
      "blockHash": "0xb27d1e70ef1e55b793be1b1d75fdf74beea527b6ddc72726e749ebc38fda300b",
      "blockNumber": "0xe4aa70",
      "from": "0xfb0a3a93e9acd461747e7d613eb3722d53b96613",
      "to": "0x238213078dbd09f2d15f4c14c02300fa1b2a81bb",
      "cumulativeGasUsed": "0x53b8",
      "gasUsed": "0x53b8",
      "contractAddress": null,
      "logs": [],
      "status": "0x1",
      "logsBloom": "0x00000000000000000000000000000000000000000000000000000000000000000000000000000000000000000000000000000000000000000000000000000000000000000000000000000000000000000000000000000000000000000000000000000000000000000000000000000000000000000000000000000000000000000000000000000000000000000000000000000000000000000000000000000000000000000000000000000000000000000000000000000000000000000000000000000000000000000000000000000000000000000000000000000000000000000000000000000000000000000000000000000000000000000000000000000000",
      "type": "0x0",
      "effectiveGasPrice": "0x5f5e100"
    },
    {
      "transactionHash": "0xe7a82a2a9e07400228650e3c844849d4b175b0d7ed8b848a5816507b3b39155d",
      "transactionIndex": "0x1",
      "blockHash": "0xe44c3cdfb155e584f9b47ec9ff396c4344e637b9bd2dd73f831d8e1e81cd99a0",
      "blockNumber": "0xe4aa80",
      "from": "0xfb0a3a93e9acd461747e7d613eb3722d53b96613",
      "to": "0xc7f2cf4845c6db0e1a1e91ed41bcd0fcc1b0e141",
      "cumulativeGasUsed": "0x5434",
      "gasUsed": "0x5434",
      "contractAddress": null,
      "logs": [],
      "status": "0x1",
      "logsBloom": "0x00000000000000000000000000000000000000000000000000000000000000000000000000000000000000000000000000000000000000000000000000000000000000000000000000000000000000000000000000000000000000000000000000000000000000000000000000000000000000000000000000000000000000000000000000000000000000000000000000000000000000000000000000000000000000000000000000000000000000000000000000000000000000000000000000000000000000000000000000000000000000000000000000000000000000000000000000000000000000000000000000000000000000000000000000000000",
      "type": "0x0",
      "effectiveGasPrice": "0x5f5e100"
    },
    {
      "transactionHash": "0x9165650a733cc7f47b5f276eee5fe7337c7f0065f9dc0f89940e3fabf25af0c6",
      "transactionIndex": "0x1",
      "blockHash": "0x9dda23478d32c50a748fe50337f18a5f6843fb178d85293e0db7581fd54c2b4d",
      "blockNumber": "0xe4aa85",
      "from": "0xfb0a3a93e9acd461747e7d613eb3722d53b96613",
      "to": "0xd85bdcdae4db1faeb8ef93331525fe68d7c8b3f0",
      "cumulativeGasUsed": "0x5384",
      "gasUsed": "0x5384",
      "contractAddress": null,
      "logs": [],
      "status": "0x1",
      "logsBloom": "0x00000000000000000000000000000000000000000000000000000000000000000000000000000000000000000000000000000000000000000000000000000000000000000000000000000000000000000000000000000000000000000000000000000000000000000000000000000000000000000000000000000000000000000000000000000000000000000000000000000000000000000000000000000000000000000000000000000000000000000000000000000000000000000000000000000000000000000000000000000000000000000000000000000000000000000000000000000000000000000000000000000000000000000000000000000000",
      "type": "0x0",
      "effectiveGasPrice": "0x5f5e100"
    },
    {
      "transactionHash": "0xbc05ecf999ff7114d11ade6d696022e3caa8b332c03041c3a56c1c237fc61bcb",
      "transactionIndex": "0x1",
      "blockHash": "0x265a4cd609ee95332804d873e919aa3e12b14ca2f5e28ed0648a391d7322cfe6",
      "blockNumber": "0xe4aa8f",
      "from": "0xfb0a3a93e9acd461747e7d613eb3722d53b96613",
      "to": "0x238213078dbd09f2d15f4c14c02300fa1b2a81bb",
      "cumulativeGasUsed": "0x53b8",
      "gasUsed": "0x53b8",
      "contractAddress": null,
      "logs": [],
      "status": "0x1",
      "logsBloom": "0x00000000000000000000000000000000000000000000000000000000000000000000000000000000000000000000000000000000000000000000000000000000000000000000000000000000000000000000000000000000000000000000000000000000000000000000000000000000000000000000000000000000000000000000000000000000000000000000000000000000000000000000000000000000000000000000000000000000000000000000000000000000000000000000000000000000000000000000000000000000000000000000000000000000000000000000000000000000000000000000000000000000000000000000000000000000",
      "type": "0x0",
      "effectiveGasPrice": "0x5f5e100"
    },
    {
      "transactionHash": "0x55407da408d86cdaca6738181dbb3b1421dd491a33d3e7929fa1375c3e39c9d5",
      "transactionIndex": "0x1",
      "blockHash": "0xc96f233df7401c637b545bf4301e68ddea9cfa936903796ca5edbe7355972e62",
      "blockNumber": "0xe4aa95",
      "from": "0xfb0a3a93e9acd461747e7d613eb3722d53b96613",
      "to": "0x238213078dbd09f2d15f4c14c02300fa1b2a81bb",
      "cumulativeGasUsed": "0x53b8",
      "gasUsed": "0x53b8",
      "contractAddress": null,
      "logs": [],
      "status": "0x1",
      "logsBloom": "0x00000000000000000000000000000000000000000000000000000000000000000000000000000000000000000000000000000000000000000000000000000000000000000000000000000000000000000000000000000000000000000000000000000000000000000000000000000000000000000000000000000000000000000000000000000000000000000000000000000000000000000000000000000000000000000000000000000000000000000000000000000000000000000000000000000000000000000000000000000000000000000000000000000000000000000000000000000000000000000000000000000000000000000000000000000000",
      "type": "0x0",
      "effectiveGasPrice": "0x5f5e100"
    },
    {
      "transactionHash": "0x32b345e14fb554c8571fb4a0cfbd3e7deff913d9295f7629f88d68a8240b49aa",
      "transactionIndex": "0x1",
      "blockHash": "0xddb6c5c010e59c1b27d9f4d5456f424f29c94ddf6aeff1af0d87c367300e9735",
      "blockNumber": "0xe4aa9b",
      "from": "0xfb0a3a93e9acd461747e7d613eb3722d53b96613",
      "to": "0xc7f2cf4845c6db0e1a1e91ed41bcd0fcc1b0e141",
      "cumulativeGasUsed": "0x5434",
      "gasUsed": "0x5434",
      "contractAddress": null,
      "logs": [],
      "status": "0x1",
      "logsBloom": "0x00000000000000000000000000000000000000000000000000000000000000000000000000000000000000000000000000000000000000000000000000000000000000000000000000000000000000000000000000000000000000000000000000000000000000000000000000000000000000000000000000000000000000000000000000000000000000000000000000000000000000000000000000000000000000000000000000000000000000000000000000000000000000000000000000000000000000000000000000000000000000000000000000000000000000000000000000000000000000000000000000000000000000000000000000000000",
      "type": "0x0",
      "effectiveGasPrice": "0x5f5e100"
    },
    {
      "transactionHash": "0x937f130490ec628ee2b39692db52cb372a7937d1ce5782a876a0efa76c4ee28b",
      "transactionIndex": "0x1",
      "blockHash": "0xcb9e7692f50da1ce2ba93046d409fc19e48d80e2156fcbcbb0d56f7bd00755ca",
      "blockNumber": "0xe4aaa0",
      "from": "0xfb0a3a93e9acd461747e7d613eb3722d53b96613",
      "to": "0xd85bdcdae4db1faeb8ef93331525fe68d7c8b3f0",
      "cumulativeGasUsed": "0x5384",
      "gasUsed": "0x5384",
      "contractAddress": null,
      "logs": [],
      "status": "0x1",
      "logsBloom": "0x00000000000000000000000000000000000000000000000000000000000000000000000000000000000000000000000000000000000000000000000000000000000000000000000000000000000000000000000000000000000000000000000000000000000000000000000000000000000000000000000000000000000000000000000000000000000000000000000000000000000000000000000000000000000000000000000000000000000000000000000000000000000000000000000000000000000000000000000000000000000000000000000000000000000000000000000000000000000000000000000000000000000000000000000000000000",
      "type": "0x0",
      "effectiveGasPrice": "0x5f5e100"
    },
    {
      "transactionHash": "0xf331814c8e4d3594a3d5c84ba64b73956add2d1529bdfb0acfa1861cce00a02a",
      "transactionIndex": "0x1",
      "blockHash": "0x32938df25af6b27b1ae7c282d10c8fc0474de0d0c269a1d84c857c1752f8fefd",
      "blockNumber": "0xe4aaa5",
      "from": "0xfb0a3a93e9acd461747e7d613eb3722d53b96613",
      "to": "0x238213078dbd09f2d15f4c14c02300fa1b2a81bb",
      "cumulativeGasUsed": "0x53b8",
      "gasUsed": "0x53b8",
      "contractAddress": null,
      "logs": [],
      "status": "0x1",
      "logsBloom": "0x00000000000000000000000000000000000000000000000000000000000000000000000000000000000000000000000000000000000000000000000000000000000000000000000000000000000000000000000000000000000000000000000000000000000000000000000000000000000000000000000000000000000000000000000000000000000000000000000000000000000000000000000000000000000000000000000000000000000000000000000000000000000000000000000000000000000000000000000000000000000000000000000000000000000000000000000000000000000000000000000000000000000000000000000000000000",
      "type": "0x0",
      "effectiveGasPrice": "0x5f5e100"
    },
    {
      "transactionHash": "0x5b1a3e117de9d17aae2b266ce4460c6c68768089c6a9bcf53c3e576f8c6656dc",
      "transactionIndex": "0x1",
      "blockHash": "0x731dfa29feb27fea4f7d8214ab7323687a196d3788ff39f5d9b6a9fbe22fa6db",
      "blockNumber": "0xe4aaaa",
      "from": "0xfb0a3a93e9acd461747e7d613eb3722d53b96613",
      "to": "0x238213078dbd09f2d15f4c14c02300fa1b2a81bb",
      "cumulativeGasUsed": "0x53b8",
      "gasUsed": "0x53b8",
      "contractAddress": null,
      "logs": [],
      "status": "0x1",
      "logsBloom": "0x00000000000000000000000000000000000000000000000000000000000000000000000000000000000000000000000000000000000000000000000000000000000000000000000000000000000000000000000000000000000000000000000000000000000000000000000000000000000000000000000000000000000000000000000000000000000000000000000000000000000000000000000000000000000000000000000000000000000000000000000000000000000000000000000000000000000000000000000000000000000000000000000000000000000000000000000000000000000000000000000000000000000000000000000000000000",
      "type": "0x0",
      "effectiveGasPrice": "0x5f5e100"
    }
  ],
  "libraries": [],
  "pending": [],
  "path": "/home/miguelbits/Desktop/Y2K/EARTHQUAKE/broadcast/DeployRinkeby.s.sol/421611/run-latest.json",
  "returns": {},
  "timestamp": 1661853146
}